{
	"contracts/TokenMarket.sol": {
		"TokenMarket": {
			"abi": [
				{
					"inputs": [
						{
							"internalType": "address",
							"name": "_tokenAddress",
							"type": "address"
						}
					],
					"stateMutability": "nonpayable",
					"type": "constructor"
				},
				{
					"anonymous": false,
					"inputs": [
						{
							"indexed": true,
							"internalType": "address",
							"name": "previousOwner",
							"type": "address"
						},
						{
							"indexed": true,
							"internalType": "address",
							"name": "newOwner",
							"type": "address"
						}
					],
					"name": "OwnershipTransferred",
					"type": "event"
				},
				{
					"inputs": [],
					"name": "DOMAIN_TYPE_HASH",
					"outputs": [
						{
							"internalType": "bytes32",
							"name": "",
							"type": "bytes32"
						}
					],
					"stateMutability": "view",
					"type": "function"
				},
				{
					"inputs": [],
					"name": "LIST_TYPE_HASH",
					"outputs": [
						{
							"internalType": "bytes32",
							"name": "",
							"type": "bytes32"
						}
					],
					"stateMutability": "view",
					"type": "function"
				},
				{
					"inputs": [
						{
							"internalType": "bytes",
							"name": "sig",
							"type": "bytes"
						}
					],
					"name": "_splitSignature",
					"outputs": [
						{
							"internalType": "bytes32",
							"name": "r",
							"type": "bytes32"
						},
						{
							"internalType": "bytes32",
							"name": "s",
							"type": "bytes32"
						},
						{
							"internalType": "uint8",
							"name": "v",
							"type": "uint8"
						}
					],
					"stateMutability": "pure",
					"type": "function"
				},
				{
					"inputs": [
						{
							"components": [
								{
									"internalType": "uint256",
									"name": "_price",
									"type": "uint256"
								},
								{
									"internalType": "uint256",
									"name": "_amount",
									"type": "uint256"
								},
								{
									"internalType": "address",
									"name": "_from",
									"type": "address"
								},
								{
									"internalType": "address",
									"name": "_currency",
									"type": "address"
								},
								{
									"internalType": "uint256",
									"name": "deadline",
									"type": "uint256"
								},
								{
									"internalType": "bytes",
									"name": "signature",
									"type": "bytes"
								}
							],
							"internalType": "struct ITokenMarket.ListRequest",
							"name": "request",
							"type": "tuple"
						},
						{
							"internalType": "uint256",
							"name": "buyAmount",
							"type": "uint256"
						}
					],
					"name": "buy",
					"outputs": [],
					"stateMutability": "payable",
					"type": "function"
				},
				{
					"inputs": [
						{
							"internalType": "uint256",
							"name": "_price",
							"type": "uint256"
						},
						{
							"internalType": "uint256",
							"name": "_amount",
							"type": "uint256"
						}
					],
					"name": "listing",
					"outputs": [],
					"stateMutability": "nonpayable",
					"type": "function"
				},
				{
					"inputs": [],
					"name": "listingCounter",
					"outputs": [
						{
							"internalType": "uint256",
							"name": "",
							"type": "uint256"
						}
					],
					"stateMutability": "view",
					"type": "function"
				},
				{
					"inputs": [
						{
							"internalType": "uint256",
							"name": "",
							"type": "uint256"
						}
					],
					"name": "listings",
					"outputs": [
						{
							"internalType": "uint256",
							"name": "_price",
							"type": "uint256"
						},
						{
							"internalType": "uint256",
							"name": "_amount",
							"type": "uint256"
						},
						{
							"internalType": "address",
							"name": "_from",
							"type": "address"
						},
						{
							"internalType": "address",
							"name": "_currency",
							"type": "address"
						},
						{
							"internalType": "uint256",
							"name": "deadline",
							"type": "uint256"
						},
						{
							"internalType": "bytes",
							"name": "signature",
							"type": "bytes"
						}
					],
					"stateMutability": "view",
					"type": "function"
				},
				{
					"inputs": [
						{
							"components": [
								{
									"internalType": "uint256",
									"name": "_price",
									"type": "uint256"
								},
								{
									"internalType": "uint256",
									"name": "_amount",
									"type": "uint256"
								},
								{
									"internalType": "address",
									"name": "_currency",
									"type": "address"
								},
								{
									"internalType": "uint256",
									"name": "duration",
									"type": "uint256"
								}
							],
							"internalType": "struct ITokenMarket.MakeOfferRequest",
							"name": "request",
							"type": "tuple"
						}
					],
					"name": "makeOffer",
					"outputs": [],
					"stateMutability": "payable",
					"type": "function"
				},
				{
					"inputs": [],
					"name": "owner",
					"outputs": [
						{
							"internalType": "address",
							"name": "",
							"type": "address"
						}
					],
					"stateMutability": "view",
					"type": "function"
				},
				{
					"inputs": [],
					"name": "renounceOwnership",
					"outputs": [],
					"stateMutability": "nonpayable",
					"type": "function"
				},
				{
					"inputs": [],
					"name": "token",
					"outputs": [
						{
							"internalType": "contract IERC20",
							"name": "",
							"type": "address"
						}
					],
					"stateMutability": "view",
					"type": "function"
				},
				{
					"inputs": [
						{
							"internalType": "address",
							"name": "newOwner",
							"type": "address"
						}
					],
					"name": "transferOwnership",
					"outputs": [],
					"stateMutability": "nonpayable",
					"type": "function"
				}
			],
			"devdoc": {
				"kind": "dev",
				"methods": {
					"owner()": {
						"details": "Returns the address of the current owner."
					},
					"renounceOwnership()": {
						"details": "Leaves the contract without owner. It will not be possible to call `onlyOwner` functions. Can only be called by the current owner. NOTE: Renouncing ownership will leave the contract without an owner, thereby disabling any functionality that is only available to the owner."
					},
					"transferOwnership(address)": {
						"details": "Transfers ownership of the contract to a new account (`newOwner`). Can only be called by the current owner."
					}
				},
				"version": 1
			},
			"evm": {
				"assembly": "    /* \"contracts/TokenMarket.sol\":204:2898  contract TokenMarket is ITokenMarket, Ownable {... */\n  mstore(0x40, 0x80)\n    /* \"contracts/TokenMarket.sol\":747:993  constructor(address _tokenAddress) {... */\n  callvalue\n  dup1\n  iszero\n  tag_1\n  jumpi\n  0x00\n  dup1\n  revert\ntag_1:\n  pop\n  mload(0x40)\n  sub(codesize, bytecodeSize)\n  dup1\n  bytecodeSize\n  dup4\n  codecopy\n  dup2\n  dup2\n  add\n  0x40\n  mstore\n  dup2\n  add\n  swap1\n  tag_2\n  swap2\n  swap1\n  tag_3\n  jump\t// in\ntag_2:\n    /* \"@openzeppelin/contracts/access/Ownable.sol\":936:968  _transferOwnership(_msgSender()) */\n  tag_7\n    /* \"@openzeppelin/contracts/access/Ownable.sol\":955:967  _msgSender() */\n  tag_8\n    /* \"@openzeppelin/contracts/access/Ownable.sol\":955:965  _msgSender */\n  shl(0x20, tag_9)\n    /* \"@openzeppelin/contracts/access/Ownable.sol\":955:967  _msgSender() */\n  0x20\n  shr\n  jump\t// in\ntag_8:\n    /* \"@openzeppelin/contracts/access/Ownable.sol\":936:954  _transferOwnership */\n  shl(0x20, tag_10)\n    /* \"@openzeppelin/contracts/access/Ownable.sol\":936:968  _transferOwnership(_msgSender()) */\n  0x20\n  shr\n  jump\t// in\ntag_7:\n    /* \"contracts/TokenMarket.sol\":429:509  keccak256(\"EIP712Domain(string name,uint256 chainId,address verifyingContract)\") */\n  0x8cad95687ba82c2ce50e74f7b754645e5117c3a5bec8151c0726d5857980a866\n    /* \"contracts/TokenMarket.sol\":875:902  bytes(\"OstrichMarketplace\") */\n  mload(0x40)\n  dup1\n  0x40\n  add\n  0x40\n  mstore\n  dup1\n  0x12\n  dup2\n  mstore\n  0x20\n  add\n  0x4f7374726963684d61726b6574706c6163650000000000000000000000000000\n  dup2\n  mstore\n  pop\n    /* \"contracts/TokenMarket.sol\":865:903  keccak256(bytes(\"OstrichMarketplace\")) */\n  dup1\n  mload\n  swap1\n  0x20\n  add\n  keccak256\n    /* \"contracts/TokenMarket.sol\":905:918  _getChainId() */\n  tag_12\n    /* \"contracts/TokenMarket.sol\":905:916  _getChainId */\n  shl(0x20, tag_13)\n    /* \"contracts/TokenMarket.sol\":905:918  _getChainId() */\n  0x20\n  shr\n  jump\t// in\ntag_12:\n    /* \"contracts/TokenMarket.sol\":928:932  this */\n  address\n    /* \"contracts/TokenMarket.sol\":836:934  abi.encode(DOMAIN_TYPE_HASH, keccak256(bytes(\"OstrichMarketplace\")), _getChainId(), address(this)) */\n  add(0x20, mload(0x40))\n  tag_14\n  swap5\n  swap4\n  swap3\n  swap2\n  swap1\n  tag_15\n  jump\t// in\ntag_14:\n  mload(0x40)\n  0x20\n  dup2\n  dup4\n  sub\n  sub\n  dup2\n  mstore\n  swap1\n  0x40\n  mstore\n    /* \"contracts/TokenMarket.sol\":812:945  keccak256(... */\n  dup1\n  mload\n  swap1\n  0x20\n  add\n  keccak256\n    /* \"contracts/TokenMarket.sol\":793:809  _domainSeparator */\n  0x04\n    /* \"contracts/TokenMarket.sol\":793:945  _domainSeparator = keccak256(... */\n  dup2\n  swap1\n  sstore\n  pop\n    /* \"contracts/TokenMarket.sol\":971:984  _tokenAddress */\n  dup1\n    /* \"contracts/TokenMarket.sol\":956:961  token */\n  0x01\n  0x00\n    /* \"contracts/TokenMarket.sol\":956:985  token = IERC20(_tokenAddress) */\n  0x0100\n  exp\n  dup2\n  sload\n  dup2\n  0xffffffffffffffffffffffffffffffffffffffff\n  mul\n  not\n  and\n  swap1\n  dup4\n  0xffffffffffffffffffffffffffffffffffffffff\n  and\n  mul\n  or\n  swap1\n  sstore\n  pop\n    /* \"contracts/TokenMarket.sol\":747:993  constructor(address _tokenAddress) {... */\n  pop\n    /* \"contracts/TokenMarket.sol\":204:2898  contract TokenMarket is ITokenMarket, Ownable {... */\n  jump(tag_16)\n    /* \"@openzeppelin/contracts/utils/Context.sol\":640:736  function _msgSender() internal view virtual returns (address) {... */\ntag_9:\n    /* \"@openzeppelin/contracts/utils/Context.sol\":693:700  address */\n  0x00\n    /* \"@openzeppelin/contracts/utils/Context.sol\":719:729  msg.sender */\n  caller\n    /* \"@openzeppelin/contracts/utils/Context.sol\":712:729  return msg.sender */\n  swap1\n  pop\n    /* \"@openzeppelin/contracts/utils/Context.sol\":640:736  function _msgSender() internal view virtual returns (address) {... */\n  swap1\n  jump\t// out\n    /* \"@openzeppelin/contracts/access/Ownable.sol\":2426:2613  function _transferOwnership(address newOwner) internal virtual {... */\ntag_10:\n    /* \"@openzeppelin/contracts/access/Ownable.sol\":2499:2515  address oldOwner */\n  0x00\n    /* \"@openzeppelin/contracts/access/Ownable.sol\":2518:2524  _owner */\n  dup1\n  0x00\n  swap1\n  sload\n  swap1\n  0x0100\n  exp\n  swap1\n  div\n  0xffffffffffffffffffffffffffffffffffffffff\n  and\n    /* \"@openzeppelin/contracts/access/Ownable.sol\":2499:2524  address oldOwner = _owner */\n  swap1\n  pop\n    /* \"@openzeppelin/contracts/access/Ownable.sol\":2543:2551  newOwner */\n  dup2\n    /* \"@openzeppelin/contracts/access/Ownable.sol\":2534:2540  _owner */\n  0x00\n  dup1\n    /* \"@openzeppelin/contracts/access/Ownable.sol\":2534:2551  _owner = newOwner */\n  0x0100\n  exp\n  dup2\n  sload\n  dup2\n  0xffffffffffffffffffffffffffffffffffffffff\n  mul\n  not\n  and\n  swap1\n  dup4\n  0xffffffffffffffffffffffffffffffffffffffff\n  and\n  mul\n  or\n  swap1\n  sstore\n  pop\n    /* \"@openzeppelin/contracts/access/Ownable.sol\":2597:2605  newOwner */\n  dup2\n    /* \"@openzeppelin/contracts/access/Ownable.sol\":2566:2606  OwnershipTransferred(oldOwner, newOwner) */\n  0xffffffffffffffffffffffffffffffffffffffff\n  and\n    /* \"@openzeppelin/contracts/access/Ownable.sol\":2587:2595  oldOwner */\n  dup2\n    /* \"@openzeppelin/contracts/access/Ownable.sol\":2566:2606  OwnershipTransferred(oldOwner, newOwner) */\n  0xffffffffffffffffffffffffffffffffffffffff\n  and\n  0x8be0079c531659141344cd1fd0a4f28419497f9722a3daafe3b4186f6b6457e0\n  mload(0x40)\n  mload(0x40)\n  dup1\n  swap2\n  sub\n  swap1\n  log3\n    /* \"@openzeppelin/contracts/access/Ownable.sol\":2489:2613  {... */\n  pop\n    /* \"@openzeppelin/contracts/access/Ownable.sol\":2426:2613  function _transferOwnership(address newOwner) internal virtual {... */\n  pop\n  jump\t// out\n    /* \"contracts/TokenMarket.sol\":2048:2226  function _getChainId() private view returns (uint256) {... */\ntag_13:\n    /* \"contracts/TokenMarket.sol\":2093:2100  uint256 */\n  0x00\n    /* \"contracts/TokenMarket.sol\":2113:2128  uint256 chainId */\n  dup1\n    /* \"contracts/TokenMarket.sol\":2174:2183  chainid() */\n  chainid\n    /* \"contracts/TokenMarket.sol\":2163:2183  chainId := chainid() */\n  swap1\n  pop\n    /* \"contracts/TokenMarket.sol\":2211:2218  chainId */\n  dup1\n    /* \"contracts/TokenMarket.sol\":2204:2218  return chainId */\n  swap2\n  pop\n  pop\n    /* \"contracts/TokenMarket.sol\":2048:2226  function _getChainId() private view returns (uint256) {... */\n  swap1\n  jump\t// out\n    /* \"#utility.yul\":88:205   */\ntag_21:\n    /* \"#utility.yul\":197:198   */\n  0x00\n    /* \"#utility.yul\":194:195   */\n  dup1\n    /* \"#utility.yul\":187:199   */\n  revert\n    /* \"#utility.yul\":334:460   */\ntag_23:\n    /* \"#utility.yul\":371:378   */\n  0x00\n    /* \"#utility.yul\":411:453   */\n  0xffffffffffffffffffffffffffffffffffffffff\n    /* \"#utility.yul\":404:409   */\n  dup3\n    /* \"#utility.yul\":400:454   */\n  and\n    /* \"#utility.yul\":389:454   */\n  swap1\n  pop\n    /* \"#utility.yul\":334:460   */\n  swap2\n  swap1\n  pop\n  jump\t// out\n    /* \"#utility.yul\":466:562   */\ntag_24:\n    /* \"#utility.yul\":503:510   */\n  0x00\n    /* \"#utility.yul\":532:556   */\n  tag_38\n    /* \"#utility.yul\":550:555   */\n  dup3\n    /* \"#utility.yul\":532:556   */\n  tag_23\n  jump\t// in\ntag_38:\n    /* \"#utility.yul\":521:556   */\n  swap1\n  pop\n    /* \"#utility.yul\":466:562   */\n  swap2\n  swap1\n  pop\n  jump\t// out\n    /* \"#utility.yul\":568:690   */\ntag_25:\n    /* \"#utility.yul\":641:665   */\n  tag_40\n    /* \"#utility.yul\":659:664   */\n  dup2\n    /* \"#utility.yul\":641:665   */\n  tag_24\n  jump\t// in\ntag_40:\n    /* \"#utility.yul\":634:639   */\n  dup2\n    /* \"#utility.yul\":631:666   */\n  eq\n    /* \"#utility.yul\":621:684   */\n  tag_41\n  jumpi\n    /* \"#utility.yul\":680:681   */\n  0x00\n    /* \"#utility.yul\":677:678   */\n  dup1\n    /* \"#utility.yul\":670:682   */\n  revert\n    /* \"#utility.yul\":621:684   */\ntag_41:\n    /* \"#utility.yul\":568:690   */\n  pop\n  jump\t// out\n    /* \"#utility.yul\":696:839   */\ntag_26:\n    /* \"#utility.yul\":753:758   */\n  0x00\n    /* \"#utility.yul\":784:790   */\n  dup2\n    /* \"#utility.yul\":778:791   */\n  mload\n    /* \"#utility.yul\":769:791   */\n  swap1\n  pop\n    /* \"#utility.yul\":800:833   */\n  tag_43\n    /* \"#utility.yul\":827:832   */\n  dup2\n    /* \"#utility.yul\":800:833   */\n  tag_25\n  jump\t// in\ntag_43:\n    /* \"#utility.yul\":696:839   */\n  swap3\n  swap2\n  pop\n  pop\n  jump\t// out\n    /* \"#utility.yul\":845:1196   */\ntag_3:\n    /* \"#utility.yul\":915:921   */\n  0x00\n    /* \"#utility.yul\":964:966   */\n  0x20\n    /* \"#utility.yul\":952:961   */\n  dup3\n    /* \"#utility.yul\":943:950   */\n  dup5\n    /* \"#utility.yul\":939:962   */\n  sub\n    /* \"#utility.yul\":935:967   */\n  slt\n    /* \"#utility.yul\":932:1051   */\n  iszero\n  tag_45\n  jumpi\n    /* \"#utility.yul\":970:1049   */\n  tag_46\n  tag_21\n  jump\t// in\ntag_46:\n    /* \"#utility.yul\":932:1051   */\ntag_45:\n    /* \"#utility.yul\":1090:1091   */\n  0x00\n    /* \"#utility.yul\":1115:1179   */\n  tag_47\n    /* \"#utility.yul\":1171:1178   */\n  dup5\n    /* \"#utility.yul\":1162:1168   */\n  dup3\n    /* \"#utility.yul\":1151:1160   */\n  dup6\n    /* \"#utility.yul\":1147:1169   */\n  add\n    /* \"#utility.yul\":1115:1179   */\n  tag_26\n  jump\t// in\ntag_47:\n    /* \"#utility.yul\":1105:1179   */\n  swap2\n  pop\n    /* \"#utility.yul\":1061:1189   */\n  pop\n    /* \"#utility.yul\":845:1196   */\n  swap3\n  swap2\n  pop\n  pop\n  jump\t// out\n    /* \"#utility.yul\":1202:1279   */\ntag_27:\n    /* \"#utility.yul\":1239:1246   */\n  0x00\n    /* \"#utility.yul\":1268:1273   */\n  dup2\n    /* \"#utility.yul\":1257:1273   */\n  swap1\n  pop\n    /* \"#utility.yul\":1202:1279   */\n  swap2\n  swap1\n  pop\n  jump\t// out\n    /* \"#utility.yul\":1285:1403   */\ntag_28:\n    /* \"#utility.yul\":1372:1396   */\n  tag_50\n    /* \"#utility.yul\":1390:1395   */\n  dup2\n    /* \"#utility.yul\":1372:1396   */\n  tag_27\n  jump\t// in\ntag_50:\n    /* \"#utility.yul\":1367:1370   */\n  dup3\n    /* \"#utility.yul\":1360:1397   */\n  mstore\n    /* \"#utility.yul\":1285:1403   */\n  pop\n  pop\n  jump\t// out\n    /* \"#utility.yul\":1409:1486   */\ntag_29:\n    /* \"#utility.yul\":1446:1453   */\n  0x00\n    /* \"#utility.yul\":1475:1480   */\n  dup2\n    /* \"#utility.yul\":1464:1480   */\n  swap1\n  pop\n    /* \"#utility.yul\":1409:1486   */\n  swap2\n  swap1\n  pop\n  jump\t// out\n    /* \"#utility.yul\":1492:1610   */\ntag_30:\n    /* \"#utility.yul\":1579:1603   */\n  tag_53\n    /* \"#utility.yul\":1597:1602   */\n  dup2\n    /* \"#utility.yul\":1579:1603   */\n  tag_29\n  jump\t// in\ntag_53:\n    /* \"#utility.yul\":1574:1577   */\n  dup3\n    /* \"#utility.yul\":1567:1604   */\n  mstore\n    /* \"#utility.yul\":1492:1610   */\n  pop\n  pop\n  jump\t// out\n    /* \"#utility.yul\":1616:1734   */\ntag_31:\n    /* \"#utility.yul\":1703:1727   */\n  tag_55\n    /* \"#utility.yul\":1721:1726   */\n  dup2\n    /* \"#utility.yul\":1703:1727   */\n  tag_24\n  jump\t// in\ntag_55:\n    /* \"#utility.yul\":1698:1701   */\n  dup3\n    /* \"#utility.yul\":1691:1728   */\n  mstore\n    /* \"#utility.yul\":1616:1734   */\n  pop\n  pop\n  jump\t// out\n    /* \"#utility.yul\":1740:2293   */\ntag_15:\n    /* \"#utility.yul\":1917:1921   */\n  0x00\n    /* \"#utility.yul\":1955:1958   */\n  0x80\n    /* \"#utility.yul\":1944:1953   */\n  dup3\n    /* \"#utility.yul\":1940:1959   */\n  add\n    /* \"#utility.yul\":1932:1959   */\n  swap1\n  pop\n    /* \"#utility.yul\":1969:2040   */\n  tag_57\n    /* \"#utility.yul\":2037:2038   */\n  0x00\n    /* \"#utility.yul\":2026:2035   */\n  dup4\n    /* \"#utility.yul\":2022:2039   */\n  add\n    /* \"#utility.yul\":2013:2019   */\n  dup8\n    /* \"#utility.yul\":1969:2040   */\n  tag_28\n  jump\t// in\ntag_57:\n    /* \"#utility.yul\":2050:2122   */\n  tag_58\n    /* \"#utility.yul\":2118:2120   */\n  0x20\n    /* \"#utility.yul\":2107:2116   */\n  dup4\n    /* \"#utility.yul\":2103:2121   */\n  add\n    /* \"#utility.yul\":2094:2100   */\n  dup7\n    /* \"#utility.yul\":2050:2122   */\n  tag_28\n  jump\t// in\ntag_58:\n    /* \"#utility.yul\":2132:2204   */\n  tag_59\n    /* \"#utility.yul\":2200:2202   */\n  0x40\n    /* \"#utility.yul\":2189:2198   */\n  dup4\n    /* \"#utility.yul\":2185:2203   */\n  add\n    /* \"#utility.yul\":2176:2182   */\n  dup6\n    /* \"#utility.yul\":2132:2204   */\n  tag_30\n  jump\t// in\ntag_59:\n    /* \"#utility.yul\":2214:2286   */\n  tag_60\n    /* \"#utility.yul\":2282:2284   */\n  0x60\n    /* \"#utility.yul\":2271:2280   */\n  dup4\n    /* \"#utility.yul\":2267:2285   */\n  add\n    /* \"#utility.yul\":2258:2264   */\n  dup5\n    /* \"#utility.yul\":2214:2286   */\n  tag_31\n  jump\t// in\ntag_60:\n    /* \"#utility.yul\":1740:2293   */\n  swap6\n  swap5\n  pop\n  pop\n  pop\n  pop\n  pop\n  jump\t// out\n    /* \"contracts/TokenMarket.sol\":204:2898  contract TokenMarket is ITokenMarket, Ownable {... */\ntag_16:\n  dataSize(sub_0)\n  dup1\n  dataOffset(sub_0)\n  0x00\n  codecopy\n  0x00\n  return\nstop\n\nsub_0: assembly {\n        /* \"contracts/TokenMarket.sol\":204:2898  contract TokenMarket is ITokenMarket, Ownable {... */\n      mstore(0x40, 0x80)\n      jumpi(tag_1, lt(calldatasize, 0x04))\n      shr(0xe0, calldataload(0x00))\n      dup1\n      0x9bd0e9e9\n      gt\n      tag_14\n      jumpi\n      dup1\n      0x9bd0e9e9\n      eq\n      tag_8\n      jumpi\n      dup1\n      0xc0993eea\n      eq\n      tag_9\n      jumpi\n      dup1\n      0xde74e57b\n      eq\n      tag_10\n      jumpi\n      dup1\n      0xe9f76b11\n      eq\n      tag_11\n      jumpi\n      dup1\n      0xf2fde38b\n      eq\n      tag_12\n      jumpi\n      dup1\n      0xfc0c546a\n      eq\n      tag_13\n      jumpi\n      jump(tag_1)\n    tag_14:\n      dup1\n      0x5d76a9b7\n      eq\n      tag_2\n      jumpi\n      dup1\n      0x6c2c9c7d\n      eq\n      tag_3\n      jumpi\n      dup1\n      0x715018a6\n      eq\n      tag_4\n      jumpi\n      dup1\n      0x7f6d6df9\n      eq\n      tag_5\n      jumpi\n      dup1\n      0x8885d395\n      eq\n      tag_6\n      jumpi\n      dup1\n      0x8da5cb5b\n      eq\n      tag_7\n      jumpi\n    tag_1:\n      0x00\n      dup1\n      revert\n        /* \"contracts/TokenMarket.sol\":2791:2895  function makeOffer(MakeOfferRequest memory request) external payable override {... */\n    tag_2:\n      tag_15\n      0x04\n      dup1\n      calldatasize\n      sub\n      dup2\n      add\n      swap1\n      tag_16\n      swap2\n      swap1\n      tag_17\n      jump\t// in\n    tag_16:\n      tag_18\n      jump\t// in\n    tag_15:\n      stop\n        /* \"contracts/TokenMarket.sol\":339:368  uint256 public listingCounter */\n    tag_3:\n      callvalue\n      dup1\n      iszero\n      tag_19\n      jumpi\n      0x00\n      dup1\n      revert\n    tag_19:\n      pop\n      tag_20\n      tag_21\n      jump\t// in\n    tag_20:\n      mload(0x40)\n      tag_22\n      swap2\n      swap1\n      tag_23\n      jump\t// in\n    tag_22:\n      mload(0x40)\n      dup1\n      swap2\n      sub\n      swap1\n      return\n        /* \"@openzeppelin/contracts/access/Ownable.sol\":1824:1925  function renounceOwnership() public virtual onlyOwner {... */\n    tag_4:\n      callvalue\n      dup1\n      iszero\n      tag_24\n      jumpi\n      0x00\n      dup1\n      revert\n    tag_24:\n      pop\n      tag_25\n      tag_26\n      jump\t// in\n    tag_25:\n      stop\n        /* \"contracts/TokenMarket.sol\":2272:2595  function listing(uint256 _price, uint256 _amount) external {... */\n    tag_5:\n      callvalue\n      dup1\n      iszero\n      tag_27\n      jumpi\n      0x00\n      dup1\n      revert\n    tag_27:\n      pop\n      tag_28\n      0x04\n      dup1\n      calldatasize\n      sub\n      dup2\n      add\n      swap1\n      tag_29\n      swap2\n      swap1\n      tag_30\n      jump\t// in\n    tag_29:\n      tag_31\n      jump\t// in\n    tag_28:\n      stop\n        /* \"contracts/TokenMarket.sol\":2638:2742  function buy(ListRequest memory request, uint256 buyAmount) external payable override {... */\n    tag_6:\n      tag_32\n      0x04\n      dup1\n      calldatasize\n      sub\n      dup2\n      add\n      swap1\n      tag_33\n      swap2\n      swap1\n      tag_34\n      jump\t// in\n    tag_33:\n      tag_35\n      jump\t// in\n    tag_32:\n      stop\n        /* \"@openzeppelin/contracts/access/Ownable.sol\":1201:1286  function owner() public view virtual returns (address) {... */\n    tag_7:\n      callvalue\n      dup1\n      iszero\n      tag_36\n      jumpi\n      0x00\n      dup1\n      revert\n    tag_36:\n      pop\n      tag_37\n      tag_38\n      jump\t// in\n    tag_37:\n      mload(0x40)\n      tag_39\n      swap2\n      swap1\n      tag_40\n      jump\t// in\n    tag_39:\n      mload(0x40)\n      dup1\n      swap2\n      sub\n      swap1\n      return\n        /* \"contracts/TokenMarket.sol\":1719:2040  function _splitSignature(bytes memory sig) public pure returns (bytes32 r, bytes32 s, uint8 v) {... */\n    tag_8:\n      callvalue\n      dup1\n      iszero\n      tag_41\n      jumpi\n      0x00\n      dup1\n      revert\n    tag_41:\n      pop\n      tag_42\n      0x04\n      dup1\n      calldatasize\n      sub\n      dup2\n      add\n      swap1\n      tag_43\n      swap2\n      swap1\n      tag_44\n      jump\t// in\n    tag_43:\n      tag_45\n      jump\t// in\n    tag_42:\n      mload(0x40)\n      tag_46\n      swap4\n      swap3\n      swap2\n      swap1\n      tag_47\n      jump\t// in\n    tag_46:\n      mload(0x40)\n      dup1\n      swap2\n      sub\n      swap1\n      return\n        /* \"contracts/TokenMarket.sol\":377:509  bytes32 public constant DOMAIN_TYPE_HASH =... */\n    tag_9:\n      callvalue\n      dup1\n      iszero\n      tag_48\n      jumpi\n      0x00\n      dup1\n      revert\n    tag_48:\n      pop\n      tag_49\n      tag_50\n      jump\t// in\n    tag_49:\n      mload(0x40)\n      tag_51\n      swap2\n      swap1\n      tag_52\n      jump\t// in\n    tag_51:\n      mload(0x40)\n      dup1\n      swap2\n      sub\n      swap1\n      return\n        /* \"contracts/TokenMarket.sol\":285:332  mapping(uint256 => ListRequest) public listings */\n    tag_10:\n      callvalue\n      dup1\n      iszero\n      tag_53\n      jumpi\n      0x00\n      dup1\n      revert\n    tag_53:\n      pop\n      tag_54\n      0x04\n      dup1\n      calldatasize\n      sub\n      dup2\n      add\n      swap1\n      tag_55\n      swap2\n      swap1\n      tag_56\n      jump\t// in\n    tag_55:\n      tag_57\n      jump\t// in\n    tag_54:\n      mload(0x40)\n      tag_58\n      swap7\n      swap6\n      swap5\n      swap4\n      swap3\n      swap2\n      swap1\n      tag_59\n      jump\t// in\n    tag_58:\n      mload(0x40)\n      dup1\n      swap2\n      sub\n      swap1\n      return\n        /* \"contracts/TokenMarket.sol\":518:693  bytes32 public constant LIST_TYPE_HASH = keccak256(... */\n    tag_11:\n      callvalue\n      dup1\n      iszero\n      tag_60\n      jumpi\n      0x00\n      dup1\n      revert\n    tag_60:\n      pop\n      tag_61\n      tag_62\n      jump\t// in\n    tag_61:\n      mload(0x40)\n      tag_63\n      swap2\n      swap1\n      tag_52\n      jump\t// in\n    tag_63:\n      mload(0x40)\n      dup1\n      swap2\n      sub\n      swap1\n      return\n        /* \"@openzeppelin/contracts/access/Ownable.sol\":2074:2272  function transferOwnership(address newOwner) public virtual onlyOwner {... */\n    tag_12:\n      callvalue\n      dup1\n      iszero\n      tag_64\n      jumpi\n      0x00\n      dup1\n      revert\n    tag_64:\n      pop\n      tag_65\n      0x04\n      dup1\n      calldatasize\n      sub\n      dup2\n      add\n      swap1\n      tag_66\n      swap2\n      swap1\n      tag_67\n      jump\t// in\n    tag_66:\n      tag_68\n      jump\t// in\n    tag_65:\n      stop\n        /* \"contracts/TokenMarket.sol\":257:276  IERC20 public token */\n    tag_13:\n      callvalue\n      dup1\n      iszero\n      tag_69\n      jumpi\n      0x00\n      dup1\n      revert\n    tag_69:\n      pop\n      tag_70\n      tag_71\n      jump\t// in\n    tag_70:\n      mload(0x40)\n      tag_72\n      swap2\n      swap1\n      tag_73\n      jump\t// in\n    tag_72:\n      mload(0x40)\n      dup1\n      swap2\n      sub\n      swap1\n      return\n        /* \"contracts/TokenMarket.sol\":2791:2895  function makeOffer(MakeOfferRequest memory request) external payable override {... */\n    tag_18:\n      pop\n      jump\t// out\n        /* \"contracts/TokenMarket.sol\":339:368  uint256 public listingCounter */\n    tag_21:\n      sload(0x03)\n      dup2\n      jump\t// out\n        /* \"@openzeppelin/contracts/access/Ownable.sol\":1824:1925  function renounceOwnership() public virtual onlyOwner {... */\n    tag_26:\n        /* \"@openzeppelin/contracts/access/Ownable.sol\":1094:1107  _checkOwner() */\n      tag_76\n        /* \"@openzeppelin/contracts/access/Ownable.sol\":1094:1105  _checkOwner */\n      tag_77\n        /* \"@openzeppelin/contracts/access/Ownable.sol\":1094:1107  _checkOwner() */\n      jump\t// in\n    tag_76:\n        /* \"@openzeppelin/contracts/access/Ownable.sol\":1888:1918  _transferOwnership(address(0)) */\n      tag_79\n        /* \"@openzeppelin/contracts/access/Ownable.sol\":1915:1916  0 */\n      0x00\n        /* \"@openzeppelin/contracts/access/Ownable.sol\":1888:1906  _transferOwnership */\n      tag_80\n        /* \"@openzeppelin/contracts/access/Ownable.sol\":1888:1918  _transferOwnership(address(0)) */\n      jump\t// in\n    tag_79:\n        /* \"@openzeppelin/contracts/access/Ownable.sol\":1824:1925  function renounceOwnership() public virtual onlyOwner {... */\n      jump\t// out\n        /* \"contracts/TokenMarket.sol\":2272:2595  function listing(uint256 _price, uint256 _amount) external {... */\n    tag_31:\n        /* \"contracts/TokenMarket.sol\":2360:2361  0 */\n      0x00\n        /* \"contracts/TokenMarket.sol\":2350:2356  _price */\n      dup3\n        /* \"contracts/TokenMarket.sol\":2350:2361  _price >  0 */\n      gt\n        /* \"contracts/TokenMarket.sol\":2342:2397  require(_price >  0, \"Price must be greater than zero\") */\n      tag_82\n      jumpi\n      mload(0x40)\n      0x08c379a000000000000000000000000000000000000000000000000000000000\n      dup2\n      mstore\n      0x04\n      add\n      tag_83\n      swap1\n      tag_84\n      jump\t// in\n    tag_83:\n      mload(0x40)\n      dup1\n      swap2\n      sub\n      swap1\n      revert\n    tag_82:\n        /* \"contracts/TokenMarket.sol\":2426:2427  0 */\n      0x00\n        /* \"contracts/TokenMarket.sol\":2416:2423  _amount */\n      dup2\n        /* \"contracts/TokenMarket.sol\":2416:2427  _amount > 0 */\n      gt\n        /* \"contracts/TokenMarket.sol\":2408:2467  require(_amount > 0 , \" Amount must be greater than zero\" ) */\n      tag_85\n      jumpi\n      mload(0x40)\n      0x08c379a000000000000000000000000000000000000000000000000000000000\n      dup2\n      mstore\n      0x04\n      add\n      tag_86\n      swap1\n      tag_87\n      jump\t// in\n    tag_86:\n      mload(0x40)\n      dup1\n      swap2\n      sub\n      swap1\n      revert\n    tag_85:\n        /* \"contracts/TokenMarket.sol\":2480:2485  token */\n      0x01\n      0x00\n      swap1\n      sload\n      swap1\n      0x0100\n      exp\n      swap1\n      div\n      0xffffffffffffffffffffffffffffffffffffffff\n      and\n        /* \"contracts/TokenMarket.sol\":2480:2498  token.transferFrom */\n      0xffffffffffffffffffffffffffffffffffffffff\n      and\n      0x23b872dd\n        /* \"contracts/TokenMarket.sol\":2499:2509  msg.sender */\n      caller\n        /* \"contracts/TokenMarket.sol\":2519:2523  this */\n      address\n        /* \"contracts/TokenMarket.sol\":2526:2533  _amount */\n      dup5\n        /* \"contracts/TokenMarket.sol\":2480:2534  token.transferFrom(msg.sender, address(this), _amount) */\n      mload(0x40)\n      dup5\n      0xffffffff\n      and\n      0xe0\n      shl\n      dup2\n      mstore\n      0x04\n      add\n      tag_88\n      swap4\n      swap3\n      swap2\n      swap1\n      tag_89\n      jump\t// in\n    tag_88:\n      0x20\n      mload(0x40)\n      dup1\n      dup4\n      sub\n      dup2\n      0x00\n      dup8\n      gas\n      call\n      iszero\n      dup1\n      iszero\n      tag_91\n      jumpi\n      returndatasize\n      0x00\n      dup1\n      returndatacopy\n      revert(0x00, returndatasize)\n    tag_91:\n      pop\n      pop\n      pop\n      pop\n      mload(0x40)\n      returndatasize\n      not(0x1f)\n      0x1f\n      dup3\n      add\n      and\n      dup3\n      add\n      dup1\n      0x40\n      mstore\n      pop\n      dup2\n      add\n      swap1\n      tag_92\n      swap2\n      swap1\n      tag_93\n      jump\t// in\n    tag_92:\n      pop\n        /* \"contracts/TokenMarket.sol\":2272:2595  function listing(uint256 _price, uint256 _amount) external {... */\n      pop\n      pop\n      jump\t// out\n        /* \"contracts/TokenMarket.sol\":2638:2742  function buy(ListRequest memory request, uint256 buyAmount) external payable override {... */\n    tag_35:\n      pop\n      pop\n      jump\t// out\n        /* \"@openzeppelin/contracts/access/Ownable.sol\":1201:1286  function owner() public view virtual returns (address) {... */\n    tag_38:\n        /* \"@openzeppelin/contracts/access/Ownable.sol\":1247:1254  address */\n      0x00\n        /* \"@openzeppelin/contracts/access/Ownable.sol\":1273:1279  _owner */\n      dup1\n      0x00\n      swap1\n      sload\n      swap1\n      0x0100\n      exp\n      swap1\n      div\n      0xffffffffffffffffffffffffffffffffffffffff\n      and\n        /* \"@openzeppelin/contracts/access/Ownable.sol\":1266:1279  return _owner */\n      swap1\n      pop\n        /* \"@openzeppelin/contracts/access/Ownable.sol\":1201:1286  function owner() public view virtual returns (address) {... */\n      swap1\n      jump\t// out\n        /* \"contracts/TokenMarket.sol\":1719:2040  function _splitSignature(bytes memory sig) public pure returns (bytes32 r, bytes32 s, uint8 v) {... */\n    tag_45:\n        /* \"contracts/TokenMarket.sol\":1783:1792  bytes32 r */\n      0x00\n        /* \"contracts/TokenMarket.sol\":1794:1803  bytes32 s */\n      dup1\n        /* \"contracts/TokenMarket.sol\":1805:1812  uint8 v */\n      0x00\n        /* \"contracts/TokenMarket.sol\":1847:1849  65 */\n      0x41\n        /* \"contracts/TokenMarket.sol\":1833:1836  sig */\n      dup5\n        /* \"contracts/TokenMarket.sol\":1833:1843  sig.length */\n      mload\n        /* \"contracts/TokenMarket.sol\":1833:1849  sig.length == 65 */\n      eq\n        /* \"contracts/TokenMarket.sol\":1825:1878  require(sig.length == 65, \"invalid signature length\") */\n      tag_97\n      jumpi\n      mload(0x40)\n      0x08c379a000000000000000000000000000000000000000000000000000000000\n      dup2\n      mstore\n      0x04\n      add\n      tag_98\n      swap1\n      tag_99\n      jump\t// in\n    tag_98:\n      mload(0x40)\n      dup1\n      swap2\n      sub\n      swap1\n      revert\n    tag_97:\n        /* \"contracts/TokenMarket.sol\":1933:1935  32 */\n      0x20\n        /* \"contracts/TokenMarket.sol\":1928:1931  sig */\n      dup5\n        /* \"contracts/TokenMarket.sol\":1924:1936  add(sig, 32) */\n      add\n        /* \"contracts/TokenMarket.sol\":1918:1937  mload(add(sig, 32)) */\n      mload\n        /* \"contracts/TokenMarket.sol\":1913:1937  r := mload(add(sig, 32)) */\n      swap3\n      pop\n        /* \"contracts/TokenMarket.sol\":1971:1973  64 */\n      0x40\n        /* \"contracts/TokenMarket.sol\":1966:1969  sig */\n      dup5\n        /* \"contracts/TokenMarket.sol\":1962:1974  add(sig, 64) */\n      add\n        /* \"contracts/TokenMarket.sol\":1956:1975  mload(add(sig, 64)) */\n      mload\n        /* \"contracts/TokenMarket.sol\":1951:1975  s := mload(add(sig, 64)) */\n      swap2\n      pop\n        /* \"contracts/TokenMarket.sol\":2017:2019  96 */\n      0x60\n        /* \"contracts/TokenMarket.sol\":2012:2015  sig */\n      dup5\n        /* \"contracts/TokenMarket.sol\":2008:2020  add(sig, 96) */\n      add\n        /* \"contracts/TokenMarket.sol\":2002:2021  mload(add(sig, 96)) */\n      mload\n        /* \"contracts/TokenMarket.sol\":1999:2000  0 */\n      0x00\n        /* \"contracts/TokenMarket.sol\":1994:2022  byte(0, mload(add(sig, 96))) */\n      byte\n        /* \"contracts/TokenMarket.sol\":1989:2022  v := byte(0, mload(add(sig, 96))) */\n      swap1\n      pop\n        /* \"contracts/TokenMarket.sol\":1719:2040  function _splitSignature(bytes memory sig) public pure returns (bytes32 r, bytes32 s, uint8 v) {... */\n      swap2\n      swap4\n      swap1\n      swap3\n      pop\n      jump\t// out\n        /* \"contracts/TokenMarket.sol\":377:509  bytes32 public constant DOMAIN_TYPE_HASH =... */\n    tag_50:\n        /* \"contracts/TokenMarket.sol\":429:509  keccak256(\"EIP712Domain(string name,uint256 chainId,address verifyingContract)\") */\n      0x8cad95687ba82c2ce50e74f7b754645e5117c3a5bec8151c0726d5857980a866\n        /* \"contracts/TokenMarket.sol\":377:509  bytes32 public constant DOMAIN_TYPE_HASH =... */\n      dup2\n      jump\t// out\n        /* \"contracts/TokenMarket.sol\":285:332  mapping(uint256 => ListRequest) public listings */\n    tag_57:\n      mstore(0x20, 0x02)\n      dup1\n      0x00\n      mstore\n      keccak256(0x00, 0x40)\n      0x00\n      swap2\n      pop\n      swap1\n      pop\n      dup1\n      0x00\n      add\n      sload\n      swap1\n      dup1\n      0x01\n      add\n      sload\n      swap1\n      dup1\n      0x02\n      add\n      0x00\n      swap1\n      sload\n      swap1\n      0x0100\n      exp\n      swap1\n      div\n      0xffffffffffffffffffffffffffffffffffffffff\n      and\n      swap1\n      dup1\n      0x03\n      add\n      0x00\n      swap1\n      sload\n      swap1\n      0x0100\n      exp\n      swap1\n      div\n      0xffffffffffffffffffffffffffffffffffffffff\n      and\n      swap1\n      dup1\n      0x04\n      add\n      sload\n      swap1\n      dup1\n      0x05\n      add\n      dup1\n      sload\n      tag_100\n      swap1\n      tag_101\n      jump\t// in\n    tag_100:\n      dup1\n      0x1f\n      add\n      0x20\n      dup1\n      swap2\n      div\n      mul\n      0x20\n      add\n      mload(0x40)\n      swap1\n      dup2\n      add\n      0x40\n      mstore\n      dup1\n      swap3\n      swap2\n      swap1\n      dup2\n      dup2\n      mstore\n      0x20\n      add\n      dup3\n      dup1\n      sload\n      tag_102\n      swap1\n      tag_101\n      jump\t// in\n    tag_102:\n      dup1\n      iszero\n      tag_103\n      jumpi\n      dup1\n      0x1f\n      lt\n      tag_104\n      jumpi\n      0x0100\n      dup1\n      dup4\n      sload\n      div\n      mul\n      dup4\n      mstore\n      swap2\n      0x20\n      add\n      swap2\n      jump(tag_103)\n    tag_104:\n      dup3\n      add\n      swap2\n      swap1\n      0x00\n      mstore\n      keccak256(0x00, 0x20)\n      swap1\n    tag_105:\n      dup2\n      sload\n      dup2\n      mstore\n      swap1\n      0x01\n      add\n      swap1\n      0x20\n      add\n      dup1\n      dup4\n      gt\n      tag_105\n      jumpi\n      dup3\n      swap1\n      sub\n      0x1f\n      and\n      dup3\n      add\n      swap2\n    tag_103:\n      pop\n      pop\n      pop\n      pop\n      pop\n      swap1\n      pop\n      dup7\n      jump\t// out\n        /* \"contracts/TokenMarket.sol\":518:693  bytes32 public constant LIST_TYPE_HASH = keccak256(... */\n    tag_62:\n        /* \"contracts/TokenMarket.sol\":559:693  keccak256(... */\n      0x6bdd9be91e63e6b04e968850336c5bb0da40d05ed377a7db5c1db94861bc0f92\n        /* \"contracts/TokenMarket.sol\":518:693  bytes32 public constant LIST_TYPE_HASH = keccak256(... */\n      dup2\n      jump\t// out\n        /* \"@openzeppelin/contracts/access/Ownable.sol\":2074:2272  function transferOwnership(address newOwner) public virtual onlyOwner {... */\n    tag_68:\n        /* \"@openzeppelin/contracts/access/Ownable.sol\":1094:1107  _checkOwner() */\n      tag_107\n        /* \"@openzeppelin/contracts/access/Ownable.sol\":1094:1105  _checkOwner */\n      tag_77\n        /* \"@openzeppelin/contracts/access/Ownable.sol\":1094:1107  _checkOwner() */\n      jump\t// in\n    tag_107:\n        /* \"@openzeppelin/contracts/access/Ownable.sol\":2182:2183  0 */\n      0x00\n        /* \"@openzeppelin/contracts/access/Ownable.sol\":2162:2184  newOwner != address(0) */\n      0xffffffffffffffffffffffffffffffffffffffff\n      and\n        /* \"@openzeppelin/contracts/access/Ownable.sol\":2162:2170  newOwner */\n      dup2\n        /* \"@openzeppelin/contracts/access/Ownable.sol\":2162:2184  newOwner != address(0) */\n      0xffffffffffffffffffffffffffffffffffffffff\n      and\n      sub\n        /* \"@openzeppelin/contracts/access/Ownable.sol\":2154:2227  require(newOwner != address(0), \"Ownable: new owner is the zero address\") */\n      tag_109\n      jumpi\n      mload(0x40)\n      0x08c379a000000000000000000000000000000000000000000000000000000000\n      dup2\n      mstore\n      0x04\n      add\n      tag_110\n      swap1\n      tag_111\n      jump\t// in\n    tag_110:\n      mload(0x40)\n      dup1\n      swap2\n      sub\n      swap1\n      revert\n    tag_109:\n        /* \"@openzeppelin/contracts/access/Ownable.sol\":2237:2265  _transferOwnership(newOwner) */\n      tag_112\n        /* \"@openzeppelin/contracts/access/Ownable.sol\":2256:2264  newOwner */\n      dup2\n        /* \"@openzeppelin/contracts/access/Ownable.sol\":2237:2255  _transferOwnership */\n      tag_80\n        /* \"@openzeppelin/contracts/access/Ownable.sol\":2237:2265  _transferOwnership(newOwner) */\n      jump\t// in\n    tag_112:\n        /* \"@openzeppelin/contracts/access/Ownable.sol\":2074:2272  function transferOwnership(address newOwner) public virtual onlyOwner {... */\n      pop\n      jump\t// out\n        /* \"contracts/TokenMarket.sol\":257:276  IERC20 public token */\n    tag_71:\n      0x01\n      0x00\n      swap1\n      sload\n      swap1\n      0x0100\n      exp\n      swap1\n      div\n      0xffffffffffffffffffffffffffffffffffffffff\n      and\n      dup2\n      jump\t// out\n        /* \"@openzeppelin/contracts/access/Ownable.sol\":1359:1489  function _checkOwner() internal view virtual {... */\n    tag_77:\n        /* \"@openzeppelin/contracts/access/Ownable.sol\":1433:1445  _msgSender() */\n      tag_114\n        /* \"@openzeppelin/contracts/access/Ownable.sol\":1433:1443  _msgSender */\n      tag_115\n        /* \"@openzeppelin/contracts/access/Ownable.sol\":1433:1445  _msgSender() */\n      jump\t// in\n    tag_114:\n        /* \"@openzeppelin/contracts/access/Ownable.sol\":1422:1445  owner() == _msgSender() */\n      0xffffffffffffffffffffffffffffffffffffffff\n      and\n        /* \"@openzeppelin/contracts/access/Ownable.sol\":1422:1429  owner() */\n      tag_116\n        /* \"@openzeppelin/contracts/access/Ownable.sol\":1422:1427  owner */\n      tag_38\n        /* \"@openzeppelin/contracts/access/Ownable.sol\":1422:1429  owner() */\n      jump\t// in\n    tag_116:\n        /* \"@openzeppelin/contracts/access/Ownable.sol\":1422:1445  owner() == _msgSender() */\n      0xffffffffffffffffffffffffffffffffffffffff\n      and\n      eq\n        /* \"@openzeppelin/contracts/access/Ownable.sol\":1414:1482  require(owner() == _msgSender(), \"Ownable: caller is not the owner\") */\n      tag_117\n      jumpi\n      mload(0x40)\n      0x08c379a000000000000000000000000000000000000000000000000000000000\n      dup2\n      mstore\n      0x04\n      add\n      tag_118\n      swap1\n      tag_119\n      jump\t// in\n    tag_118:\n      mload(0x40)\n      dup1\n      swap2\n      sub\n      swap1\n      revert\n    tag_117:\n        /* \"@openzeppelin/contracts/access/Ownable.sol\":1359:1489  function _checkOwner() internal view virtual {... */\n      jump\t// out\n        /* \"@openzeppelin/contracts/access/Ownable.sol\":2426:2613  function _transferOwnership(address newOwner) internal virtual {... */\n    tag_80:\n        /* \"@openzeppelin/contracts/access/Ownable.sol\":2499:2515  address oldOwner */\n      0x00\n        /* \"@openzeppelin/contracts/access/Ownable.sol\":2518:2524  _owner */\n      dup1\n      0x00\n      swap1\n      sload\n      swap1\n      0x0100\n      exp\n      swap1\n      div\n      0xffffffffffffffffffffffffffffffffffffffff\n      and\n        /* \"@openzeppelin/contracts/access/Ownable.sol\":2499:2524  address oldOwner = _owner */\n      swap1\n      pop\n        /* \"@openzeppelin/contracts/access/Ownable.sol\":2543:2551  newOwner */\n      dup2\n        /* \"@openzeppelin/contracts/access/Ownable.sol\":2534:2540  _owner */\n      0x00\n      dup1\n        /* \"@openzeppelin/contracts/access/Ownable.sol\":2534:2551  _owner = newOwner */\n      0x0100\n      exp\n      dup2\n      sload\n      dup2\n      0xffffffffffffffffffffffffffffffffffffffff\n      mul\n      not\n      and\n      swap1\n      dup4\n      0xffffffffffffffffffffffffffffffffffffffff\n      and\n      mul\n      or\n      swap1\n      sstore\n      pop\n        /* \"@openzeppelin/contracts/access/Ownable.sol\":2597:2605  newOwner */\n      dup2\n        /* \"@openzeppelin/contracts/access/Ownable.sol\":2566:2606  OwnershipTransferred(oldOwner, newOwner) */\n      0xffffffffffffffffffffffffffffffffffffffff\n      and\n        /* \"@openzeppelin/contracts/access/Ownable.sol\":2587:2595  oldOwner */\n      dup2\n        /* \"@openzeppelin/contracts/access/Ownable.sol\":2566:2606  OwnershipTransferred(oldOwner, newOwner) */\n      0xffffffffffffffffffffffffffffffffffffffff\n      and\n      0x8be0079c531659141344cd1fd0a4f28419497f9722a3daafe3b4186f6b6457e0\n      mload(0x40)\n      mload(0x40)\n      dup1\n      swap2\n      sub\n      swap1\n      log3\n        /* \"@openzeppelin/contracts/access/Ownable.sol\":2489:2613  {... */\n      pop\n        /* \"@openzeppelin/contracts/access/Ownable.sol\":2426:2613  function _transferOwnership(address newOwner) internal virtual {... */\n      pop\n      jump\t// out\n        /* \"@openzeppelin/contracts/utils/Context.sol\":640:736  function _msgSender() internal view virtual returns (address) {... */\n    tag_115:\n        /* \"@openzeppelin/contracts/utils/Context.sol\":693:700  address */\n      0x00\n        /* \"@openzeppelin/contracts/utils/Context.sol\":719:729  msg.sender */\n      caller\n        /* \"@openzeppelin/contracts/utils/Context.sol\":712:729  return msg.sender */\n      swap1\n      pop\n        /* \"@openzeppelin/contracts/utils/Context.sol\":640:736  function _msgSender() internal view virtual returns (address) {... */\n      swap1\n      jump\t// out\n        /* \"#utility.yul\":7:82   */\n    tag_122:\n        /* \"#utility.yul\":40:46   */\n      0x00\n        /* \"#utility.yul\":73:75   */\n      0x40\n        /* \"#utility.yul\":67:76   */\n      mload\n        /* \"#utility.yul\":57:76   */\n      swap1\n      pop\n        /* \"#utility.yul\":7:82   */\n      swap1\n      jump\t// out\n        /* \"#utility.yul\":88:205   */\n    tag_123:\n        /* \"#utility.yul\":197:198   */\n      0x00\n        /* \"#utility.yul\":194:195   */\n      dup1\n        /* \"#utility.yul\":187:199   */\n      revert\n        /* \"#utility.yul\":211:328   */\n    tag_124:\n        /* \"#utility.yul\":320:321   */\n      0x00\n        /* \"#utility.yul\":317:318   */\n      dup1\n        /* \"#utility.yul\":310:322   */\n      revert\n        /* \"#utility.yul\":334:451   */\n    tag_125:\n        /* \"#utility.yul\":443:444   */\n      0x00\n        /* \"#utility.yul\":440:441   */\n      dup1\n        /* \"#utility.yul\":433:445   */\n      revert\n        /* \"#utility.yul\":457:559   */\n    tag_126:\n        /* \"#utility.yul\":498:504   */\n      0x00\n        /* \"#utility.yul\":549:551   */\n      0x1f\n        /* \"#utility.yul\":545:552   */\n      not\n        /* \"#utility.yul\":540:542   */\n      0x1f\n        /* \"#utility.yul\":533:538   */\n      dup4\n        /* \"#utility.yul\":529:543   */\n      add\n        /* \"#utility.yul\":525:553   */\n      and\n        /* \"#utility.yul\":515:553   */\n      swap1\n      pop\n        /* \"#utility.yul\":457:559   */\n      swap2\n      swap1\n      pop\n      jump\t// out\n        /* \"#utility.yul\":565:745   */\n    tag_127:\n        /* \"#utility.yul\":613:690   */\n      0x4e487b7100000000000000000000000000000000000000000000000000000000\n        /* \"#utility.yul\":610:611   */\n      0x00\n        /* \"#utility.yul\":603:691   */\n      mstore\n        /* \"#utility.yul\":710:714   */\n      0x41\n        /* \"#utility.yul\":707:708   */\n      0x04\n        /* \"#utility.yul\":700:715   */\n      mstore\n        /* \"#utility.yul\":734:738   */\n      0x24\n        /* \"#utility.yul\":731:732   */\n      0x00\n        /* \"#utility.yul\":724:739   */\n      revert\n        /* \"#utility.yul\":751:1032   */\n    tag_128:\n        /* \"#utility.yul\":834:861   */\n      tag_184\n        /* \"#utility.yul\":856:860   */\n      dup3\n        /* \"#utility.yul\":834:861   */\n      tag_126\n      jump\t// in\n    tag_184:\n        /* \"#utility.yul\":826:832   */\n      dup2\n        /* \"#utility.yul\":822:862   */\n      add\n        /* \"#utility.yul\":964:970   */\n      dup2\n        /* \"#utility.yul\":952:962   */\n      dup2\n        /* \"#utility.yul\":949:971   */\n      lt\n        /* \"#utility.yul\":928:946   */\n      0xffffffffffffffff\n        /* \"#utility.yul\":916:926   */\n      dup3\n        /* \"#utility.yul\":913:947   */\n      gt\n        /* \"#utility.yul\":910:972   */\n      or\n        /* \"#utility.yul\":907:995   */\n      iszero\n      tag_185\n      jumpi\n        /* \"#utility.yul\":975:993   */\n      tag_186\n      tag_127\n      jump\t// in\n    tag_186:\n        /* \"#utility.yul\":907:995   */\n    tag_185:\n        /* \"#utility.yul\":1015:1025   */\n      dup1\n        /* \"#utility.yul\":1011:1013   */\n      0x40\n        /* \"#utility.yul\":1004:1026   */\n      mstore\n        /* \"#utility.yul\":794:1032   */\n      pop\n        /* \"#utility.yul\":751:1032   */\n      pop\n      pop\n      jump\t// out\n        /* \"#utility.yul\":1038:1167   */\n    tag_129:\n        /* \"#utility.yul\":1072:1078   */\n      0x00\n        /* \"#utility.yul\":1099:1119   */\n      tag_188\n      tag_122\n      jump\t// in\n    tag_188:\n        /* \"#utility.yul\":1089:1119   */\n      swap1\n      pop\n        /* \"#utility.yul\":1128:1161   */\n      tag_189\n        /* \"#utility.yul\":1156:1160   */\n      dup3\n        /* \"#utility.yul\":1148:1154   */\n      dup3\n        /* \"#utility.yul\":1128:1161   */\n      tag_128\n      jump\t// in\n    tag_189:\n        /* \"#utility.yul\":1038:1167   */\n      swap2\n      swap1\n      pop\n      jump\t// out\n        /* \"#utility.yul\":1173:1290   */\n    tag_130:\n        /* \"#utility.yul\":1282:1283   */\n      0x00\n        /* \"#utility.yul\":1279:1280   */\n      dup1\n        /* \"#utility.yul\":1272:1284   */\n      revert\n        /* \"#utility.yul\":1296:1373   */\n    tag_131:\n        /* \"#utility.yul\":1333:1340   */\n      0x00\n        /* \"#utility.yul\":1362:1367   */\n      dup2\n        /* \"#utility.yul\":1351:1367   */\n      swap1\n      pop\n        /* \"#utility.yul\":1296:1373   */\n      swap2\n      swap1\n      pop\n      jump\t// out\n        /* \"#utility.yul\":1379:1501   */\n    tag_132:\n        /* \"#utility.yul\":1452:1476   */\n      tag_193\n        /* \"#utility.yul\":1470:1475   */\n      dup2\n        /* \"#utility.yul\":1452:1476   */\n      tag_131\n      jump\t// in\n    tag_193:\n        /* \"#utility.yul\":1445:1450   */\n      dup2\n        /* \"#utility.yul\":1442:1477   */\n      eq\n        /* \"#utility.yul\":1432:1495   */\n      tag_194\n      jumpi\n        /* \"#utility.yul\":1491:1492   */\n      0x00\n        /* \"#utility.yul\":1488:1489   */\n      dup1\n        /* \"#utility.yul\":1481:1493   */\n      revert\n        /* \"#utility.yul\":1432:1495   */\n    tag_194:\n        /* \"#utility.yul\":1379:1501   */\n      pop\n      jump\t// out\n        /* \"#utility.yul\":1507:1646   */\n    tag_133:\n        /* \"#utility.yul\":1553:1558   */\n      0x00\n        /* \"#utility.yul\":1591:1597   */\n      dup2\n        /* \"#utility.yul\":1578:1598   */\n      calldataload\n        /* \"#utility.yul\":1569:1598   */\n      swap1\n      pop\n        /* \"#utility.yul\":1607:1640   */\n      tag_196\n        /* \"#utility.yul\":1634:1639   */\n      dup2\n        /* \"#utility.yul\":1607:1640   */\n      tag_132\n      jump\t// in\n    tag_196:\n        /* \"#utility.yul\":1507:1646   */\n      swap3\n      swap2\n      pop\n      pop\n      jump\t// out\n        /* \"#utility.yul\":1652:1778   */\n    tag_134:\n        /* \"#utility.yul\":1689:1696   */\n      0x00\n        /* \"#utility.yul\":1729:1771   */\n      0xffffffffffffffffffffffffffffffffffffffff\n        /* \"#utility.yul\":1722:1727   */\n      dup3\n        /* \"#utility.yul\":1718:1772   */\n      and\n        /* \"#utility.yul\":1707:1772   */\n      swap1\n      pop\n        /* \"#utility.yul\":1652:1778   */\n      swap2\n      swap1\n      pop\n      jump\t// out\n        /* \"#utility.yul\":1784:1880   */\n    tag_135:\n        /* \"#utility.yul\":1821:1828   */\n      0x00\n        /* \"#utility.yul\":1850:1874   */\n      tag_199\n        /* \"#utility.yul\":1868:1873   */\n      dup3\n        /* \"#utility.yul\":1850:1874   */\n      tag_134\n      jump\t// in\n    tag_199:\n        /* \"#utility.yul\":1839:1874   */\n      swap1\n      pop\n        /* \"#utility.yul\":1784:1880   */\n      swap2\n      swap1\n      pop\n      jump\t// out\n        /* \"#utility.yul\":1886:2008   */\n    tag_136:\n        /* \"#utility.yul\":1959:1983   */\n      tag_201\n        /* \"#utility.yul\":1977:1982   */\n      dup2\n        /* \"#utility.yul\":1959:1983   */\n      tag_135\n      jump\t// in\n    tag_201:\n        /* \"#utility.yul\":1952:1957   */\n      dup2\n        /* \"#utility.yul\":1949:1984   */\n      eq\n        /* \"#utility.yul\":1939:2002   */\n      tag_202\n      jumpi\n        /* \"#utility.yul\":1998:1999   */\n      0x00\n        /* \"#utility.yul\":1995:1996   */\n      dup1\n        /* \"#utility.yul\":1988:2000   */\n      revert\n        /* \"#utility.yul\":1939:2002   */\n    tag_202:\n        /* \"#utility.yul\":1886:2008   */\n      pop\n      jump\t// out\n        /* \"#utility.yul\":2014:2153   */\n    tag_137:\n        /* \"#utility.yul\":2060:2065   */\n      0x00\n        /* \"#utility.yul\":2098:2104   */\n      dup2\n        /* \"#utility.yul\":2085:2105   */\n      calldataload\n        /* \"#utility.yul\":2076:2105   */\n      swap1\n      pop\n        /* \"#utility.yul\":2114:2147   */\n      tag_204\n        /* \"#utility.yul\":2141:2146   */\n      dup2\n        /* \"#utility.yul\":2114:2147   */\n      tag_136\n      jump\t// in\n    tag_204:\n        /* \"#utility.yul\":2014:2153   */\n      swap3\n      swap2\n      pop\n      pop\n      jump\t// out\n        /* \"#utility.yul\":2203:3121   */\n    tag_138:\n        /* \"#utility.yul\":2285:2290   */\n      0x00\n        /* \"#utility.yul\":2329:2333   */\n      0x80\n        /* \"#utility.yul\":2317:2326   */\n      dup3\n        /* \"#utility.yul\":2312:2315   */\n      dup5\n        /* \"#utility.yul\":2308:2327   */\n      sub\n        /* \"#utility.yul\":2304:2334   */\n      slt\n        /* \"#utility.yul\":2301:2418   */\n      iszero\n      tag_206\n      jumpi\n        /* \"#utility.yul\":2337:2416   */\n      tag_207\n      tag_125\n      jump\t// in\n    tag_207:\n        /* \"#utility.yul\":2301:2418   */\n    tag_206:\n        /* \"#utility.yul\":2436:2457   */\n      tag_208\n        /* \"#utility.yul\":2452:2456   */\n      0x80\n        /* \"#utility.yul\":2436:2457   */\n      tag_129\n      jump\t// in\n    tag_208:\n        /* \"#utility.yul\":2427:2457   */\n      swap1\n      pop\n        /* \"#utility.yul\":2518:2519   */\n      0x00\n        /* \"#utility.yul\":2558:2607   */\n      tag_209\n        /* \"#utility.yul\":2603:2606   */\n      dup5\n        /* \"#utility.yul\":2594:2600   */\n      dup3\n        /* \"#utility.yul\":2583:2592   */\n      dup6\n        /* \"#utility.yul\":2579:2601   */\n      add\n        /* \"#utility.yul\":2558:2607   */\n      tag_133\n      jump\t// in\n    tag_209:\n        /* \"#utility.yul\":2551:2555   */\n      0x00\n        /* \"#utility.yul\":2544:2549   */\n      dup4\n        /* \"#utility.yul\":2540:2556   */\n      add\n        /* \"#utility.yul\":2533:2608   */\n      mstore\n        /* \"#utility.yul\":2467:2619   */\n      pop\n        /* \"#utility.yul\":2681:2683   */\n      0x20\n        /* \"#utility.yul\":2722:2771   */\n      tag_210\n        /* \"#utility.yul\":2767:2770   */\n      dup5\n        /* \"#utility.yul\":2758:2764   */\n      dup3\n        /* \"#utility.yul\":2747:2756   */\n      dup6\n        /* \"#utility.yul\":2743:2765   */\n      add\n        /* \"#utility.yul\":2722:2771   */\n      tag_133\n      jump\t// in\n    tag_210:\n        /* \"#utility.yul\":2715:2719   */\n      0x20\n        /* \"#utility.yul\":2708:2713   */\n      dup4\n        /* \"#utility.yul\":2704:2720   */\n      add\n        /* \"#utility.yul\":2697:2772   */\n      mstore\n        /* \"#utility.yul\":2629:2783   */\n      pop\n        /* \"#utility.yul\":2847:2849   */\n      0x40\n        /* \"#utility.yul\":2888:2937   */\n      tag_211\n        /* \"#utility.yul\":2933:2936   */\n      dup5\n        /* \"#utility.yul\":2924:2930   */\n      dup3\n        /* \"#utility.yul\":2913:2922   */\n      dup6\n        /* \"#utility.yul\":2909:2931   */\n      add\n        /* \"#utility.yul\":2888:2937   */\n      tag_137\n      jump\t// in\n    tag_211:\n        /* \"#utility.yul\":2881:2885   */\n      0x40\n        /* \"#utility.yul\":2874:2879   */\n      dup4\n        /* \"#utility.yul\":2870:2886   */\n      add\n        /* \"#utility.yul\":2863:2938   */\n      mstore\n        /* \"#utility.yul\":2793:2949   */\n      pop\n        /* \"#utility.yul\":3012:3014   */\n      0x60\n        /* \"#utility.yul\":3053:3102   */\n      tag_212\n        /* \"#utility.yul\":3098:3101   */\n      dup5\n        /* \"#utility.yul\":3089:3095   */\n      dup3\n        /* \"#utility.yul\":3078:3087   */\n      dup6\n        /* \"#utility.yul\":3074:3096   */\n      add\n        /* \"#utility.yul\":3053:3102   */\n      tag_133\n      jump\t// in\n    tag_212:\n        /* \"#utility.yul\":3046:3050   */\n      0x60\n        /* \"#utility.yul\":3039:3044   */\n      dup4\n        /* \"#utility.yul\":3035:3051   */\n      add\n        /* \"#utility.yul\":3028:3103   */\n      mstore\n        /* \"#utility.yul\":2959:3114   */\n      pop\n        /* \"#utility.yul\":2203:3121   */\n      swap3\n      swap2\n      pop\n      pop\n      jump\t// out\n        /* \"#utility.yul\":3127:3523   */\n    tag_17:\n        /* \"#utility.yul\":3219:3225   */\n      0x00\n        /* \"#utility.yul\":3268:3271   */\n      0x80\n        /* \"#utility.yul\":3256:3265   */\n      dup3\n        /* \"#utility.yul\":3247:3254   */\n      dup5\n        /* \"#utility.yul\":3243:3266   */\n      sub\n        /* \"#utility.yul\":3239:3272   */\n      slt\n        /* \"#utility.yul\":3236:3356   */\n      iszero\n      tag_214\n      jumpi\n        /* \"#utility.yul\":3275:3354   */\n      tag_215\n      tag_123\n      jump\t// in\n    tag_215:\n        /* \"#utility.yul\":3236:3356   */\n    tag_214:\n        /* \"#utility.yul\":3395:3396   */\n      0x00\n        /* \"#utility.yul\":3420:3506   */\n      tag_216\n        /* \"#utility.yul\":3498:3505   */\n      dup5\n        /* \"#utility.yul\":3489:3495   */\n      dup3\n        /* \"#utility.yul\":3478:3487   */\n      dup6\n        /* \"#utility.yul\":3474:3496   */\n      add\n        /* \"#utility.yul\":3420:3506   */\n      tag_138\n      jump\t// in\n    tag_216:\n        /* \"#utility.yul\":3410:3506   */\n      swap2\n      pop\n        /* \"#utility.yul\":3366:3516   */\n      pop\n        /* \"#utility.yul\":3127:3523   */\n      swap3\n      swap2\n      pop\n      pop\n      jump\t// out\n        /* \"#utility.yul\":3529:3647   */\n    tag_139:\n        /* \"#utility.yul\":3616:3640   */\n      tag_218\n        /* \"#utility.yul\":3634:3639   */\n      dup2\n        /* \"#utility.yul\":3616:3640   */\n      tag_131\n      jump\t// in\n    tag_218:\n        /* \"#utility.yul\":3611:3614   */\n      dup3\n        /* \"#utility.yul\":3604:3641   */\n      mstore\n        /* \"#utility.yul\":3529:3647   */\n      pop\n      pop\n      jump\t// out\n        /* \"#utility.yul\":3653:3875   */\n    tag_23:\n        /* \"#utility.yul\":3746:3750   */\n      0x00\n        /* \"#utility.yul\":3784:3786   */\n      0x20\n        /* \"#utility.yul\":3773:3782   */\n      dup3\n        /* \"#utility.yul\":3769:3787   */\n      add\n        /* \"#utility.yul\":3761:3787   */\n      swap1\n      pop\n        /* \"#utility.yul\":3797:3868   */\n      tag_220\n        /* \"#utility.yul\":3865:3866   */\n      0x00\n        /* \"#utility.yul\":3854:3863   */\n      dup4\n        /* \"#utility.yul\":3850:3867   */\n      add\n        /* \"#utility.yul\":3841:3847   */\n      dup5\n        /* \"#utility.yul\":3797:3868   */\n      tag_139\n      jump\t// in\n    tag_220:\n        /* \"#utility.yul\":3653:3875   */\n      swap3\n      swap2\n      pop\n      pop\n      jump\t// out\n        /* \"#utility.yul\":3881:4355   */\n    tag_30:\n        /* \"#utility.yul\":3949:3955   */\n      0x00\n        /* \"#utility.yul\":3957:3963   */\n      dup1\n        /* \"#utility.yul\":4006:4008   */\n      0x40\n        /* \"#utility.yul\":3994:4003   */\n      dup4\n        /* \"#utility.yul\":3985:3992   */\n      dup6\n        /* \"#utility.yul\":3981:4004   */\n      sub\n        /* \"#utility.yul\":3977:4009   */\n      slt\n        /* \"#utility.yul\":3974:4093   */\n      iszero\n      tag_222\n      jumpi\n        /* \"#utility.yul\":4012:4091   */\n      tag_223\n      tag_123\n      jump\t// in\n    tag_223:\n        /* \"#utility.yul\":3974:4093   */\n    tag_222:\n        /* \"#utility.yul\":4132:4133   */\n      0x00\n        /* \"#utility.yul\":4157:4210   */\n      tag_224\n        /* \"#utility.yul\":4202:4209   */\n      dup6\n        /* \"#utility.yul\":4193:4199   */\n      dup3\n        /* \"#utility.yul\":4182:4191   */\n      dup7\n        /* \"#utility.yul\":4178:4200   */\n      add\n        /* \"#utility.yul\":4157:4210   */\n      tag_133\n      jump\t// in\n    tag_224:\n        /* \"#utility.yul\":4147:4210   */\n      swap3\n      pop\n        /* \"#utility.yul\":4103:4220   */\n      pop\n        /* \"#utility.yul\":4259:4261   */\n      0x20\n        /* \"#utility.yul\":4285:4338   */\n      tag_225\n        /* \"#utility.yul\":4330:4337   */\n      dup6\n        /* \"#utility.yul\":4321:4327   */\n      dup3\n        /* \"#utility.yul\":4310:4319   */\n      dup7\n        /* \"#utility.yul\":4306:4328   */\n      add\n        /* \"#utility.yul\":4285:4338   */\n      tag_133\n      jump\t// in\n    tag_225:\n        /* \"#utility.yul\":4275:4338   */\n      swap2\n      pop\n        /* \"#utility.yul\":4230:4348   */\n      pop\n        /* \"#utility.yul\":3881:4355   */\n      swap3\n      pop\n      swap3\n      swap1\n      pop\n      jump\t// out\n        /* \"#utility.yul\":4361:4478   */\n    tag_140:\n        /* \"#utility.yul\":4470:4471   */\n      0x00\n        /* \"#utility.yul\":4467:4468   */\n      dup1\n        /* \"#utility.yul\":4460:4472   */\n      revert\n        /* \"#utility.yul\":4484:4601   */\n    tag_141:\n        /* \"#utility.yul\":4593:4594   */\n      0x00\n        /* \"#utility.yul\":4590:4591   */\n      dup1\n        /* \"#utility.yul\":4583:4595   */\n      revert\n        /* \"#utility.yul\":4607:4914   */\n    tag_142:\n        /* \"#utility.yul\":4668:4672   */\n      0x00\n        /* \"#utility.yul\":4758:4776   */\n      0xffffffffffffffff\n        /* \"#utility.yul\":4750:4756   */\n      dup3\n        /* \"#utility.yul\":4747:4777   */\n      gt\n        /* \"#utility.yul\":4744:4800   */\n      iszero\n      tag_229\n      jumpi\n        /* \"#utility.yul\":4780:4798   */\n      tag_230\n      tag_127\n      jump\t// in\n    tag_230:\n        /* \"#utility.yul\":4744:4800   */\n    tag_229:\n        /* \"#utility.yul\":4818:4847   */\n      tag_231\n        /* \"#utility.yul\":4840:4846   */\n      dup3\n        /* \"#utility.yul\":4818:4847   */\n      tag_126\n      jump\t// in\n    tag_231:\n        /* \"#utility.yul\":4810:4847   */\n      swap1\n      pop\n        /* \"#utility.yul\":4902:4906   */\n      0x20\n        /* \"#utility.yul\":4896:4900   */\n      dup2\n        /* \"#utility.yul\":4892:4907   */\n      add\n        /* \"#utility.yul\":4884:4907   */\n      swap1\n      pop\n        /* \"#utility.yul\":4607:4914   */\n      swap2\n      swap1\n      pop\n      jump\t// out\n        /* \"#utility.yul\":4920:5066   */\n    tag_143:\n        /* \"#utility.yul\":5017:5023   */\n      dup3\n        /* \"#utility.yul\":5012:5015   */\n      dup2\n        /* \"#utility.yul\":5007:5010   */\n      dup4\n        /* \"#utility.yul\":4994:5024   */\n      calldatacopy\n        /* \"#utility.yul\":5058:5059   */\n      0x00\n        /* \"#utility.yul\":5049:5055   */\n      dup4\n        /* \"#utility.yul\":5044:5047   */\n      dup4\n        /* \"#utility.yul\":5040:5056   */\n      add\n        /* \"#utility.yul\":5033:5060   */\n      mstore\n        /* \"#utility.yul\":4920:5066   */\n      pop\n      pop\n      pop\n      jump\t// out\n        /* \"#utility.yul\":5072:5495   */\n    tag_144:\n        /* \"#utility.yul\":5149:5154   */\n      0x00\n        /* \"#utility.yul\":5174:5239   */\n      tag_234\n        /* \"#utility.yul\":5190:5238   */\n      tag_235\n        /* \"#utility.yul\":5231:5237   */\n      dup5\n        /* \"#utility.yul\":5190:5238   */\n      tag_142\n      jump\t// in\n    tag_235:\n        /* \"#utility.yul\":5174:5239   */\n      tag_129\n      jump\t// in\n    tag_234:\n        /* \"#utility.yul\":5165:5239   */\n      swap1\n      pop\n        /* \"#utility.yul\":5262:5268   */\n      dup3\n        /* \"#utility.yul\":5255:5260   */\n      dup2\n        /* \"#utility.yul\":5248:5269   */\n      mstore\n        /* \"#utility.yul\":5300:5304   */\n      0x20\n        /* \"#utility.yul\":5293:5298   */\n      dup2\n        /* \"#utility.yul\":5289:5305   */\n      add\n        /* \"#utility.yul\":5338:5341   */\n      dup5\n        /* \"#utility.yul\":5329:5335   */\n      dup5\n        /* \"#utility.yul\":5324:5327   */\n      dup5\n        /* \"#utility.yul\":5320:5336   */\n      add\n        /* \"#utility.yul\":5317:5342   */\n      gt\n        /* \"#utility.yul\":5314:5426   */\n      iszero\n      tag_236\n      jumpi\n        /* \"#utility.yul\":5345:5424   */\n      tag_237\n      tag_141\n      jump\t// in\n    tag_237:\n        /* \"#utility.yul\":5314:5426   */\n    tag_236:\n        /* \"#utility.yul\":5435:5489   */\n      tag_238\n        /* \"#utility.yul\":5482:5488   */\n      dup5\n        /* \"#utility.yul\":5477:5480   */\n      dup3\n        /* \"#utility.yul\":5472:5475   */\n      dup6\n        /* \"#utility.yul\":5435:5489   */\n      tag_143\n      jump\t// in\n    tag_238:\n        /* \"#utility.yul\":5155:5495   */\n      pop\n        /* \"#utility.yul\":5072:5495   */\n      swap4\n      swap3\n      pop\n      pop\n      pop\n      jump\t// out\n        /* \"#utility.yul\":5514:5852   */\n    tag_145:\n        /* \"#utility.yul\":5569:5574   */\n      0x00\n        /* \"#utility.yul\":5618:5621   */\n      dup3\n        /* \"#utility.yul\":5611:5615   */\n      0x1f\n        /* \"#utility.yul\":5603:5609   */\n      dup4\n        /* \"#utility.yul\":5599:5616   */\n      add\n        /* \"#utility.yul\":5595:5622   */\n      slt\n        /* \"#utility.yul\":5585:5707   */\n      tag_240\n      jumpi\n        /* \"#utility.yul\":5626:5705   */\n      tag_241\n      tag_140\n      jump\t// in\n    tag_241:\n        /* \"#utility.yul\":5585:5707   */\n    tag_240:\n        /* \"#utility.yul\":5743:5749   */\n      dup2\n        /* \"#utility.yul\":5730:5750   */\n      calldataload\n        /* \"#utility.yul\":5768:5846   */\n      tag_242\n        /* \"#utility.yul\":5842:5845   */\n      dup5\n        /* \"#utility.yul\":5834:5840   */\n      dup3\n        /* \"#utility.yul\":5827:5831   */\n      0x20\n        /* \"#utility.yul\":5819:5825   */\n      dup7\n        /* \"#utility.yul\":5815:5832   */\n      add\n        /* \"#utility.yul\":5768:5846   */\n      tag_144\n      jump\t// in\n    tag_242:\n        /* \"#utility.yul\":5759:5846   */\n      swap2\n      pop\n        /* \"#utility.yul\":5575:5852   */\n      pop\n        /* \"#utility.yul\":5514:5852   */\n      swap3\n      swap2\n      pop\n      pop\n      jump\t// out\n        /* \"#utility.yul\":5897:7309   */\n    tag_146:\n        /* \"#utility.yul\":5974:5979   */\n      0x00\n        /* \"#utility.yul\":6018:6022   */\n      0xc0\n        /* \"#utility.yul\":6006:6015   */\n      dup3\n        /* \"#utility.yul\":6001:6004   */\n      dup5\n        /* \"#utility.yul\":5997:6016   */\n      sub\n        /* \"#utility.yul\":5993:6023   */\n      slt\n        /* \"#utility.yul\":5990:6107   */\n      iszero\n      tag_244\n      jumpi\n        /* \"#utility.yul\":6026:6105   */\n      tag_245\n      tag_125\n      jump\t// in\n    tag_245:\n        /* \"#utility.yul\":5990:6107   */\n    tag_244:\n        /* \"#utility.yul\":6125:6146   */\n      tag_246\n        /* \"#utility.yul\":6141:6145   */\n      0xc0\n        /* \"#utility.yul\":6125:6146   */\n      tag_129\n      jump\t// in\n    tag_246:\n        /* \"#utility.yul\":6116:6146   */\n      swap1\n      pop\n        /* \"#utility.yul\":6207:6208   */\n      0x00\n        /* \"#utility.yul\":6247:6296   */\n      tag_247\n        /* \"#utility.yul\":6292:6295   */\n      dup5\n        /* \"#utility.yul\":6283:6289   */\n      dup3\n        /* \"#utility.yul\":6272:6281   */\n      dup6\n        /* \"#utility.yul\":6268:6290   */\n      add\n        /* \"#utility.yul\":6247:6296   */\n      tag_133\n      jump\t// in\n    tag_247:\n        /* \"#utility.yul\":6240:6244   */\n      0x00\n        /* \"#utility.yul\":6233:6238   */\n      dup4\n        /* \"#utility.yul\":6229:6245   */\n      add\n        /* \"#utility.yul\":6222:6297   */\n      mstore\n        /* \"#utility.yul\":6156:6308   */\n      pop\n        /* \"#utility.yul\":6370:6372   */\n      0x20\n        /* \"#utility.yul\":6411:6460   */\n      tag_248\n        /* \"#utility.yul\":6456:6459   */\n      dup5\n        /* \"#utility.yul\":6447:6453   */\n      dup3\n        /* \"#utility.yul\":6436:6445   */\n      dup6\n        /* \"#utility.yul\":6432:6454   */\n      add\n        /* \"#utility.yul\":6411:6460   */\n      tag_133\n      jump\t// in\n    tag_248:\n        /* \"#utility.yul\":6404:6408   */\n      0x20\n        /* \"#utility.yul\":6397:6402   */\n      dup4\n        /* \"#utility.yul\":6393:6409   */\n      add\n        /* \"#utility.yul\":6386:6461   */\n      mstore\n        /* \"#utility.yul\":6318:6472   */\n      pop\n        /* \"#utility.yul\":6532:6534   */\n      0x40\n        /* \"#utility.yul\":6573:6622   */\n      tag_249\n        /* \"#utility.yul\":6618:6621   */\n      dup5\n        /* \"#utility.yul\":6609:6615   */\n      dup3\n        /* \"#utility.yul\":6598:6607   */\n      dup6\n        /* \"#utility.yul\":6594:6616   */\n      add\n        /* \"#utility.yul\":6573:6622   */\n      tag_137\n      jump\t// in\n    tag_249:\n        /* \"#utility.yul\":6566:6570   */\n      0x40\n        /* \"#utility.yul\":6559:6564   */\n      dup4\n        /* \"#utility.yul\":6555:6571   */\n      add\n        /* \"#utility.yul\":6548:6623   */\n      mstore\n        /* \"#utility.yul\":6482:6634   */\n      pop\n        /* \"#utility.yul\":6698:6700   */\n      0x60\n        /* \"#utility.yul\":6739:6788   */\n      tag_250\n        /* \"#utility.yul\":6784:6787   */\n      dup5\n        /* \"#utility.yul\":6775:6781   */\n      dup3\n        /* \"#utility.yul\":6764:6773   */\n      dup6\n        /* \"#utility.yul\":6760:6782   */\n      add\n        /* \"#utility.yul\":6739:6788   */\n      tag_137\n      jump\t// in\n    tag_250:\n        /* \"#utility.yul\":6732:6736   */\n      0x60\n        /* \"#utility.yul\":6725:6730   */\n      dup4\n        /* \"#utility.yul\":6721:6737   */\n      add\n        /* \"#utility.yul\":6714:6789   */\n      mstore\n        /* \"#utility.yul\":6644:6800   */\n      pop\n        /* \"#utility.yul\":6863:6866   */\n      0x80\n        /* \"#utility.yul\":6905:6954   */\n      tag_251\n        /* \"#utility.yul\":6950:6953   */\n      dup5\n        /* \"#utility.yul\":6941:6947   */\n      dup3\n        /* \"#utility.yul\":6930:6939   */\n      dup6\n        /* \"#utility.yul\":6926:6948   */\n      add\n        /* \"#utility.yul\":6905:6954   */\n      tag_133\n      jump\t// in\n    tag_251:\n        /* \"#utility.yul\":6898:6902   */\n      0x80\n        /* \"#utility.yul\":6891:6896   */\n      dup4\n        /* \"#utility.yul\":6887:6903   */\n      add\n        /* \"#utility.yul\":6880:6955   */\n      mstore\n        /* \"#utility.yul\":6810:6966   */\n      pop\n        /* \"#utility.yul\":7058:7061   */\n      0xa0\n        /* \"#utility.yul\":7047:7056   */\n      dup3\n        /* \"#utility.yul\":7043:7062   */\n      add\n        /* \"#utility.yul\":7030:7063   */\n      calldataload\n        /* \"#utility.yul\":7090:7108   */\n      0xffffffffffffffff\n        /* \"#utility.yul\":7082:7088   */\n      dup2\n        /* \"#utility.yul\":7079:7109   */\n      gt\n        /* \"#utility.yul\":7076:7193   */\n      iszero\n      tag_252\n      jumpi\n        /* \"#utility.yul\":7112:7191   */\n      tag_253\n      tag_130\n      jump\t// in\n    tag_253:\n        /* \"#utility.yul\":7076:7193   */\n    tag_252:\n        /* \"#utility.yul\":7232:7290   */\n      tag_254\n        /* \"#utility.yul\":7286:7289   */\n      dup5\n        /* \"#utility.yul\":7277:7283   */\n      dup3\n        /* \"#utility.yul\":7266:7275   */\n      dup6\n        /* \"#utility.yul\":7262:7284   */\n      add\n        /* \"#utility.yul\":7232:7290   */\n      tag_145\n      jump\t// in\n    tag_254:\n        /* \"#utility.yul\":7225:7229   */\n      0xa0\n        /* \"#utility.yul\":7218:7223   */\n      dup4\n        /* \"#utility.yul\":7214:7230   */\n      add\n        /* \"#utility.yul\":7207:7291   */\n      mstore\n        /* \"#utility.yul\":6976:7302   */\n      pop\n        /* \"#utility.yul\":5897:7309   */\n      swap3\n      swap2\n      pop\n      pop\n      jump\t// out\n        /* \"#utility.yul\":7315:8005   */\n    tag_34:\n        /* \"#utility.yul\":7411:7417   */\n      0x00\n        /* \"#utility.yul\":7419:7425   */\n      dup1\n        /* \"#utility.yul\":7468:7470   */\n      0x40\n        /* \"#utility.yul\":7456:7465   */\n      dup4\n        /* \"#utility.yul\":7447:7454   */\n      dup6\n        /* \"#utility.yul\":7443:7466   */\n      sub\n        /* \"#utility.yul\":7439:7471   */\n      slt\n        /* \"#utility.yul\":7436:7555   */\n      iszero\n      tag_256\n      jumpi\n        /* \"#utility.yul\":7474:7553   */\n      tag_257\n      tag_123\n      jump\t// in\n    tag_257:\n        /* \"#utility.yul\":7436:7555   */\n    tag_256:\n        /* \"#utility.yul\":7622:7623   */\n      0x00\n        /* \"#utility.yul\":7611:7620   */\n      dup4\n        /* \"#utility.yul\":7607:7624   */\n      add\n        /* \"#utility.yul\":7594:7625   */\n      calldataload\n        /* \"#utility.yul\":7652:7670   */\n      0xffffffffffffffff\n        /* \"#utility.yul\":7644:7650   */\n      dup2\n        /* \"#utility.yul\":7641:7671   */\n      gt\n        /* \"#utility.yul\":7638:7755   */\n      iszero\n      tag_258\n      jumpi\n        /* \"#utility.yul\":7674:7753   */\n      tag_259\n      tag_124\n      jump\t// in\n    tag_259:\n        /* \"#utility.yul\":7638:7755   */\n    tag_258:\n        /* \"#utility.yul\":7779:7860   */\n      tag_260\n        /* \"#utility.yul\":7852:7859   */\n      dup6\n        /* \"#utility.yul\":7843:7849   */\n      dup3\n        /* \"#utility.yul\":7832:7841   */\n      dup7\n        /* \"#utility.yul\":7828:7850   */\n      add\n        /* \"#utility.yul\":7779:7860   */\n      tag_146\n      jump\t// in\n    tag_260:\n        /* \"#utility.yul\":7769:7860   */\n      swap3\n      pop\n        /* \"#utility.yul\":7565:7870   */\n      pop\n        /* \"#utility.yul\":7909:7911   */\n      0x20\n        /* \"#utility.yul\":7935:7988   */\n      tag_261\n        /* \"#utility.yul\":7980:7987   */\n      dup6\n        /* \"#utility.yul\":7971:7977   */\n      dup3\n        /* \"#utility.yul\":7960:7969   */\n      dup7\n        /* \"#utility.yul\":7956:7978   */\n      add\n        /* \"#utility.yul\":7935:7988   */\n      tag_133\n      jump\t// in\n    tag_261:\n        /* \"#utility.yul\":7925:7988   */\n      swap2\n      pop\n        /* \"#utility.yul\":7880:7998   */\n      pop\n        /* \"#utility.yul\":7315:8005   */\n      swap3\n      pop\n      swap3\n      swap1\n      pop\n      jump\t// out\n        /* \"#utility.yul\":8011:8129   */\n    tag_147:\n        /* \"#utility.yul\":8098:8122   */\n      tag_263\n        /* \"#utility.yul\":8116:8121   */\n      dup2\n        /* \"#utility.yul\":8098:8122   */\n      tag_135\n      jump\t// in\n    tag_263:\n        /* \"#utility.yul\":8093:8096   */\n      dup3\n        /* \"#utility.yul\":8086:8123   */\n      mstore\n        /* \"#utility.yul\":8011:8129   */\n      pop\n      pop\n      jump\t// out\n        /* \"#utility.yul\":8135:8357   */\n    tag_40:\n        /* \"#utility.yul\":8228:8232   */\n      0x00\n        /* \"#utility.yul\":8266:8268   */\n      0x20\n        /* \"#utility.yul\":8255:8264   */\n      dup3\n        /* \"#utility.yul\":8251:8269   */\n      add\n        /* \"#utility.yul\":8243:8269   */\n      swap1\n      pop\n        /* \"#utility.yul\":8279:8350   */\n      tag_265\n        /* \"#utility.yul\":8347:8348   */\n      0x00\n        /* \"#utility.yul\":8336:8345   */\n      dup4\n        /* \"#utility.yul\":8332:8349   */\n      add\n        /* \"#utility.yul\":8323:8329   */\n      dup5\n        /* \"#utility.yul\":8279:8350   */\n      tag_147\n      jump\t// in\n    tag_265:\n        /* \"#utility.yul\":8135:8357   */\n      swap3\n      swap2\n      pop\n      pop\n      jump\t// out\n        /* \"#utility.yul\":8363:8870   */\n    tag_44:\n        /* \"#utility.yul\":8431:8437   */\n      0x00\n        /* \"#utility.yul\":8480:8482   */\n      0x20\n        /* \"#utility.yul\":8468:8477   */\n      dup3\n        /* \"#utility.yul\":8459:8466   */\n      dup5\n        /* \"#utility.yul\":8455:8478   */\n      sub\n        /* \"#utility.yul\":8451:8483   */\n      slt\n        /* \"#utility.yul\":8448:8567   */\n      iszero\n      tag_267\n      jumpi\n        /* \"#utility.yul\":8486:8565   */\n      tag_268\n      tag_123\n      jump\t// in\n    tag_268:\n        /* \"#utility.yul\":8448:8567   */\n    tag_267:\n        /* \"#utility.yul\":8634:8635   */\n      0x00\n        /* \"#utility.yul\":8623:8632   */\n      dup3\n        /* \"#utility.yul\":8619:8636   */\n      add\n        /* \"#utility.yul\":8606:8637   */\n      calldataload\n        /* \"#utility.yul\":8664:8682   */\n      0xffffffffffffffff\n        /* \"#utility.yul\":8656:8662   */\n      dup2\n        /* \"#utility.yul\":8653:8683   */\n      gt\n        /* \"#utility.yul\":8650:8767   */\n      iszero\n      tag_269\n      jumpi\n        /* \"#utility.yul\":8686:8765   */\n      tag_270\n      tag_124\n      jump\t// in\n    tag_270:\n        /* \"#utility.yul\":8650:8767   */\n    tag_269:\n        /* \"#utility.yul\":8791:8853   */\n      tag_271\n        /* \"#utility.yul\":8845:8852   */\n      dup5\n        /* \"#utility.yul\":8836:8842   */\n      dup3\n        /* \"#utility.yul\":8825:8834   */\n      dup6\n        /* \"#utility.yul\":8821:8843   */\n      add\n        /* \"#utility.yul\":8791:8853   */\n      tag_145\n      jump\t// in\n    tag_271:\n        /* \"#utility.yul\":8781:8853   */\n      swap2\n      pop\n        /* \"#utility.yul\":8577:8863   */\n      pop\n        /* \"#utility.yul\":8363:8870   */\n      swap3\n      swap2\n      pop\n      pop\n      jump\t// out\n        /* \"#utility.yul\":8876:8953   */\n    tag_148:\n        /* \"#utility.yul\":8913:8920   */\n      0x00\n        /* \"#utility.yul\":8942:8947   */\n      dup2\n        /* \"#utility.yul\":8931:8947   */\n      swap1\n      pop\n        /* \"#utility.yul\":8876:8953   */\n      swap2\n      swap1\n      pop\n      jump\t// out\n        /* \"#utility.yul\":8959:9077   */\n    tag_149:\n        /* \"#utility.yul\":9046:9070   */\n      tag_274\n        /* \"#utility.yul\":9064:9069   */\n      dup2\n        /* \"#utility.yul\":9046:9070   */\n      tag_148\n      jump\t// in\n    tag_274:\n        /* \"#utility.yul\":9041:9044   */\n      dup3\n        /* \"#utility.yul\":9034:9071   */\n      mstore\n        /* \"#utility.yul\":8959:9077   */\n      pop\n      pop\n      jump\t// out\n        /* \"#utility.yul\":9083:9169   */\n    tag_150:\n        /* \"#utility.yul\":9118:9125   */\n      0x00\n        /* \"#utility.yul\":9158:9162   */\n      0xff\n        /* \"#utility.yul\":9151:9156   */\n      dup3\n        /* \"#utility.yul\":9147:9163   */\n      and\n        /* \"#utility.yul\":9136:9163   */\n      swap1\n      pop\n        /* \"#utility.yul\":9083:9169   */\n      swap2\n      swap1\n      pop\n      jump\t// out\n        /* \"#utility.yul\":9175:9287   */\n    tag_151:\n        /* \"#utility.yul\":9258:9280   */\n      tag_277\n        /* \"#utility.yul\":9274:9279   */\n      dup2\n        /* \"#utility.yul\":9258:9280   */\n      tag_150\n      jump\t// in\n    tag_277:\n        /* \"#utility.yul\":9253:9256   */\n      dup3\n        /* \"#utility.yul\":9246:9281   */\n      mstore\n        /* \"#utility.yul\":9175:9287   */\n      pop\n      pop\n      jump\t// out\n        /* \"#utility.yul\":9293:9727   */\n    tag_47:\n        /* \"#utility.yul\":9438:9442   */\n      0x00\n        /* \"#utility.yul\":9476:9478   */\n      0x60\n        /* \"#utility.yul\":9465:9474   */\n      dup3\n        /* \"#utility.yul\":9461:9479   */\n      add\n        /* \"#utility.yul\":9453:9479   */\n      swap1\n      pop\n        /* \"#utility.yul\":9489:9560   */\n      tag_279\n        /* \"#utility.yul\":9557:9558   */\n      0x00\n        /* \"#utility.yul\":9546:9555   */\n      dup4\n        /* \"#utility.yul\":9542:9559   */\n      add\n        /* \"#utility.yul\":9533:9539   */\n      dup7\n        /* \"#utility.yul\":9489:9560   */\n      tag_149\n      jump\t// in\n    tag_279:\n        /* \"#utility.yul\":9570:9642   */\n      tag_280\n        /* \"#utility.yul\":9638:9640   */\n      0x20\n        /* \"#utility.yul\":9627:9636   */\n      dup4\n        /* \"#utility.yul\":9623:9641   */\n      add\n        /* \"#utility.yul\":9614:9620   */\n      dup6\n        /* \"#utility.yul\":9570:9642   */\n      tag_149\n      jump\t// in\n    tag_280:\n        /* \"#utility.yul\":9652:9720   */\n      tag_281\n        /* \"#utility.yul\":9716:9718   */\n      0x40\n        /* \"#utility.yul\":9705:9714   */\n      dup4\n        /* \"#utility.yul\":9701:9719   */\n      add\n        /* \"#utility.yul\":9692:9698   */\n      dup5\n        /* \"#utility.yul\":9652:9720   */\n      tag_151\n      jump\t// in\n    tag_281:\n        /* \"#utility.yul\":9293:9727   */\n      swap5\n      swap4\n      pop\n      pop\n      pop\n      pop\n      jump\t// out\n        /* \"#utility.yul\":9733:9955   */\n    tag_52:\n        /* \"#utility.yul\":9826:9830   */\n      0x00\n        /* \"#utility.yul\":9864:9866   */\n      0x20\n        /* \"#utility.yul\":9853:9862   */\n      dup3\n        /* \"#utility.yul\":9849:9867   */\n      add\n        /* \"#utility.yul\":9841:9867   */\n      swap1\n      pop\n        /* \"#utility.yul\":9877:9948   */\n      tag_283\n        /* \"#utility.yul\":9945:9946   */\n      0x00\n        /* \"#utility.yul\":9934:9943   */\n      dup4\n        /* \"#utility.yul\":9930:9947   */\n      add\n        /* \"#utility.yul\":9921:9927   */\n      dup5\n        /* \"#utility.yul\":9877:9948   */\n      tag_149\n      jump\t// in\n    tag_283:\n        /* \"#utility.yul\":9733:9955   */\n      swap3\n      swap2\n      pop\n      pop\n      jump\t// out\n        /* \"#utility.yul\":9961:10290   */\n    tag_56:\n        /* \"#utility.yul\":10020:10026   */\n      0x00\n        /* \"#utility.yul\":10069:10071   */\n      0x20\n        /* \"#utility.yul\":10057:10066   */\n      dup3\n        /* \"#utility.yul\":10048:10055   */\n      dup5\n        /* \"#utility.yul\":10044:10067   */\n      sub\n        /* \"#utility.yul\":10040:10072   */\n      slt\n        /* \"#utility.yul\":10037:10156   */\n      iszero\n      tag_285\n      jumpi\n        /* \"#utility.yul\":10075:10154   */\n      tag_286\n      tag_123\n      jump\t// in\n    tag_286:\n        /* \"#utility.yul\":10037:10156   */\n    tag_285:\n        /* \"#utility.yul\":10195:10196   */\n      0x00\n        /* \"#utility.yul\":10220:10273   */\n      tag_287\n        /* \"#utility.yul\":10265:10272   */\n      dup5\n        /* \"#utility.yul\":10256:10262   */\n      dup3\n        /* \"#utility.yul\":10245:10254   */\n      dup6\n        /* \"#utility.yul\":10241:10263   */\n      add\n        /* \"#utility.yul\":10220:10273   */\n      tag_133\n      jump\t// in\n    tag_287:\n        /* \"#utility.yul\":10210:10273   */\n      swap2\n      pop\n        /* \"#utility.yul\":10166:10283   */\n      pop\n        /* \"#utility.yul\":9961:10290   */\n      swap3\n      swap2\n      pop\n      pop\n      jump\t// out\n        /* \"#utility.yul\":10296:10394   */\n    tag_152:\n        /* \"#utility.yul\":10347:10353   */\n      0x00\n        /* \"#utility.yul\":10381:10386   */\n      dup2\n        /* \"#utility.yul\":10375:10387   */\n      mload\n        /* \"#utility.yul\":10365:10387   */\n      swap1\n      pop\n        /* \"#utility.yul\":10296:10394   */\n      swap2\n      swap1\n      pop\n      jump\t// out\n        /* \"#utility.yul\":10400:10568   */\n    tag_153:\n        /* \"#utility.yul\":10483:10494   */\n      0x00\n        /* \"#utility.yul\":10517:10523   */\n      dup3\n        /* \"#utility.yul\":10512:10515   */\n      dup3\n        /* \"#utility.yul\":10505:10524   */\n      mstore\n        /* \"#utility.yul\":10557:10561   */\n      0x20\n        /* \"#utility.yul\":10552:10555   */\n      dup3\n        /* \"#utility.yul\":10548:10562   */\n      add\n        /* \"#utility.yul\":10533:10562   */\n      swap1\n      pop\n        /* \"#utility.yul\":10400:10568   */\n      swap3\n      swap2\n      pop\n      pop\n      jump\t// out\n        /* \"#utility.yul\":10574:10820   */\n    tag_154:\n        /* \"#utility.yul\":10655:10656   */\n      0x00\n        /* \"#utility.yul\":10665:10778   */\n    tag_291:\n        /* \"#utility.yul\":10679:10685   */\n      dup4\n        /* \"#utility.yul\":10676:10677   */\n      dup2\n        /* \"#utility.yul\":10673:10686   */\n      lt\n        /* \"#utility.yul\":10665:10778   */\n      iszero\n      tag_293\n      jumpi\n        /* \"#utility.yul\":10764:10765   */\n      dup1\n        /* \"#utility.yul\":10759:10762   */\n      dup3\n        /* \"#utility.yul\":10755:10766   */\n      add\n        /* \"#utility.yul\":10749:10767   */\n      mload\n        /* \"#utility.yul\":10745:10746   */\n      dup2\n        /* \"#utility.yul\":10740:10743   */\n      dup5\n        /* \"#utility.yul\":10736:10747   */\n      add\n        /* \"#utility.yul\":10729:10768   */\n      mstore\n        /* \"#utility.yul\":10701:10703   */\n      0x20\n        /* \"#utility.yul\":10698:10699   */\n      dup2\n        /* \"#utility.yul\":10694:10704   */\n      add\n        /* \"#utility.yul\":10689:10704   */\n      swap1\n      pop\n        /* \"#utility.yul\":10665:10778   */\n      jump(tag_291)\n    tag_293:\n        /* \"#utility.yul\":10812:10813   */\n      0x00\n        /* \"#utility.yul\":10803:10809   */\n      dup5\n        /* \"#utility.yul\":10798:10801   */\n      dup5\n        /* \"#utility.yul\":10794:10810   */\n      add\n        /* \"#utility.yul\":10787:10814   */\n      mstore\n        /* \"#utility.yul\":10636:10820   */\n      pop\n        /* \"#utility.yul\":10574:10820   */\n      pop\n      pop\n      pop\n      jump\t// out\n        /* \"#utility.yul\":10826:11199   */\n    tag_155:\n        /* \"#utility.yul\":10912:10915   */\n      0x00\n        /* \"#utility.yul\":10940:10978   */\n      tag_295\n        /* \"#utility.yul\":10972:10977   */\n      dup3\n        /* \"#utility.yul\":10940:10978   */\n      tag_152\n      jump\t// in\n    tag_295:\n        /* \"#utility.yul\":10994:11064   */\n      tag_296\n        /* \"#utility.yul\":11057:11063   */\n      dup2\n        /* \"#utility.yul\":11052:11055   */\n      dup6\n        /* \"#utility.yul\":10994:11064   */\n      tag_153\n      jump\t// in\n    tag_296:\n        /* \"#utility.yul\":10987:11064   */\n      swap4\n      pop\n        /* \"#utility.yul\":11073:11138   */\n      tag_297\n        /* \"#utility.yul\":11131:11137   */\n      dup2\n        /* \"#utility.yul\":11126:11129   */\n      dup6\n        /* \"#utility.yul\":11119:11123   */\n      0x20\n        /* \"#utility.yul\":11112:11117   */\n      dup7\n        /* \"#utility.yul\":11108:11124   */\n      add\n        /* \"#utility.yul\":11073:11138   */\n      tag_154\n      jump\t// in\n    tag_297:\n        /* \"#utility.yul\":11163:11192   */\n      tag_298\n        /* \"#utility.yul\":11185:11191   */\n      dup2\n        /* \"#utility.yul\":11163:11192   */\n      tag_126\n      jump\t// in\n    tag_298:\n        /* \"#utility.yul\":11158:11161   */\n      dup5\n        /* \"#utility.yul\":11154:11193   */\n      add\n        /* \"#utility.yul\":11147:11193   */\n      swap2\n      pop\n        /* \"#utility.yul\":10916:11199   */\n      pop\n        /* \"#utility.yul\":10826:11199   */\n      swap3\n      swap2\n      pop\n      pop\n      jump\t// out\n        /* \"#utility.yul\":11205:12067   */\n    tag_59:\n        /* \"#utility.yul\":11456:11460   */\n      0x00\n        /* \"#utility.yul\":11494:11497   */\n      0xc0\n        /* \"#utility.yul\":11483:11492   */\n      dup3\n        /* \"#utility.yul\":11479:11498   */\n      add\n        /* \"#utility.yul\":11471:11498   */\n      swap1\n      pop\n        /* \"#utility.yul\":11508:11579   */\n      tag_300\n        /* \"#utility.yul\":11576:11577   */\n      0x00\n        /* \"#utility.yul\":11565:11574   */\n      dup4\n        /* \"#utility.yul\":11561:11578   */\n      add\n        /* \"#utility.yul\":11552:11558   */\n      dup10\n        /* \"#utility.yul\":11508:11579   */\n      tag_139\n      jump\t// in\n    tag_300:\n        /* \"#utility.yul\":11589:11661   */\n      tag_301\n        /* \"#utility.yul\":11657:11659   */\n      0x20\n        /* \"#utility.yul\":11646:11655   */\n      dup4\n        /* \"#utility.yul\":11642:11660   */\n      add\n        /* \"#utility.yul\":11633:11639   */\n      dup9\n        /* \"#utility.yul\":11589:11661   */\n      tag_139\n      jump\t// in\n    tag_301:\n        /* \"#utility.yul\":11671:11743   */\n      tag_302\n        /* \"#utility.yul\":11739:11741   */\n      0x40\n        /* \"#utility.yul\":11728:11737   */\n      dup4\n        /* \"#utility.yul\":11724:11742   */\n      add\n        /* \"#utility.yul\":11715:11721   */\n      dup8\n        /* \"#utility.yul\":11671:11743   */\n      tag_147\n      jump\t// in\n    tag_302:\n        /* \"#utility.yul\":11753:11825   */\n      tag_303\n        /* \"#utility.yul\":11821:11823   */\n      0x60\n        /* \"#utility.yul\":11810:11819   */\n      dup4\n        /* \"#utility.yul\":11806:11824   */\n      add\n        /* \"#utility.yul\":11797:11803   */\n      dup7\n        /* \"#utility.yul\":11753:11825   */\n      tag_147\n      jump\t// in\n    tag_303:\n        /* \"#utility.yul\":11835:11908   */\n      tag_304\n        /* \"#utility.yul\":11903:11906   */\n      0x80\n        /* \"#utility.yul\":11892:11901   */\n      dup4\n        /* \"#utility.yul\":11888:11907   */\n      add\n        /* \"#utility.yul\":11879:11885   */\n      dup6\n        /* \"#utility.yul\":11835:11908   */\n      tag_139\n      jump\t// in\n    tag_304:\n        /* \"#utility.yul\":11956:11965   */\n      dup2\n        /* \"#utility.yul\":11950:11954   */\n      dup2\n        /* \"#utility.yul\":11946:11966   */\n      sub\n        /* \"#utility.yul\":11940:11943   */\n      0xa0\n        /* \"#utility.yul\":11929:11938   */\n      dup4\n        /* \"#utility.yul\":11925:11944   */\n      add\n        /* \"#utility.yul\":11918:11967   */\n      mstore\n        /* \"#utility.yul\":11984:12060   */\n      tag_305\n        /* \"#utility.yul\":12055:12059   */\n      dup2\n        /* \"#utility.yul\":12046:12052   */\n      dup5\n        /* \"#utility.yul\":11984:12060   */\n      tag_155\n      jump\t// in\n    tag_305:\n        /* \"#utility.yul\":11976:12060   */\n      swap1\n      pop\n        /* \"#utility.yul\":11205:12067   */\n      swap8\n      swap7\n      pop\n      pop\n      pop\n      pop\n      pop\n      pop\n      pop\n      jump\t// out\n        /* \"#utility.yul\":12073:12402   */\n    tag_67:\n        /* \"#utility.yul\":12132:12138   */\n      0x00\n        /* \"#utility.yul\":12181:12183   */\n      0x20\n        /* \"#utility.yul\":12169:12178   */\n      dup3\n        /* \"#utility.yul\":12160:12167   */\n      dup5\n        /* \"#utility.yul\":12156:12179   */\n      sub\n        /* \"#utility.yul\":12152:12184   */\n      slt\n        /* \"#utility.yul\":12149:12268   */\n      iszero\n      tag_307\n      jumpi\n        /* \"#utility.yul\":12187:12266   */\n      tag_308\n      tag_123\n      jump\t// in\n    tag_308:\n        /* \"#utility.yul\":12149:12268   */\n    tag_307:\n        /* \"#utility.yul\":12307:12308   */\n      0x00\n        /* \"#utility.yul\":12332:12385   */\n      tag_309\n        /* \"#utility.yul\":12377:12384   */\n      dup5\n        /* \"#utility.yul\":12368:12374   */\n      dup3\n        /* \"#utility.yul\":12357:12366   */\n      dup6\n        /* \"#utility.yul\":12353:12375   */\n      add\n        /* \"#utility.yul\":12332:12385   */\n      tag_137\n      jump\t// in\n    tag_309:\n        /* \"#utility.yul\":12322:12385   */\n      swap2\n      pop\n        /* \"#utility.yul\":12278:12395   */\n      pop\n        /* \"#utility.yul\":12073:12402   */\n      swap3\n      swap2\n      pop\n      pop\n      jump\t// out\n        /* \"#utility.yul\":12408:12468   */\n    tag_156:\n        /* \"#utility.yul\":12436:12439   */\n      0x00\n        /* \"#utility.yul\":12457:12462   */\n      dup2\n        /* \"#utility.yul\":12450:12462   */\n      swap1\n      pop\n        /* \"#utility.yul\":12408:12468   */\n      swap2\n      swap1\n      pop\n      jump\t// out\n        /* \"#utility.yul\":12474:12616   */\n    tag_157:\n        /* \"#utility.yul\":12524:12533   */\n      0x00\n        /* \"#utility.yul\":12557:12610   */\n      tag_312\n        /* \"#utility.yul\":12575:12609   */\n      tag_313\n        /* \"#utility.yul\":12584:12608   */\n      tag_314\n        /* \"#utility.yul\":12602:12607   */\n      dup5\n        /* \"#utility.yul\":12584:12608   */\n      tag_134\n      jump\t// in\n    tag_314:\n        /* \"#utility.yul\":12575:12609   */\n      tag_156\n      jump\t// in\n    tag_313:\n        /* \"#utility.yul\":12557:12610   */\n      tag_134\n      jump\t// in\n    tag_312:\n        /* \"#utility.yul\":12544:12610   */\n      swap1\n      pop\n        /* \"#utility.yul\":12474:12616   */\n      swap2\n      swap1\n      pop\n      jump\t// out\n        /* \"#utility.yul\":12622:12748   */\n    tag_158:\n        /* \"#utility.yul\":12672:12681   */\n      0x00\n        /* \"#utility.yul\":12705:12742   */\n      tag_316\n        /* \"#utility.yul\":12736:12741   */\n      dup3\n        /* \"#utility.yul\":12705:12742   */\n      tag_157\n      jump\t// in\n    tag_316:\n        /* \"#utility.yul\":12692:12742   */\n      swap1\n      pop\n        /* \"#utility.yul\":12622:12748   */\n      swap2\n      swap1\n      pop\n      jump\t// out\n        /* \"#utility.yul\":12754:12894   */\n    tag_159:\n        /* \"#utility.yul\":12818:12827   */\n      0x00\n        /* \"#utility.yul\":12851:12888   */\n      tag_318\n        /* \"#utility.yul\":12882:12887   */\n      dup3\n        /* \"#utility.yul\":12851:12888   */\n      tag_158\n      jump\t// in\n    tag_318:\n        /* \"#utility.yul\":12838:12888   */\n      swap1\n      pop\n        /* \"#utility.yul\":12754:12894   */\n      swap2\n      swap1\n      pop\n      jump\t// out\n        /* \"#utility.yul\":12900:13059   */\n    tag_160:\n        /* \"#utility.yul\":13001:13052   */\n      tag_320\n        /* \"#utility.yul\":13046:13051   */\n      dup2\n        /* \"#utility.yul\":13001:13052   */\n      tag_159\n      jump\t// in\n    tag_320:\n        /* \"#utility.yul\":12996:12999   */\n      dup3\n        /* \"#utility.yul\":12989:13053   */\n      mstore\n        /* \"#utility.yul\":12900:13059   */\n      pop\n      pop\n      jump\t// out\n        /* \"#utility.yul\":13065:13315   */\n    tag_73:\n        /* \"#utility.yul\":13172:13176   */\n      0x00\n        /* \"#utility.yul\":13210:13212   */\n      0x20\n        /* \"#utility.yul\":13199:13208   */\n      dup3\n        /* \"#utility.yul\":13195:13213   */\n      add\n        /* \"#utility.yul\":13187:13213   */\n      swap1\n      pop\n        /* \"#utility.yul\":13223:13308   */\n      tag_322\n        /* \"#utility.yul\":13305:13306   */\n      0x00\n        /* \"#utility.yul\":13294:13303   */\n      dup4\n        /* \"#utility.yul\":13290:13307   */\n      add\n        /* \"#utility.yul\":13281:13287   */\n      dup5\n        /* \"#utility.yul\":13223:13308   */\n      tag_160\n      jump\t// in\n    tag_322:\n        /* \"#utility.yul\":13065:13315   */\n      swap3\n      swap2\n      pop\n      pop\n      jump\t// out\n        /* \"#utility.yul\":13321:13490   */\n    tag_161:\n        /* \"#utility.yul\":13405:13416   */\n      0x00\n        /* \"#utility.yul\":13439:13445   */\n      dup3\n        /* \"#utility.yul\":13434:13437   */\n      dup3\n        /* \"#utility.yul\":13427:13446   */\n      mstore\n        /* \"#utility.yul\":13479:13483   */\n      0x20\n        /* \"#utility.yul\":13474:13477   */\n      dup3\n        /* \"#utility.yul\":13470:13484   */\n      add\n        /* \"#utility.yul\":13455:13484   */\n      swap1\n      pop\n        /* \"#utility.yul\":13321:13490   */\n      swap3\n      swap2\n      pop\n      pop\n      jump\t// out\n        /* \"#utility.yul\":13496:13677   */\n    tag_162:\n        /* \"#utility.yul\":13636:13669   */\n      0x5072696365206d7573742062652067726561746572207468616e207a65726f00\n        /* \"#utility.yul\":13632:13633   */\n      0x00\n        /* \"#utility.yul\":13624:13630   */\n      dup3\n        /* \"#utility.yul\":13620:13634   */\n      add\n        /* \"#utility.yul\":13613:13670   */\n      mstore\n        /* \"#utility.yul\":13496:13677   */\n      pop\n      jump\t// out\n        /* \"#utility.yul\":13683:14049   */\n    tag_163:\n        /* \"#utility.yul\":13825:13828   */\n      0x00\n        /* \"#utility.yul\":13846:13913   */\n      tag_326\n        /* \"#utility.yul\":13910:13912   */\n      0x1f\n        /* \"#utility.yul\":13905:13908   */\n      dup4\n        /* \"#utility.yul\":13846:13913   */\n      tag_161\n      jump\t// in\n    tag_326:\n        /* \"#utility.yul\":13839:13913   */\n      swap2\n      pop\n        /* \"#utility.yul\":13922:14015   */\n      tag_327\n        /* \"#utility.yul\":14011:14014   */\n      dup3\n        /* \"#utility.yul\":13922:14015   */\n      tag_162\n      jump\t// in\n    tag_327:\n        /* \"#utility.yul\":14040:14042   */\n      0x20\n        /* \"#utility.yul\":14035:14038   */\n      dup3\n        /* \"#utility.yul\":14031:14043   */\n      add\n        /* \"#utility.yul\":14024:14043   */\n      swap1\n      pop\n        /* \"#utility.yul\":13683:14049   */\n      swap2\n      swap1\n      pop\n      jump\t// out\n        /* \"#utility.yul\":14055:14474   */\n    tag_84:\n        /* \"#utility.yul\":14221:14225   */\n      0x00\n        /* \"#utility.yul\":14259:14261   */\n      0x20\n        /* \"#utility.yul\":14248:14257   */\n      dup3\n        /* \"#utility.yul\":14244:14262   */\n      add\n        /* \"#utility.yul\":14236:14262   */\n      swap1\n      pop\n        /* \"#utility.yul\":14308:14317   */\n      dup2\n        /* \"#utility.yul\":14302:14306   */\n      dup2\n        /* \"#utility.yul\":14298:14318   */\n      sub\n        /* \"#utility.yul\":14294:14295   */\n      0x00\n        /* \"#utility.yul\":14283:14292   */\n      dup4\n        /* \"#utility.yul\":14279:14296   */\n      add\n        /* \"#utility.yul\":14272:14319   */\n      mstore\n        /* \"#utility.yul\":14336:14467   */\n      tag_329\n        /* \"#utility.yul\":14462:14466   */\n      dup2\n        /* \"#utility.yul\":14336:14467   */\n      tag_163\n      jump\t// in\n    tag_329:\n        /* \"#utility.yul\":14328:14467   */\n      swap1\n      pop\n        /* \"#utility.yul\":14055:14474   */\n      swap2\n      swap1\n      pop\n      jump\t// out\n        /* \"#utility.yul\":14480:14700   */\n    tag_164:\n        /* \"#utility.yul\":14620:14654   */\n      0x20416d6f756e74206d7573742062652067726561746572207468616e207a6572\n        /* \"#utility.yul\":14616:14617   */\n      0x00\n        /* \"#utility.yul\":14608:14614   */\n      dup3\n        /* \"#utility.yul\":14604:14618   */\n      add\n        /* \"#utility.yul\":14597:14655   */\n      mstore\n        /* \"#utility.yul\":14689:14692   */\n      0x6f00000000000000000000000000000000000000000000000000000000000000\n        /* \"#utility.yul\":14684:14686   */\n      0x20\n        /* \"#utility.yul\":14676:14682   */\n      dup3\n        /* \"#utility.yul\":14672:14687   */\n      add\n        /* \"#utility.yul\":14665:14693   */\n      mstore\n        /* \"#utility.yul\":14480:14700   */\n      pop\n      jump\t// out\n        /* \"#utility.yul\":14706:15072   */\n    tag_165:\n        /* \"#utility.yul\":14848:14851   */\n      0x00\n        /* \"#utility.yul\":14869:14936   */\n      tag_332\n        /* \"#utility.yul\":14933:14935   */\n      0x21\n        /* \"#utility.yul\":14928:14931   */\n      dup4\n        /* \"#utility.yul\":14869:14936   */\n      tag_161\n      jump\t// in\n    tag_332:\n        /* \"#utility.yul\":14862:14936   */\n      swap2\n      pop\n        /* \"#utility.yul\":14945:15038   */\n      tag_333\n        /* \"#utility.yul\":15034:15037   */\n      dup3\n        /* \"#utility.yul\":14945:15038   */\n      tag_164\n      jump\t// in\n    tag_333:\n        /* \"#utility.yul\":15063:15065   */\n      0x40\n        /* \"#utility.yul\":15058:15061   */\n      dup3\n        /* \"#utility.yul\":15054:15066   */\n      add\n        /* \"#utility.yul\":15047:15066   */\n      swap1\n      pop\n        /* \"#utility.yul\":14706:15072   */\n      swap2\n      swap1\n      pop\n      jump\t// out\n        /* \"#utility.yul\":15078:15497   */\n    tag_87:\n        /* \"#utility.yul\":15244:15248   */\n      0x00\n        /* \"#utility.yul\":15282:15284   */\n      0x20\n        /* \"#utility.yul\":15271:15280   */\n      dup3\n        /* \"#utility.yul\":15267:15285   */\n      add\n        /* \"#utility.yul\":15259:15285   */\n      swap1\n      pop\n        /* \"#utility.yul\":15331:15340   */\n      dup2\n        /* \"#utility.yul\":15325:15329   */\n      dup2\n        /* \"#utility.yul\":15321:15341   */\n      sub\n        /* \"#utility.yul\":15317:15318   */\n      0x00\n        /* \"#utility.yul\":15306:15315   */\n      dup4\n        /* \"#utility.yul\":15302:15319   */\n      add\n        /* \"#utility.yul\":15295:15342   */\n      mstore\n        /* \"#utility.yul\":15359:15490   */\n      tag_335\n        /* \"#utility.yul\":15485:15489   */\n      dup2\n        /* \"#utility.yul\":15359:15490   */\n      tag_165\n      jump\t// in\n    tag_335:\n        /* \"#utility.yul\":15351:15490   */\n      swap1\n      pop\n        /* \"#utility.yul\":15078:15497   */\n      swap2\n      swap1\n      pop\n      jump\t// out\n        /* \"#utility.yul\":15503:15945   */\n    tag_89:\n        /* \"#utility.yul\":15652:15656   */\n      0x00\n        /* \"#utility.yul\":15690:15692   */\n      0x60\n        /* \"#utility.yul\":15679:15688   */\n      dup3\n        /* \"#utility.yul\":15675:15693   */\n      add\n        /* \"#utility.yul\":15667:15693   */\n      swap1\n      pop\n        /* \"#utility.yul\":15703:15774   */\n      tag_337\n        /* \"#utility.yul\":15771:15772   */\n      0x00\n        /* \"#utility.yul\":15760:15769   */\n      dup4\n        /* \"#utility.yul\":15756:15773   */\n      add\n        /* \"#utility.yul\":15747:15753   */\n      dup7\n        /* \"#utility.yul\":15703:15774   */\n      tag_147\n      jump\t// in\n    tag_337:\n        /* \"#utility.yul\":15784:15856   */\n      tag_338\n        /* \"#utility.yul\":15852:15854   */\n      0x20\n        /* \"#utility.yul\":15841:15850   */\n      dup4\n        /* \"#utility.yul\":15837:15855   */\n      add\n        /* \"#utility.yul\":15828:15834   */\n      dup6\n        /* \"#utility.yul\":15784:15856   */\n      tag_147\n      jump\t// in\n    tag_338:\n        /* \"#utility.yul\":15866:15938   */\n      tag_339\n        /* \"#utility.yul\":15934:15936   */\n      0x40\n        /* \"#utility.yul\":15923:15932   */\n      dup4\n        /* \"#utility.yul\":15919:15937   */\n      add\n        /* \"#utility.yul\":15910:15916   */\n      dup5\n        /* \"#utility.yul\":15866:15938   */\n      tag_139\n      jump\t// in\n    tag_339:\n        /* \"#utility.yul\":15503:15945   */\n      swap5\n      swap4\n      pop\n      pop\n      pop\n      pop\n      jump\t// out\n        /* \"#utility.yul\":15951:16041   */\n    tag_166:\n        /* \"#utility.yul\":15985:15992   */\n      0x00\n        /* \"#utility.yul\":16028:16033   */\n      dup2\n        /* \"#utility.yul\":16021:16034   */\n      iszero\n        /* \"#utility.yul\":16014:16035   */\n      iszero\n        /* \"#utility.yul\":16003:16035   */\n      swap1\n      pop\n        /* \"#utility.yul\":15951:16041   */\n      swap2\n      swap1\n      pop\n      jump\t// out\n        /* \"#utility.yul\":16047:16163   */\n    tag_167:\n        /* \"#utility.yul\":16117:16138   */\n      tag_342\n        /* \"#utility.yul\":16132:16137   */\n      dup2\n        /* \"#utility.yul\":16117:16138   */\n      tag_166\n      jump\t// in\n    tag_342:\n        /* \"#utility.yul\":16110:16115   */\n      dup2\n        /* \"#utility.yul\":16107:16139   */\n      eq\n        /* \"#utility.yul\":16097:16157   */\n      tag_343\n      jumpi\n        /* \"#utility.yul\":16153:16154   */\n      0x00\n        /* \"#utility.yul\":16150:16151   */\n      dup1\n        /* \"#utility.yul\":16143:16155   */\n      revert\n        /* \"#utility.yul\":16097:16157   */\n    tag_343:\n        /* \"#utility.yul\":16047:16163   */\n      pop\n      jump\t// out\n        /* \"#utility.yul\":16169:16306   */\n    tag_168:\n        /* \"#utility.yul\":16223:16228   */\n      0x00\n        /* \"#utility.yul\":16254:16260   */\n      dup2\n        /* \"#utility.yul\":16248:16261   */\n      mload\n        /* \"#utility.yul\":16239:16261   */\n      swap1\n      pop\n        /* \"#utility.yul\":16270:16300   */\n      tag_345\n        /* \"#utility.yul\":16294:16299   */\n      dup2\n        /* \"#utility.yul\":16270:16300   */\n      tag_167\n      jump\t// in\n    tag_345:\n        /* \"#utility.yul\":16169:16306   */\n      swap3\n      swap2\n      pop\n      pop\n      jump\t// out\n        /* \"#utility.yul\":16312:16657   */\n    tag_93:\n        /* \"#utility.yul\":16379:16385   */\n      0x00\n        /* \"#utility.yul\":16428:16430   */\n      0x20\n        /* \"#utility.yul\":16416:16425   */\n      dup3\n        /* \"#utility.yul\":16407:16414   */\n      dup5\n        /* \"#utility.yul\":16403:16426   */\n      sub\n        /* \"#utility.yul\":16399:16431   */\n      slt\n        /* \"#utility.yul\":16396:16515   */\n      iszero\n      tag_347\n      jumpi\n        /* \"#utility.yul\":16434:16513   */\n      tag_348\n      tag_123\n      jump\t// in\n    tag_348:\n        /* \"#utility.yul\":16396:16515   */\n    tag_347:\n        /* \"#utility.yul\":16554:16555   */\n      0x00\n        /* \"#utility.yul\":16579:16640   */\n      tag_349\n        /* \"#utility.yul\":16632:16639   */\n      dup5\n        /* \"#utility.yul\":16623:16629   */\n      dup3\n        /* \"#utility.yul\":16612:16621   */\n      dup6\n        /* \"#utility.yul\":16608:16630   */\n      add\n        /* \"#utility.yul\":16579:16640   */\n      tag_168\n      jump\t// in\n    tag_349:\n        /* \"#utility.yul\":16569:16640   */\n      swap2\n      pop\n        /* \"#utility.yul\":16525:16650   */\n      pop\n        /* \"#utility.yul\":16312:16657   */\n      swap3\n      swap2\n      pop\n      pop\n      jump\t// out\n        /* \"#utility.yul\":16663:16837   */\n    tag_169:\n        /* \"#utility.yul\":16803:16829   */\n      0x696e76616c6964207369676e6174757265206c656e6774680000000000000000\n        /* \"#utility.yul\":16799:16800   */\n      0x00\n        /* \"#utility.yul\":16791:16797   */\n      dup3\n        /* \"#utility.yul\":16787:16801   */\n      add\n        /* \"#utility.yul\":16780:16830   */\n      mstore\n        /* \"#utility.yul\":16663:16837   */\n      pop\n      jump\t// out\n        /* \"#utility.yul\":16843:17209   */\n    tag_170:\n        /* \"#utility.yul\":16985:16988   */\n      0x00\n        /* \"#utility.yul\":17006:17073   */\n      tag_352\n        /* \"#utility.yul\":17070:17072   */\n      0x18\n        /* \"#utility.yul\":17065:17068   */\n      dup4\n        /* \"#utility.yul\":17006:17073   */\n      tag_161\n      jump\t// in\n    tag_352:\n        /* \"#utility.yul\":16999:17073   */\n      swap2\n      pop\n        /* \"#utility.yul\":17082:17175   */\n      tag_353\n        /* \"#utility.yul\":17171:17174   */\n      dup3\n        /* \"#utility.yul\":17082:17175   */\n      tag_169\n      jump\t// in\n    tag_353:\n        /* \"#utility.yul\":17200:17202   */\n      0x20\n        /* \"#utility.yul\":17195:17198   */\n      dup3\n        /* \"#utility.yul\":17191:17203   */\n      add\n        /* \"#utility.yul\":17184:17203   */\n      swap1\n      pop\n        /* \"#utility.yul\":16843:17209   */\n      swap2\n      swap1\n      pop\n      jump\t// out\n        /* \"#utility.yul\":17215:17634   */\n    tag_99:\n        /* \"#utility.yul\":17381:17385   */\n      0x00\n        /* \"#utility.yul\":17419:17421   */\n      0x20\n        /* \"#utility.yul\":17408:17417   */\n      dup3\n        /* \"#utility.yul\":17404:17422   */\n      add\n        /* \"#utility.yul\":17396:17422   */\n      swap1\n      pop\n        /* \"#utility.yul\":17468:17477   */\n      dup2\n        /* \"#utility.yul\":17462:17466   */\n      dup2\n        /* \"#utility.yul\":17458:17478   */\n      sub\n        /* \"#utility.yul\":17454:17455   */\n      0x00\n        /* \"#utility.yul\":17443:17452   */\n      dup4\n        /* \"#utility.yul\":17439:17456   */\n      add\n        /* \"#utility.yul\":17432:17479   */\n      mstore\n        /* \"#utility.yul\":17496:17627   */\n      tag_355\n        /* \"#utility.yul\":17622:17626   */\n      dup2\n        /* \"#utility.yul\":17496:17627   */\n      tag_170\n      jump\t// in\n    tag_355:\n        /* \"#utility.yul\":17488:17627   */\n      swap1\n      pop\n        /* \"#utility.yul\":17215:17634   */\n      swap2\n      swap1\n      pop\n      jump\t// out\n        /* \"#utility.yul\":17640:17820   */\n    tag_171:\n        /* \"#utility.yul\":17688:17765   */\n      0x4e487b7100000000000000000000000000000000000000000000000000000000\n        /* \"#utility.yul\":17685:17686   */\n      0x00\n        /* \"#utility.yul\":17678:17766   */\n      mstore\n        /* \"#utility.yul\":17785:17789   */\n      0x22\n        /* \"#utility.yul\":17782:17783   */\n      0x04\n        /* \"#utility.yul\":17775:17790   */\n      mstore\n        /* \"#utility.yul\":17809:17813   */\n      0x24\n        /* \"#utility.yul\":17806:17807   */\n      0x00\n        /* \"#utility.yul\":17799:17814   */\n      revert\n        /* \"#utility.yul\":17826:18146   */\n    tag_101:\n        /* \"#utility.yul\":17870:17876   */\n      0x00\n        /* \"#utility.yul\":17907:17908   */\n      0x02\n        /* \"#utility.yul\":17901:17905   */\n      dup3\n        /* \"#utility.yul\":17897:17909   */\n      div\n        /* \"#utility.yul\":17887:17909   */\n      swap1\n      pop\n        /* \"#utility.yul\":17954:17955   */\n      0x01\n        /* \"#utility.yul\":17948:17952   */\n      dup3\n        /* \"#utility.yul\":17944:17956   */\n      and\n        /* \"#utility.yul\":17975:17993   */\n      dup1\n        /* \"#utility.yul\":17965:18046   */\n      tag_358\n      jumpi\n        /* \"#utility.yul\":18031:18035   */\n      0x7f\n        /* \"#utility.yul\":18023:18029   */\n      dup3\n        /* \"#utility.yul\":18019:18036   */\n      and\n        /* \"#utility.yul\":18009:18036   */\n      swap2\n      pop\n        /* \"#utility.yul\":17965:18046   */\n    tag_358:\n        /* \"#utility.yul\":18093:18095   */\n      0x20\n        /* \"#utility.yul\":18085:18091   */\n      dup3\n        /* \"#utility.yul\":18082:18096   */\n      lt\n        /* \"#utility.yul\":18062:18080   */\n      dup2\n        /* \"#utility.yul\":18059:18097   */\n      sub\n        /* \"#utility.yul\":18056:18140   */\n      tag_359\n      jumpi\n        /* \"#utility.yul\":18112:18130   */\n      tag_360\n      tag_171\n      jump\t// in\n    tag_360:\n        /* \"#utility.yul\":18056:18140   */\n    tag_359:\n        /* \"#utility.yul\":17877:18146   */\n      pop\n        /* \"#utility.yul\":17826:18146   */\n      swap2\n      swap1\n      pop\n      jump\t// out\n        /* \"#utility.yul\":18152:18377   */\n    tag_172:\n        /* \"#utility.yul\":18292:18326   */\n      0x4f776e61626c653a206e6577206f776e657220697320746865207a65726f2061\n        /* \"#utility.yul\":18288:18289   */\n      0x00\n        /* \"#utility.yul\":18280:18286   */\n      dup3\n        /* \"#utility.yul\":18276:18290   */\n      add\n        /* \"#utility.yul\":18269:18327   */\n      mstore\n        /* \"#utility.yul\":18361:18369   */\n      0x6464726573730000000000000000000000000000000000000000000000000000\n        /* \"#utility.yul\":18356:18358   */\n      0x20\n        /* \"#utility.yul\":18348:18354   */\n      dup3\n        /* \"#utility.yul\":18344:18359   */\n      add\n        /* \"#utility.yul\":18337:18370   */\n      mstore\n        /* \"#utility.yul\":18152:18377   */\n      pop\n      jump\t// out\n        /* \"#utility.yul\":18383:18749   */\n    tag_173:\n        /* \"#utility.yul\":18525:18528   */\n      0x00\n        /* \"#utility.yul\":18546:18613   */\n      tag_363\n        /* \"#utility.yul\":18610:18612   */\n      0x26\n        /* \"#utility.yul\":18605:18608   */\n      dup4\n        /* \"#utility.yul\":18546:18613   */\n      tag_161\n      jump\t// in\n    tag_363:\n        /* \"#utility.yul\":18539:18613   */\n      swap2\n      pop\n        /* \"#utility.yul\":18622:18715   */\n      tag_364\n        /* \"#utility.yul\":18711:18714   */\n      dup3\n        /* \"#utility.yul\":18622:18715   */\n      tag_172\n      jump\t// in\n    tag_364:\n        /* \"#utility.yul\":18740:18742   */\n      0x40\n        /* \"#utility.yul\":18735:18738   */\n      dup3\n        /* \"#utility.yul\":18731:18743   */\n      add\n        /* \"#utility.yul\":18724:18743   */\n      swap1\n      pop\n        /* \"#utility.yul\":18383:18749   */\n      swap2\n      swap1\n      pop\n      jump\t// out\n        /* \"#utility.yul\":18755:19174   */\n    tag_111:\n        /* \"#utility.yul\":18921:18925   */\n      0x00\n        /* \"#utility.yul\":18959:18961   */\n      0x20\n        /* \"#utility.yul\":18948:18957   */\n      dup3\n        /* \"#utility.yul\":18944:18962   */\n      add\n        /* \"#utility.yul\":18936:18962   */\n      swap1\n      pop\n        /* \"#utility.yul\":19008:19017   */\n      dup2\n        /* \"#utility.yul\":19002:19006   */\n      dup2\n        /* \"#utility.yul\":18998:19018   */\n      sub\n        /* \"#utility.yul\":18994:18995   */\n      0x00\n        /* \"#utility.yul\":18983:18992   */\n      dup4\n        /* \"#utility.yul\":18979:18996   */\n      add\n        /* \"#utility.yul\":18972:19019   */\n      mstore\n        /* \"#utility.yul\":19036:19167   */\n      tag_366\n        /* \"#utility.yul\":19162:19166   */\n      dup2\n        /* \"#utility.yul\":19036:19167   */\n      tag_173\n      jump\t// in\n    tag_366:\n        /* \"#utility.yul\":19028:19167   */\n      swap1\n      pop\n        /* \"#utility.yul\":18755:19174   */\n      swap2\n      swap1\n      pop\n      jump\t// out\n        /* \"#utility.yul\":19180:19362   */\n    tag_174:\n        /* \"#utility.yul\":19320:19354   */\n      0x4f776e61626c653a2063616c6c6572206973206e6f7420746865206f776e6572\n        /* \"#utility.yul\":19316:19317   */\n      0x00\n        /* \"#utility.yul\":19308:19314   */\n      dup3\n        /* \"#utility.yul\":19304:19318   */\n      add\n        /* \"#utility.yul\":19297:19355   */\n      mstore\n        /* \"#utility.yul\":19180:19362   */\n      pop\n      jump\t// out\n        /* \"#utility.yul\":19368:19734   */\n    tag_175:\n        /* \"#utility.yul\":19510:19513   */\n      0x00\n        /* \"#utility.yul\":19531:19598   */\n      tag_369\n        /* \"#utility.yul\":19595:19597   */\n      0x20\n        /* \"#utility.yul\":19590:19593   */\n      dup4\n        /* \"#utility.yul\":19531:19598   */\n      tag_161\n      jump\t// in\n    tag_369:\n        /* \"#utility.yul\":19524:19598   */\n      swap2\n      pop\n        /* \"#utility.yul\":19607:19700   */\n      tag_370\n        /* \"#utility.yul\":19696:19699   */\n      dup3\n        /* \"#utility.yul\":19607:19700   */\n      tag_174\n      jump\t// in\n    tag_370:\n        /* \"#utility.yul\":19725:19727   */\n      0x20\n        /* \"#utility.yul\":19720:19723   */\n      dup3\n        /* \"#utility.yul\":19716:19728   */\n      add\n        /* \"#utility.yul\":19709:19728   */\n      swap1\n      pop\n        /* \"#utility.yul\":19368:19734   */\n      swap2\n      swap1\n      pop\n      jump\t// out\n        /* \"#utility.yul\":19740:20159   */\n    tag_119:\n        /* \"#utility.yul\":19906:19910   */\n      0x00\n        /* \"#utility.yul\":19944:19946   */\n      0x20\n        /* \"#utility.yul\":19933:19942   */\n      dup3\n        /* \"#utility.yul\":19929:19947   */\n      add\n        /* \"#utility.yul\":19921:19947   */\n      swap1\n      pop\n        /* \"#utility.yul\":19993:20002   */\n      dup2\n        /* \"#utility.yul\":19987:19991   */\n      dup2\n        /* \"#utility.yul\":19983:20003   */\n      sub\n        /* \"#utility.yul\":19979:19980   */\n      0x00\n        /* \"#utility.yul\":19968:19977   */\n      dup4\n        /* \"#utility.yul\":19964:19981   */\n      add\n        /* \"#utility.yul\":19957:20004   */\n      mstore\n        /* \"#utility.yul\":20021:20152   */\n      tag_372\n        /* \"#utility.yul\":20147:20151   */\n      dup2\n        /* \"#utility.yul\":20021:20152   */\n      tag_175\n      jump\t// in\n    tag_372:\n        /* \"#utility.yul\":20013:20152   */\n      swap1\n      pop\n        /* \"#utility.yul\":19740:20159   */\n      swap2\n      swap1\n      pop\n      jump\t// out\n\n    auxdata: 0xa2646970667358221220fd3732280e233faca056c49c4fbd9ab00c09bad670e293c4b50e226f6d652bb764736f6c63430008120033\n}\n",
				"bytecode": {
					"linkReferences": {},
					"object": "60806040523480156200001157600080fd5b506040516200159a3803806200159a833981810160405281019062000037919062000282565b620000576200004b6200013f60201b60201c565b6200014760201b60201c565b7f8cad95687ba82c2ce50e74f7b754645e5117c3a5bec8151c0726d5857980a8666040518060400160405280601281526020017f4f7374726963684d61726b6574706c616365000000000000000000000000000081525080519060200120620000c56200020b60201b60201c565b30604051602001620000db9493929190620002fb565b6040516020818303038152906040528051906020012060048190555080600160006101000a81548173ffffffffffffffffffffffffffffffffffffffff021916908373ffffffffffffffffffffffffffffffffffffffff1602179055505062000348565b600033905090565b60008060009054906101000a900473ffffffffffffffffffffffffffffffffffffffff169050816000806101000a81548173ffffffffffffffffffffffffffffffffffffffff021916908373ffffffffffffffffffffffffffffffffffffffff1602179055508173ffffffffffffffffffffffffffffffffffffffff168173ffffffffffffffffffffffffffffffffffffffff167f8be0079c531659141344cd1fd0a4f28419497f9722a3daafe3b4186f6b6457e060405160405180910390a35050565b6000804690508091505090565b600080fd5b600073ffffffffffffffffffffffffffffffffffffffff82169050919050565b60006200024a826200021d565b9050919050565b6200025c816200023d565b81146200026857600080fd5b50565b6000815190506200027c8162000251565b92915050565b6000602082840312156200029b576200029a62000218565b5b6000620002ab848285016200026b565b91505092915050565b6000819050919050565b620002c981620002b4565b82525050565b6000819050919050565b620002e481620002cf565b82525050565b620002f5816200023d565b82525050565b6000608082019050620003126000830187620002be565b620003216020830186620002be565b620003306040830185620002d9565b6200033f6060830184620002ea565b95945050505050565b61124280620003586000396000f3fe6080604052600436106100a75760003560e01c80639bd0e9e9116100645780639bd0e9e91461017a578063c0993eea146101b9578063de74e57b146101e4578063e9f76b1114610226578063f2fde38b14610251578063fc0c546a1461027a576100a7565b80635d76a9b7146100ac5780636c2c9c7d146100c8578063715018a6146100f35780637f6d6df91461010a5780638885d395146101335780638da5cb5b1461014f575b600080fd5b6100c660048036038101906100c19190610979565b6102a5565b005b3480156100d457600080fd5b506100dd6102a8565b6040516100ea91906109b5565b60405180910390f35b3480156100ff57600080fd5b506101086102ae565b005b34801561011657600080fd5b50610131600480360381019061012c91906109d0565b6102c2565b005b61014d60048036038101906101489190610b86565b6103ef565b005b34801561015b57600080fd5b506101646103f3565b6040516101719190610bf1565b60405180910390f35b34801561018657600080fd5b506101a1600480360381019061019c9190610c0c565b61041c565b6040516101b093929190610c8a565b60405180910390f35b3480156101c557600080fd5b506101ce610484565b6040516101db9190610cc1565b60405180910390f35b3480156101f057600080fd5b5061020b60048036038101906102069190610cdc565b6104a8565b60405161021d96959493929190610d88565b60405180910390f35b34801561023257600080fd5b5061023b6105ac565b6040516102489190610cc1565b60405180910390f35b34801561025d57600080fd5b5061027860048036038101906102739190610df0565b6105d0565b005b34801561028657600080fd5b5061028f610653565b60405161029c9190610e7c565b60405180910390f35b50565b60035481565b6102b6610679565b6102c060006106f7565b565b60008211610305576040517f08c379a00000000000000000000000000000000000000000000000000000000081526004016102fc90610ef4565b60405180910390fd5b60008111610348576040517f08c379a000000000000000000000000000000000000000000000000000000000815260040161033f90610f86565b60405180910390fd5b600160009054906101000a900473ffffffffffffffffffffffffffffffffffffffff1673ffffffffffffffffffffffffffffffffffffffff166323b872dd3330846040518463ffffffff1660e01b81526004016103a793929190610fa6565b6020604051808303816000875af11580156103c6573d6000803e3d6000fd5b505050506040513d601f19601f820116820180604052508101906103ea9190611015565b505050565b5050565b60008060009054906101000a900473ffffffffffffffffffffffffffffffffffffffff16905090565b60008060006041845114610465576040517f08c379a000000000000000000000000000000000000000000000000000000000815260040161045c9061108e565b60405180910390fd5b6020840151925060408401519150606084015160001a90509193909250565b7f8cad95687ba82c2ce50e74f7b754645e5117c3a5bec8151c0726d5857980a86681565b60026020528060005260406000206000915090508060000154908060010154908060020160009054906101000a900473ffffffffffffffffffffffffffffffffffffffff16908060030160009054906101000a900473ffffffffffffffffffffffffffffffffffffffff1690806004015490806005018054610529906110dd565b80601f0160208091040260200160405190810160405280929190818152602001828054610555906110dd565b80156105a25780601f10610577576101008083540402835291602001916105a2565b820191906000526020600020905b81548152906001019060200180831161058557829003601f168201915b5050505050905086565b7f6bdd9be91e63e6b04e968850336c5bb0da40d05ed377a7db5c1db94861bc0f9281565b6105d8610679565b600073ffffffffffffffffffffffffffffffffffffffff168173ffffffffffffffffffffffffffffffffffffffff1603610647576040517f08c379a000000000000000000000000000000000000000000000000000000000815260040161063e90611180565b60405180910390fd5b610650816106f7565b50565b600160009054906101000a900473ffffffffffffffffffffffffffffffffffffffff1681565b6106816107bb565b73ffffffffffffffffffffffffffffffffffffffff1661069f6103f3565b73ffffffffffffffffffffffffffffffffffffffff16146106f5576040517f08c379a00000000000000000000000000000000000000000000000000000000081526004016106ec906111ec565b60405180910390fd5b565b60008060009054906101000a900473ffffffffffffffffffffffffffffffffffffffff169050816000806101000a81548173ffffffffffffffffffffffffffffffffffffffff021916908373ffffffffffffffffffffffffffffffffffffffff1602179055508173ffffffffffffffffffffffffffffffffffffffff168173ffffffffffffffffffffffffffffffffffffffff167f8be0079c531659141344cd1fd0a4f28419497f9722a3daafe3b4186f6b6457e060405160405180910390a35050565b600033905090565b6000604051905090565b600080fd5b600080fd5b600080fd5b6000601f19601f8301169050919050565b7f4e487b7100000000000000000000000000000000000000000000000000000000600052604160045260246000fd5b610825826107dc565b810181811067ffffffffffffffff82111715610844576108436107ed565b5b80604052505050565b60006108576107c3565b9050610863828261081c565b919050565b600080fd5b6000819050919050565b6108808161086d565b811461088b57600080fd5b50565b60008135905061089d81610877565b92915050565b600073ffffffffffffffffffffffffffffffffffffffff82169050919050565b60006108ce826108a3565b9050919050565b6108de816108c3565b81146108e957600080fd5b50565b6000813590506108fb816108d5565b92915050565b600060808284031215610917576109166107d7565b5b610921608061084d565b905060006109318482850161088e565b60008301525060206109458482850161088e565b6020830152506040610959848285016108ec565b604083015250606061096d8482850161088e565b60608301525092915050565b60006080828403121561098f5761098e6107cd565b5b600061099d84828501610901565b91505092915050565b6109af8161086d565b82525050565b60006020820190506109ca60008301846109a6565b92915050565b600080604083850312156109e7576109e66107cd565b5b60006109f58582860161088e565b9250506020610a068582860161088e565b9150509250929050565b600080fd5b600080fd5b600067ffffffffffffffff821115610a3557610a346107ed565b5b610a3e826107dc565b9050602081019050919050565b82818337600083830152505050565b6000610a6d610a6884610a1a565b61084d565b905082815260208101848484011115610a8957610a88610a15565b5b610a94848285610a4b565b509392505050565b600082601f830112610ab157610ab0610a10565b5b8135610ac1848260208601610a5a565b91505092915050565b600060c08284031215610ae057610adf6107d7565b5b610aea60c061084d565b90506000610afa8482850161088e565b6000830152506020610b0e8482850161088e565b6020830152506040610b22848285016108ec565b6040830152506060610b36848285016108ec565b6060830152506080610b4a8482850161088e565b60808301525060a082013567ffffffffffffffff811115610b6e57610b6d610868565b5b610b7a84828501610a9c565b60a08301525092915050565b60008060408385031215610b9d57610b9c6107cd565b5b600083013567ffffffffffffffff811115610bbb57610bba6107d2565b5b610bc785828601610aca565b9250506020610bd88582860161088e565b9150509250929050565b610beb816108c3565b82525050565b6000602082019050610c066000830184610be2565b92915050565b600060208284031215610c2257610c216107cd565b5b600082013567ffffffffffffffff811115610c4057610c3f6107d2565b5b610c4c84828501610a9c565b91505092915050565b6000819050919050565b610c6881610c55565b82525050565b600060ff82169050919050565b610c8481610c6e565b82525050565b6000606082019050610c9f6000830186610c5f565b610cac6020830185610c5f565b610cb96040830184610c7b565b949350505050565b6000602082019050610cd66000830184610c5f565b92915050565b600060208284031215610cf257610cf16107cd565b5b6000610d008482850161088e565b91505092915050565b600081519050919050565b600082825260208201905092915050565b60005b83811015610d43578082015181840152602081019050610d28565b60008484015250505050565b6000610d5a82610d09565b610d648185610d14565b9350610d74818560208601610d25565b610d7d816107dc565b840191505092915050565b600060c082019050610d9d60008301896109a6565b610daa60208301886109a6565b610db76040830187610be2565b610dc46060830186610be2565b610dd160808301856109a6565b81810360a0830152610de38184610d4f565b9050979650505050505050565b600060208284031215610e0657610e056107cd565b5b6000610e14848285016108ec565b91505092915050565b6000819050919050565b6000610e42610e3d610e38846108a3565b610e1d565b6108a3565b9050919050565b6000610e5482610e27565b9050919050565b6000610e6682610e49565b9050919050565b610e7681610e5b565b82525050565b6000602082019050610e916000830184610e6d565b92915050565b600082825260208201905092915050565b7f5072696365206d7573742062652067726561746572207468616e207a65726f00600082015250565b6000610ede601f83610e97565b9150610ee982610ea8565b602082019050919050565b60006020820190508181036000830152610f0d81610ed1565b9050919050565b7f20416d6f756e74206d7573742062652067726561746572207468616e207a657260008201527f6f00000000000000000000000000000000000000000000000000000000000000602082015250565b6000610f70602183610e97565b9150610f7b82610f14565b604082019050919050565b60006020820190508181036000830152610f9f81610f63565b9050919050565b6000606082019050610fbb6000830186610be2565b610fc86020830185610be2565b610fd560408301846109a6565b949350505050565b60008115159050919050565b610ff281610fdd565b8114610ffd57600080fd5b50565b60008151905061100f81610fe9565b92915050565b60006020828403121561102b5761102a6107cd565b5b600061103984828501611000565b91505092915050565b7f696e76616c6964207369676e6174757265206c656e6774680000000000000000600082015250565b6000611078601883610e97565b915061108382611042565b602082019050919050565b600060208201905081810360008301526110a78161106b565b9050919050565b7f4e487b7100000000000000000000000000000000000000000000000000000000600052602260045260246000fd5b600060028204905060018216806110f557607f821691505b602082108103611108576111076110ae565b5b50919050565b7f4f776e61626c653a206e6577206f776e657220697320746865207a65726f206160008201527f6464726573730000000000000000000000000000000000000000000000000000602082015250565b600061116a602683610e97565b91506111758261110e565b604082019050919050565b600060208201905081810360008301526111998161115d565b9050919050565b7f4f776e61626c653a2063616c6c6572206973206e6f7420746865206f776e6572600082015250565b60006111d6602083610e97565b91506111e1826111a0565b602082019050919050565b60006020820190508181036000830152611205816111c9565b905091905056fea2646970667358221220fd3732280e233faca056c49c4fbd9ab00c09bad670e293c4b50e226f6d652bb764736f6c63430008120033",
					"opcodes": "PUSH1 0x80 PUSH1 0x40 MSTORE CALLVALUE DUP1 ISZERO PUSH3 0x11 JUMPI PUSH1 0x0 DUP1 REVERT JUMPDEST POP PUSH1 0x40 MLOAD PUSH3 0x159A CODESIZE SUB DUP1 PUSH3 0x159A DUP4 CODECOPY DUP2 DUP2 ADD PUSH1 0x40 MSTORE DUP2 ADD SWAP1 PUSH3 0x37 SWAP2 SWAP1 PUSH3 0x282 JUMP JUMPDEST PUSH3 0x57 PUSH3 0x4B PUSH3 0x13F PUSH1 0x20 SHL PUSH1 0x20 SHR JUMP JUMPDEST PUSH3 0x147 PUSH1 0x20 SHL PUSH1 0x20 SHR JUMP JUMPDEST PUSH32 0x8CAD95687BA82C2CE50E74F7B754645E5117C3A5BEC8151C0726D5857980A866 PUSH1 0x40 MLOAD DUP1 PUSH1 0x40 ADD PUSH1 0x40 MSTORE DUP1 PUSH1 0x12 DUP2 MSTORE PUSH1 0x20 ADD PUSH32 0x4F7374726963684D61726B6574706C6163650000000000000000000000000000 DUP2 MSTORE POP DUP1 MLOAD SWAP1 PUSH1 0x20 ADD KECCAK256 PUSH3 0xC5 PUSH3 0x20B PUSH1 0x20 SHL PUSH1 0x20 SHR JUMP JUMPDEST ADDRESS PUSH1 0x40 MLOAD PUSH1 0x20 ADD PUSH3 0xDB SWAP5 SWAP4 SWAP3 SWAP2 SWAP1 PUSH3 0x2FB JUMP JUMPDEST PUSH1 0x40 MLOAD PUSH1 0x20 DUP2 DUP4 SUB SUB DUP2 MSTORE SWAP1 PUSH1 0x40 MSTORE DUP1 MLOAD SWAP1 PUSH1 0x20 ADD KECCAK256 PUSH1 0x4 DUP2 SWAP1 SSTORE POP DUP1 PUSH1 0x1 PUSH1 0x0 PUSH2 0x100 EXP DUP2 SLOAD DUP2 PUSH20 0xFFFFFFFFFFFFFFFFFFFFFFFFFFFFFFFFFFFFFFFF MUL NOT AND SWAP1 DUP4 PUSH20 0xFFFFFFFFFFFFFFFFFFFFFFFFFFFFFFFFFFFFFFFF AND MUL OR SWAP1 SSTORE POP POP PUSH3 0x348 JUMP JUMPDEST PUSH1 0x0 CALLER SWAP1 POP SWAP1 JUMP JUMPDEST PUSH1 0x0 DUP1 PUSH1 0x0 SWAP1 SLOAD SWAP1 PUSH2 0x100 EXP SWAP1 DIV PUSH20 0xFFFFFFFFFFFFFFFFFFFFFFFFFFFFFFFFFFFFFFFF AND SWAP1 POP DUP2 PUSH1 0x0 DUP1 PUSH2 0x100 EXP DUP2 SLOAD DUP2 PUSH20 0xFFFFFFFFFFFFFFFFFFFFFFFFFFFFFFFFFFFFFFFF MUL NOT AND SWAP1 DUP4 PUSH20 0xFFFFFFFFFFFFFFFFFFFFFFFFFFFFFFFFFFFFFFFF AND MUL OR SWAP1 SSTORE POP DUP2 PUSH20 0xFFFFFFFFFFFFFFFFFFFFFFFFFFFFFFFFFFFFFFFF AND DUP2 PUSH20 0xFFFFFFFFFFFFFFFFFFFFFFFFFFFFFFFFFFFFFFFF AND PUSH32 0x8BE0079C531659141344CD1FD0A4F28419497F9722A3DAAFE3B4186F6B6457E0 PUSH1 0x40 MLOAD PUSH1 0x40 MLOAD DUP1 SWAP2 SUB SWAP1 LOG3 POP POP JUMP JUMPDEST PUSH1 0x0 DUP1 CHAINID SWAP1 POP DUP1 SWAP2 POP POP SWAP1 JUMP JUMPDEST PUSH1 0x0 DUP1 REVERT JUMPDEST PUSH1 0x0 PUSH20 0xFFFFFFFFFFFFFFFFFFFFFFFFFFFFFFFFFFFFFFFF DUP3 AND SWAP1 POP SWAP2 SWAP1 POP JUMP JUMPDEST PUSH1 0x0 PUSH3 0x24A DUP3 PUSH3 0x21D JUMP JUMPDEST SWAP1 POP SWAP2 SWAP1 POP JUMP JUMPDEST PUSH3 0x25C DUP2 PUSH3 0x23D JUMP JUMPDEST DUP2 EQ PUSH3 0x268 JUMPI PUSH1 0x0 DUP1 REVERT JUMPDEST POP JUMP JUMPDEST PUSH1 0x0 DUP2 MLOAD SWAP1 POP PUSH3 0x27C DUP2 PUSH3 0x251 JUMP JUMPDEST SWAP3 SWAP2 POP POP JUMP JUMPDEST PUSH1 0x0 PUSH1 0x20 DUP3 DUP5 SUB SLT ISZERO PUSH3 0x29B JUMPI PUSH3 0x29A PUSH3 0x218 JUMP JUMPDEST JUMPDEST PUSH1 0x0 PUSH3 0x2AB DUP5 DUP3 DUP6 ADD PUSH3 0x26B JUMP JUMPDEST SWAP2 POP POP SWAP3 SWAP2 POP POP JUMP JUMPDEST PUSH1 0x0 DUP2 SWAP1 POP SWAP2 SWAP1 POP JUMP JUMPDEST PUSH3 0x2C9 DUP2 PUSH3 0x2B4 JUMP JUMPDEST DUP3 MSTORE POP POP JUMP JUMPDEST PUSH1 0x0 DUP2 SWAP1 POP SWAP2 SWAP1 POP JUMP JUMPDEST PUSH3 0x2E4 DUP2 PUSH3 0x2CF JUMP JUMPDEST DUP3 MSTORE POP POP JUMP JUMPDEST PUSH3 0x2F5 DUP2 PUSH3 0x23D JUMP JUMPDEST DUP3 MSTORE POP POP JUMP JUMPDEST PUSH1 0x0 PUSH1 0x80 DUP3 ADD SWAP1 POP PUSH3 0x312 PUSH1 0x0 DUP4 ADD DUP8 PUSH3 0x2BE JUMP JUMPDEST PUSH3 0x321 PUSH1 0x20 DUP4 ADD DUP7 PUSH3 0x2BE JUMP JUMPDEST PUSH3 0x330 PUSH1 0x40 DUP4 ADD DUP6 PUSH3 0x2D9 JUMP JUMPDEST PUSH3 0x33F PUSH1 0x60 DUP4 ADD DUP5 PUSH3 0x2EA JUMP JUMPDEST SWAP6 SWAP5 POP POP POP POP POP JUMP JUMPDEST PUSH2 0x1242 DUP1 PUSH3 0x358 PUSH1 0x0 CODECOPY PUSH1 0x0 RETURN INVALID PUSH1 0x80 PUSH1 0x40 MSTORE PUSH1 0x4 CALLDATASIZE LT PUSH2 0xA7 JUMPI PUSH1 0x0 CALLDATALOAD PUSH1 0xE0 SHR DUP1 PUSH4 0x9BD0E9E9 GT PUSH2 0x64 JUMPI DUP1 PUSH4 0x9BD0E9E9 EQ PUSH2 0x17A JUMPI DUP1 PUSH4 0xC0993EEA EQ PUSH2 0x1B9 JUMPI DUP1 PUSH4 0xDE74E57B EQ PUSH2 0x1E4 JUMPI DUP1 PUSH4 0xE9F76B11 EQ PUSH2 0x226 JUMPI DUP1 PUSH4 0xF2FDE38B EQ PUSH2 0x251 JUMPI DUP1 PUSH4 0xFC0C546A EQ PUSH2 0x27A JUMPI PUSH2 0xA7 JUMP JUMPDEST DUP1 PUSH4 0x5D76A9B7 EQ PUSH2 0xAC JUMPI DUP1 PUSH4 0x6C2C9C7D EQ PUSH2 0xC8 JUMPI DUP1 PUSH4 0x715018A6 EQ PUSH2 0xF3 JUMPI DUP1 PUSH4 0x7F6D6DF9 EQ PUSH2 0x10A JUMPI DUP1 PUSH4 0x8885D395 EQ PUSH2 0x133 JUMPI DUP1 PUSH4 0x8DA5CB5B EQ PUSH2 0x14F JUMPI JUMPDEST PUSH1 0x0 DUP1 REVERT JUMPDEST PUSH2 0xC6 PUSH1 0x4 DUP1 CALLDATASIZE SUB DUP2 ADD SWAP1 PUSH2 0xC1 SWAP2 SWAP1 PUSH2 0x979 JUMP JUMPDEST PUSH2 0x2A5 JUMP JUMPDEST STOP JUMPDEST CALLVALUE DUP1 ISZERO PUSH2 0xD4 JUMPI PUSH1 0x0 DUP1 REVERT JUMPDEST POP PUSH2 0xDD PUSH2 0x2A8 JUMP JUMPDEST PUSH1 0x40 MLOAD PUSH2 0xEA SWAP2 SWAP1 PUSH2 0x9B5 JUMP JUMPDEST PUSH1 0x40 MLOAD DUP1 SWAP2 SUB SWAP1 RETURN JUMPDEST CALLVALUE DUP1 ISZERO PUSH2 0xFF JUMPI PUSH1 0x0 DUP1 REVERT JUMPDEST POP PUSH2 0x108 PUSH2 0x2AE JUMP JUMPDEST STOP JUMPDEST CALLVALUE DUP1 ISZERO PUSH2 0x116 JUMPI PUSH1 0x0 DUP1 REVERT JUMPDEST POP PUSH2 0x131 PUSH1 0x4 DUP1 CALLDATASIZE SUB DUP2 ADD SWAP1 PUSH2 0x12C SWAP2 SWAP1 PUSH2 0x9D0 JUMP JUMPDEST PUSH2 0x2C2 JUMP JUMPDEST STOP JUMPDEST PUSH2 0x14D PUSH1 0x4 DUP1 CALLDATASIZE SUB DUP2 ADD SWAP1 PUSH2 0x148 SWAP2 SWAP1 PUSH2 0xB86 JUMP JUMPDEST PUSH2 0x3EF JUMP JUMPDEST STOP JUMPDEST CALLVALUE DUP1 ISZERO PUSH2 0x15B JUMPI PUSH1 0x0 DUP1 REVERT JUMPDEST POP PUSH2 0x164 PUSH2 0x3F3 JUMP JUMPDEST PUSH1 0x40 MLOAD PUSH2 0x171 SWAP2 SWAP1 PUSH2 0xBF1 JUMP JUMPDEST PUSH1 0x40 MLOAD DUP1 SWAP2 SUB SWAP1 RETURN JUMPDEST CALLVALUE DUP1 ISZERO PUSH2 0x186 JUMPI PUSH1 0x0 DUP1 REVERT JUMPDEST POP PUSH2 0x1A1 PUSH1 0x4 DUP1 CALLDATASIZE SUB DUP2 ADD SWAP1 PUSH2 0x19C SWAP2 SWAP1 PUSH2 0xC0C JUMP JUMPDEST PUSH2 0x41C JUMP JUMPDEST PUSH1 0x40 MLOAD PUSH2 0x1B0 SWAP4 SWAP3 SWAP2 SWAP1 PUSH2 0xC8A JUMP JUMPDEST PUSH1 0x40 MLOAD DUP1 SWAP2 SUB SWAP1 RETURN JUMPDEST CALLVALUE DUP1 ISZERO PUSH2 0x1C5 JUMPI PUSH1 0x0 DUP1 REVERT JUMPDEST POP PUSH2 0x1CE PUSH2 0x484 JUMP JUMPDEST PUSH1 0x40 MLOAD PUSH2 0x1DB SWAP2 SWAP1 PUSH2 0xCC1 JUMP JUMPDEST PUSH1 0x40 MLOAD DUP1 SWAP2 SUB SWAP1 RETURN JUMPDEST CALLVALUE DUP1 ISZERO PUSH2 0x1F0 JUMPI PUSH1 0x0 DUP1 REVERT JUMPDEST POP PUSH2 0x20B PUSH1 0x4 DUP1 CALLDATASIZE SUB DUP2 ADD SWAP1 PUSH2 0x206 SWAP2 SWAP1 PUSH2 0xCDC JUMP JUMPDEST PUSH2 0x4A8 JUMP JUMPDEST PUSH1 0x40 MLOAD PUSH2 0x21D SWAP7 SWAP6 SWAP5 SWAP4 SWAP3 SWAP2 SWAP1 PUSH2 0xD88 JUMP JUMPDEST PUSH1 0x40 MLOAD DUP1 SWAP2 SUB SWAP1 RETURN JUMPDEST CALLVALUE DUP1 ISZERO PUSH2 0x232 JUMPI PUSH1 0x0 DUP1 REVERT JUMPDEST POP PUSH2 0x23B PUSH2 0x5AC JUMP JUMPDEST PUSH1 0x40 MLOAD PUSH2 0x248 SWAP2 SWAP1 PUSH2 0xCC1 JUMP JUMPDEST PUSH1 0x40 MLOAD DUP1 SWAP2 SUB SWAP1 RETURN JUMPDEST CALLVALUE DUP1 ISZERO PUSH2 0x25D JUMPI PUSH1 0x0 DUP1 REVERT JUMPDEST POP PUSH2 0x278 PUSH1 0x4 DUP1 CALLDATASIZE SUB DUP2 ADD SWAP1 PUSH2 0x273 SWAP2 SWAP1 PUSH2 0xDF0 JUMP JUMPDEST PUSH2 0x5D0 JUMP JUMPDEST STOP JUMPDEST CALLVALUE DUP1 ISZERO PUSH2 0x286 JUMPI PUSH1 0x0 DUP1 REVERT JUMPDEST POP PUSH2 0x28F PUSH2 0x653 JUMP JUMPDEST PUSH1 0x40 MLOAD PUSH2 0x29C SWAP2 SWAP1 PUSH2 0xE7C JUMP JUMPDEST PUSH1 0x40 MLOAD DUP1 SWAP2 SUB SWAP1 RETURN JUMPDEST POP JUMP JUMPDEST PUSH1 0x3 SLOAD DUP2 JUMP JUMPDEST PUSH2 0x2B6 PUSH2 0x679 JUMP JUMPDEST PUSH2 0x2C0 PUSH1 0x0 PUSH2 0x6F7 JUMP JUMPDEST JUMP JUMPDEST PUSH1 0x0 DUP3 GT PUSH2 0x305 JUMPI PUSH1 0x40 MLOAD PUSH32 0x8C379A000000000000000000000000000000000000000000000000000000000 DUP2 MSTORE PUSH1 0x4 ADD PUSH2 0x2FC SWAP1 PUSH2 0xEF4 JUMP JUMPDEST PUSH1 0x40 MLOAD DUP1 SWAP2 SUB SWAP1 REVERT JUMPDEST PUSH1 0x0 DUP2 GT PUSH2 0x348 JUMPI PUSH1 0x40 MLOAD PUSH32 0x8C379A000000000000000000000000000000000000000000000000000000000 DUP2 MSTORE PUSH1 0x4 ADD PUSH2 0x33F SWAP1 PUSH2 0xF86 JUMP JUMPDEST PUSH1 0x40 MLOAD DUP1 SWAP2 SUB SWAP1 REVERT JUMPDEST PUSH1 0x1 PUSH1 0x0 SWAP1 SLOAD SWAP1 PUSH2 0x100 EXP SWAP1 DIV PUSH20 0xFFFFFFFFFFFFFFFFFFFFFFFFFFFFFFFFFFFFFFFF AND PUSH20 0xFFFFFFFFFFFFFFFFFFFFFFFFFFFFFFFFFFFFFFFF AND PUSH4 0x23B872DD CALLER ADDRESS DUP5 PUSH1 0x40 MLOAD DUP5 PUSH4 0xFFFFFFFF AND PUSH1 0xE0 SHL DUP2 MSTORE PUSH1 0x4 ADD PUSH2 0x3A7 SWAP4 SWAP3 SWAP2 SWAP1 PUSH2 0xFA6 JUMP JUMPDEST PUSH1 0x20 PUSH1 0x40 MLOAD DUP1 DUP4 SUB DUP2 PUSH1 0x0 DUP8 GAS CALL ISZERO DUP1 ISZERO PUSH2 0x3C6 JUMPI RETURNDATASIZE PUSH1 0x0 DUP1 RETURNDATACOPY RETURNDATASIZE PUSH1 0x0 REVERT JUMPDEST POP POP POP POP PUSH1 0x40 MLOAD RETURNDATASIZE PUSH1 0x1F NOT PUSH1 0x1F DUP3 ADD AND DUP3 ADD DUP1 PUSH1 0x40 MSTORE POP DUP2 ADD SWAP1 PUSH2 0x3EA SWAP2 SWAP1 PUSH2 0x1015 JUMP JUMPDEST POP POP POP JUMP JUMPDEST POP POP JUMP JUMPDEST PUSH1 0x0 DUP1 PUSH1 0x0 SWAP1 SLOAD SWAP1 PUSH2 0x100 EXP SWAP1 DIV PUSH20 0xFFFFFFFFFFFFFFFFFFFFFFFFFFFFFFFFFFFFFFFF AND SWAP1 POP SWAP1 JUMP JUMPDEST PUSH1 0x0 DUP1 PUSH1 0x0 PUSH1 0x41 DUP5 MLOAD EQ PUSH2 0x465 JUMPI PUSH1 0x40 MLOAD PUSH32 0x8C379A000000000000000000000000000000000000000000000000000000000 DUP2 MSTORE PUSH1 0x4 ADD PUSH2 0x45C SWAP1 PUSH2 0x108E JUMP JUMPDEST PUSH1 0x40 MLOAD DUP1 SWAP2 SUB SWAP1 REVERT JUMPDEST PUSH1 0x20 DUP5 ADD MLOAD SWAP3 POP PUSH1 0x40 DUP5 ADD MLOAD SWAP2 POP PUSH1 0x60 DUP5 ADD MLOAD PUSH1 0x0 BYTE SWAP1 POP SWAP2 SWAP4 SWAP1 SWAP3 POP JUMP JUMPDEST PUSH32 0x8CAD95687BA82C2CE50E74F7B754645E5117C3A5BEC8151C0726D5857980A866 DUP2 JUMP JUMPDEST PUSH1 0x2 PUSH1 0x20 MSTORE DUP1 PUSH1 0x0 MSTORE PUSH1 0x40 PUSH1 0x0 KECCAK256 PUSH1 0x0 SWAP2 POP SWAP1 POP DUP1 PUSH1 0x0 ADD SLOAD SWAP1 DUP1 PUSH1 0x1 ADD SLOAD SWAP1 DUP1 PUSH1 0x2 ADD PUSH1 0x0 SWAP1 SLOAD SWAP1 PUSH2 0x100 EXP SWAP1 DIV PUSH20 0xFFFFFFFFFFFFFFFFFFFFFFFFFFFFFFFFFFFFFFFF AND SWAP1 DUP1 PUSH1 0x3 ADD PUSH1 0x0 SWAP1 SLOAD SWAP1 PUSH2 0x100 EXP SWAP1 DIV PUSH20 0xFFFFFFFFFFFFFFFFFFFFFFFFFFFFFFFFFFFFFFFF AND SWAP1 DUP1 PUSH1 0x4 ADD SLOAD SWAP1 DUP1 PUSH1 0x5 ADD DUP1 SLOAD PUSH2 0x529 SWAP1 PUSH2 0x10DD JUMP JUMPDEST DUP1 PUSH1 0x1F ADD PUSH1 0x20 DUP1 SWAP2 DIV MUL PUSH1 0x20 ADD PUSH1 0x40 MLOAD SWAP1 DUP2 ADD PUSH1 0x40 MSTORE DUP1 SWAP3 SWAP2 SWAP1 DUP2 DUP2 MSTORE PUSH1 0x20 ADD DUP3 DUP1 SLOAD PUSH2 0x555 SWAP1 PUSH2 0x10DD JUMP JUMPDEST DUP1 ISZERO PUSH2 0x5A2 JUMPI DUP1 PUSH1 0x1F LT PUSH2 0x577 JUMPI PUSH2 0x100 DUP1 DUP4 SLOAD DIV MUL DUP4 MSTORE SWAP2 PUSH1 0x20 ADD SWAP2 PUSH2 0x5A2 JUMP JUMPDEST DUP3 ADD SWAP2 SWAP1 PUSH1 0x0 MSTORE PUSH1 0x20 PUSH1 0x0 KECCAK256 SWAP1 JUMPDEST DUP2 SLOAD DUP2 MSTORE SWAP1 PUSH1 0x1 ADD SWAP1 PUSH1 0x20 ADD DUP1 DUP4 GT PUSH2 0x585 JUMPI DUP3 SWAP1 SUB PUSH1 0x1F AND DUP3 ADD SWAP2 JUMPDEST POP POP POP POP POP SWAP1 POP DUP7 JUMP JUMPDEST PUSH32 0x6BDD9BE91E63E6B04E968850336C5BB0DA40D05ED377A7DB5C1DB94861BC0F92 DUP2 JUMP JUMPDEST PUSH2 0x5D8 PUSH2 0x679 JUMP JUMPDEST PUSH1 0x0 PUSH20 0xFFFFFFFFFFFFFFFFFFFFFFFFFFFFFFFFFFFFFFFF AND DUP2 PUSH20 0xFFFFFFFFFFFFFFFFFFFFFFFFFFFFFFFFFFFFFFFF AND SUB PUSH2 0x647 JUMPI PUSH1 0x40 MLOAD PUSH32 0x8C379A000000000000000000000000000000000000000000000000000000000 DUP2 MSTORE PUSH1 0x4 ADD PUSH2 0x63E SWAP1 PUSH2 0x1180 JUMP JUMPDEST PUSH1 0x40 MLOAD DUP1 SWAP2 SUB SWAP1 REVERT JUMPDEST PUSH2 0x650 DUP2 PUSH2 0x6F7 JUMP JUMPDEST POP JUMP JUMPDEST PUSH1 0x1 PUSH1 0x0 SWAP1 SLOAD SWAP1 PUSH2 0x100 EXP SWAP1 DIV PUSH20 0xFFFFFFFFFFFFFFFFFFFFFFFFFFFFFFFFFFFFFFFF AND DUP2 JUMP JUMPDEST PUSH2 0x681 PUSH2 0x7BB JUMP JUMPDEST PUSH20 0xFFFFFFFFFFFFFFFFFFFFFFFFFFFFFFFFFFFFFFFF AND PUSH2 0x69F PUSH2 0x3F3 JUMP JUMPDEST PUSH20 0xFFFFFFFFFFFFFFFFFFFFFFFFFFFFFFFFFFFFFFFF AND EQ PUSH2 0x6F5 JUMPI PUSH1 0x40 MLOAD PUSH32 0x8C379A000000000000000000000000000000000000000000000000000000000 DUP2 MSTORE PUSH1 0x4 ADD PUSH2 0x6EC SWAP1 PUSH2 0x11EC JUMP JUMPDEST PUSH1 0x40 MLOAD DUP1 SWAP2 SUB SWAP1 REVERT JUMPDEST JUMP JUMPDEST PUSH1 0x0 DUP1 PUSH1 0x0 SWAP1 SLOAD SWAP1 PUSH2 0x100 EXP SWAP1 DIV PUSH20 0xFFFFFFFFFFFFFFFFFFFFFFFFFFFFFFFFFFFFFFFF AND SWAP1 POP DUP2 PUSH1 0x0 DUP1 PUSH2 0x100 EXP DUP2 SLOAD DUP2 PUSH20 0xFFFFFFFFFFFFFFFFFFFFFFFFFFFFFFFFFFFFFFFF MUL NOT AND SWAP1 DUP4 PUSH20 0xFFFFFFFFFFFFFFFFFFFFFFFFFFFFFFFFFFFFFFFF AND MUL OR SWAP1 SSTORE POP DUP2 PUSH20 0xFFFFFFFFFFFFFFFFFFFFFFFFFFFFFFFFFFFFFFFF AND DUP2 PUSH20 0xFFFFFFFFFFFFFFFFFFFFFFFFFFFFFFFFFFFFFFFF AND PUSH32 0x8BE0079C531659141344CD1FD0A4F28419497F9722A3DAAFE3B4186F6B6457E0 PUSH1 0x40 MLOAD PUSH1 0x40 MLOAD DUP1 SWAP2 SUB SWAP1 LOG3 POP POP JUMP JUMPDEST PUSH1 0x0 CALLER SWAP1 POP SWAP1 JUMP JUMPDEST PUSH1 0x0 PUSH1 0x40 MLOAD SWAP1 POP SWAP1 JUMP JUMPDEST PUSH1 0x0 DUP1 REVERT JUMPDEST PUSH1 0x0 DUP1 REVERT JUMPDEST PUSH1 0x0 DUP1 REVERT JUMPDEST PUSH1 0x0 PUSH1 0x1F NOT PUSH1 0x1F DUP4 ADD AND SWAP1 POP SWAP2 SWAP1 POP JUMP JUMPDEST PUSH32 0x4E487B7100000000000000000000000000000000000000000000000000000000 PUSH1 0x0 MSTORE PUSH1 0x41 PUSH1 0x4 MSTORE PUSH1 0x24 PUSH1 0x0 REVERT JUMPDEST PUSH2 0x825 DUP3 PUSH2 0x7DC JUMP JUMPDEST DUP2 ADD DUP2 DUP2 LT PUSH8 0xFFFFFFFFFFFFFFFF DUP3 GT OR ISZERO PUSH2 0x844 JUMPI PUSH2 0x843 PUSH2 0x7ED JUMP JUMPDEST JUMPDEST DUP1 PUSH1 0x40 MSTORE POP POP POP JUMP JUMPDEST PUSH1 0x0 PUSH2 0x857 PUSH2 0x7C3 JUMP JUMPDEST SWAP1 POP PUSH2 0x863 DUP3 DUP3 PUSH2 0x81C JUMP JUMPDEST SWAP2 SWAP1 POP JUMP JUMPDEST PUSH1 0x0 DUP1 REVERT JUMPDEST PUSH1 0x0 DUP2 SWAP1 POP SWAP2 SWAP1 POP JUMP JUMPDEST PUSH2 0x880 DUP2 PUSH2 0x86D JUMP JUMPDEST DUP2 EQ PUSH2 0x88B JUMPI PUSH1 0x0 DUP1 REVERT JUMPDEST POP JUMP JUMPDEST PUSH1 0x0 DUP2 CALLDATALOAD SWAP1 POP PUSH2 0x89D DUP2 PUSH2 0x877 JUMP JUMPDEST SWAP3 SWAP2 POP POP JUMP JUMPDEST PUSH1 0x0 PUSH20 0xFFFFFFFFFFFFFFFFFFFFFFFFFFFFFFFFFFFFFFFF DUP3 AND SWAP1 POP SWAP2 SWAP1 POP JUMP JUMPDEST PUSH1 0x0 PUSH2 0x8CE DUP3 PUSH2 0x8A3 JUMP JUMPDEST SWAP1 POP SWAP2 SWAP1 POP JUMP JUMPDEST PUSH2 0x8DE DUP2 PUSH2 0x8C3 JUMP JUMPDEST DUP2 EQ PUSH2 0x8E9 JUMPI PUSH1 0x0 DUP1 REVERT JUMPDEST POP JUMP JUMPDEST PUSH1 0x0 DUP2 CALLDATALOAD SWAP1 POP PUSH2 0x8FB DUP2 PUSH2 0x8D5 JUMP JUMPDEST SWAP3 SWAP2 POP POP JUMP JUMPDEST PUSH1 0x0 PUSH1 0x80 DUP3 DUP5 SUB SLT ISZERO PUSH2 0x917 JUMPI PUSH2 0x916 PUSH2 0x7D7 JUMP JUMPDEST JUMPDEST PUSH2 0x921 PUSH1 0x80 PUSH2 0x84D JUMP JUMPDEST SWAP1 POP PUSH1 0x0 PUSH2 0x931 DUP5 DUP3 DUP6 ADD PUSH2 0x88E JUMP JUMPDEST PUSH1 0x0 DUP4 ADD MSTORE POP PUSH1 0x20 PUSH2 0x945 DUP5 DUP3 DUP6 ADD PUSH2 0x88E JUMP JUMPDEST PUSH1 0x20 DUP4 ADD MSTORE POP PUSH1 0x40 PUSH2 0x959 DUP5 DUP3 DUP6 ADD PUSH2 0x8EC JUMP JUMPDEST PUSH1 0x40 DUP4 ADD MSTORE POP PUSH1 0x60 PUSH2 0x96D DUP5 DUP3 DUP6 ADD PUSH2 0x88E JUMP JUMPDEST PUSH1 0x60 DUP4 ADD MSTORE POP SWAP3 SWAP2 POP POP JUMP JUMPDEST PUSH1 0x0 PUSH1 0x80 DUP3 DUP5 SUB SLT ISZERO PUSH2 0x98F JUMPI PUSH2 0x98E PUSH2 0x7CD JUMP JUMPDEST JUMPDEST PUSH1 0x0 PUSH2 0x99D DUP5 DUP3 DUP6 ADD PUSH2 0x901 JUMP JUMPDEST SWAP2 POP POP SWAP3 SWAP2 POP POP JUMP JUMPDEST PUSH2 0x9AF DUP2 PUSH2 0x86D JUMP JUMPDEST DUP3 MSTORE POP POP JUMP JUMPDEST PUSH1 0x0 PUSH1 0x20 DUP3 ADD SWAP1 POP PUSH2 0x9CA PUSH1 0x0 DUP4 ADD DUP5 PUSH2 0x9A6 JUMP JUMPDEST SWAP3 SWAP2 POP POP JUMP JUMPDEST PUSH1 0x0 DUP1 PUSH1 0x40 DUP4 DUP6 SUB SLT ISZERO PUSH2 0x9E7 JUMPI PUSH2 0x9E6 PUSH2 0x7CD JUMP JUMPDEST JUMPDEST PUSH1 0x0 PUSH2 0x9F5 DUP6 DUP3 DUP7 ADD PUSH2 0x88E JUMP JUMPDEST SWAP3 POP POP PUSH1 0x20 PUSH2 0xA06 DUP6 DUP3 DUP7 ADD PUSH2 0x88E JUMP JUMPDEST SWAP2 POP POP SWAP3 POP SWAP3 SWAP1 POP JUMP JUMPDEST PUSH1 0x0 DUP1 REVERT JUMPDEST PUSH1 0x0 DUP1 REVERT JUMPDEST PUSH1 0x0 PUSH8 0xFFFFFFFFFFFFFFFF DUP3 GT ISZERO PUSH2 0xA35 JUMPI PUSH2 0xA34 PUSH2 0x7ED JUMP JUMPDEST JUMPDEST PUSH2 0xA3E DUP3 PUSH2 0x7DC JUMP JUMPDEST SWAP1 POP PUSH1 0x20 DUP2 ADD SWAP1 POP SWAP2 SWAP1 POP JUMP JUMPDEST DUP3 DUP2 DUP4 CALLDATACOPY PUSH1 0x0 DUP4 DUP4 ADD MSTORE POP POP POP JUMP JUMPDEST PUSH1 0x0 PUSH2 0xA6D PUSH2 0xA68 DUP5 PUSH2 0xA1A JUMP JUMPDEST PUSH2 0x84D JUMP JUMPDEST SWAP1 POP DUP3 DUP2 MSTORE PUSH1 0x20 DUP2 ADD DUP5 DUP5 DUP5 ADD GT ISZERO PUSH2 0xA89 JUMPI PUSH2 0xA88 PUSH2 0xA15 JUMP JUMPDEST JUMPDEST PUSH2 0xA94 DUP5 DUP3 DUP6 PUSH2 0xA4B JUMP JUMPDEST POP SWAP4 SWAP3 POP POP POP JUMP JUMPDEST PUSH1 0x0 DUP3 PUSH1 0x1F DUP4 ADD SLT PUSH2 0xAB1 JUMPI PUSH2 0xAB0 PUSH2 0xA10 JUMP JUMPDEST JUMPDEST DUP2 CALLDATALOAD PUSH2 0xAC1 DUP5 DUP3 PUSH1 0x20 DUP7 ADD PUSH2 0xA5A JUMP JUMPDEST SWAP2 POP POP SWAP3 SWAP2 POP POP JUMP JUMPDEST PUSH1 0x0 PUSH1 0xC0 DUP3 DUP5 SUB SLT ISZERO PUSH2 0xAE0 JUMPI PUSH2 0xADF PUSH2 0x7D7 JUMP JUMPDEST JUMPDEST PUSH2 0xAEA PUSH1 0xC0 PUSH2 0x84D JUMP JUMPDEST SWAP1 POP PUSH1 0x0 PUSH2 0xAFA DUP5 DUP3 DUP6 ADD PUSH2 0x88E JUMP JUMPDEST PUSH1 0x0 DUP4 ADD MSTORE POP PUSH1 0x20 PUSH2 0xB0E DUP5 DUP3 DUP6 ADD PUSH2 0x88E JUMP JUMPDEST PUSH1 0x20 DUP4 ADD MSTORE POP PUSH1 0x40 PUSH2 0xB22 DUP5 DUP3 DUP6 ADD PUSH2 0x8EC JUMP JUMPDEST PUSH1 0x40 DUP4 ADD MSTORE POP PUSH1 0x60 PUSH2 0xB36 DUP5 DUP3 DUP6 ADD PUSH2 0x8EC JUMP JUMPDEST PUSH1 0x60 DUP4 ADD MSTORE POP PUSH1 0x80 PUSH2 0xB4A DUP5 DUP3 DUP6 ADD PUSH2 0x88E JUMP JUMPDEST PUSH1 0x80 DUP4 ADD MSTORE POP PUSH1 0xA0 DUP3 ADD CALLDATALOAD PUSH8 0xFFFFFFFFFFFFFFFF DUP2 GT ISZERO PUSH2 0xB6E JUMPI PUSH2 0xB6D PUSH2 0x868 JUMP JUMPDEST JUMPDEST PUSH2 0xB7A DUP5 DUP3 DUP6 ADD PUSH2 0xA9C JUMP JUMPDEST PUSH1 0xA0 DUP4 ADD MSTORE POP SWAP3 SWAP2 POP POP JUMP JUMPDEST PUSH1 0x0 DUP1 PUSH1 0x40 DUP4 DUP6 SUB SLT ISZERO PUSH2 0xB9D JUMPI PUSH2 0xB9C PUSH2 0x7CD JUMP JUMPDEST JUMPDEST PUSH1 0x0 DUP4 ADD CALLDATALOAD PUSH8 0xFFFFFFFFFFFFFFFF DUP2 GT ISZERO PUSH2 0xBBB JUMPI PUSH2 0xBBA PUSH2 0x7D2 JUMP JUMPDEST JUMPDEST PUSH2 0xBC7 DUP6 DUP3 DUP7 ADD PUSH2 0xACA JUMP JUMPDEST SWAP3 POP POP PUSH1 0x20 PUSH2 0xBD8 DUP6 DUP3 DUP7 ADD PUSH2 0x88E JUMP JUMPDEST SWAP2 POP POP SWAP3 POP SWAP3 SWAP1 POP JUMP JUMPDEST PUSH2 0xBEB DUP2 PUSH2 0x8C3 JUMP JUMPDEST DUP3 MSTORE POP POP JUMP JUMPDEST PUSH1 0x0 PUSH1 0x20 DUP3 ADD SWAP1 POP PUSH2 0xC06 PUSH1 0x0 DUP4 ADD DUP5 PUSH2 0xBE2 JUMP JUMPDEST SWAP3 SWAP2 POP POP JUMP JUMPDEST PUSH1 0x0 PUSH1 0x20 DUP3 DUP5 SUB SLT ISZERO PUSH2 0xC22 JUMPI PUSH2 0xC21 PUSH2 0x7CD JUMP JUMPDEST JUMPDEST PUSH1 0x0 DUP3 ADD CALLDATALOAD PUSH8 0xFFFFFFFFFFFFFFFF DUP2 GT ISZERO PUSH2 0xC40 JUMPI PUSH2 0xC3F PUSH2 0x7D2 JUMP JUMPDEST JUMPDEST PUSH2 0xC4C DUP5 DUP3 DUP6 ADD PUSH2 0xA9C JUMP JUMPDEST SWAP2 POP POP SWAP3 SWAP2 POP POP JUMP JUMPDEST PUSH1 0x0 DUP2 SWAP1 POP SWAP2 SWAP1 POP JUMP JUMPDEST PUSH2 0xC68 DUP2 PUSH2 0xC55 JUMP JUMPDEST DUP3 MSTORE POP POP JUMP JUMPDEST PUSH1 0x0 PUSH1 0xFF DUP3 AND SWAP1 POP SWAP2 SWAP1 POP JUMP JUMPDEST PUSH2 0xC84 DUP2 PUSH2 0xC6E JUMP JUMPDEST DUP3 MSTORE POP POP JUMP JUMPDEST PUSH1 0x0 PUSH1 0x60 DUP3 ADD SWAP1 POP PUSH2 0xC9F PUSH1 0x0 DUP4 ADD DUP7 PUSH2 0xC5F JUMP JUMPDEST PUSH2 0xCAC PUSH1 0x20 DUP4 ADD DUP6 PUSH2 0xC5F JUMP JUMPDEST PUSH2 0xCB9 PUSH1 0x40 DUP4 ADD DUP5 PUSH2 0xC7B JUMP JUMPDEST SWAP5 SWAP4 POP POP POP POP JUMP JUMPDEST PUSH1 0x0 PUSH1 0x20 DUP3 ADD SWAP1 POP PUSH2 0xCD6 PUSH1 0x0 DUP4 ADD DUP5 PUSH2 0xC5F JUMP JUMPDEST SWAP3 SWAP2 POP POP JUMP JUMPDEST PUSH1 0x0 PUSH1 0x20 DUP3 DUP5 SUB SLT ISZERO PUSH2 0xCF2 JUMPI PUSH2 0xCF1 PUSH2 0x7CD JUMP JUMPDEST JUMPDEST PUSH1 0x0 PUSH2 0xD00 DUP5 DUP3 DUP6 ADD PUSH2 0x88E JUMP JUMPDEST SWAP2 POP POP SWAP3 SWAP2 POP POP JUMP JUMPDEST PUSH1 0x0 DUP2 MLOAD SWAP1 POP SWAP2 SWAP1 POP JUMP JUMPDEST PUSH1 0x0 DUP3 DUP3 MSTORE PUSH1 0x20 DUP3 ADD SWAP1 POP SWAP3 SWAP2 POP POP JUMP JUMPDEST PUSH1 0x0 JUMPDEST DUP4 DUP2 LT ISZERO PUSH2 0xD43 JUMPI DUP1 DUP3 ADD MLOAD DUP2 DUP5 ADD MSTORE PUSH1 0x20 DUP2 ADD SWAP1 POP PUSH2 0xD28 JUMP JUMPDEST PUSH1 0x0 DUP5 DUP5 ADD MSTORE POP POP POP POP JUMP JUMPDEST PUSH1 0x0 PUSH2 0xD5A DUP3 PUSH2 0xD09 JUMP JUMPDEST PUSH2 0xD64 DUP2 DUP6 PUSH2 0xD14 JUMP JUMPDEST SWAP4 POP PUSH2 0xD74 DUP2 DUP6 PUSH1 0x20 DUP7 ADD PUSH2 0xD25 JUMP JUMPDEST PUSH2 0xD7D DUP2 PUSH2 0x7DC JUMP JUMPDEST DUP5 ADD SWAP2 POP POP SWAP3 SWAP2 POP POP JUMP JUMPDEST PUSH1 0x0 PUSH1 0xC0 DUP3 ADD SWAP1 POP PUSH2 0xD9D PUSH1 0x0 DUP4 ADD DUP10 PUSH2 0x9A6 JUMP JUMPDEST PUSH2 0xDAA PUSH1 0x20 DUP4 ADD DUP9 PUSH2 0x9A6 JUMP JUMPDEST PUSH2 0xDB7 PUSH1 0x40 DUP4 ADD DUP8 PUSH2 0xBE2 JUMP JUMPDEST PUSH2 0xDC4 PUSH1 0x60 DUP4 ADD DUP7 PUSH2 0xBE2 JUMP JUMPDEST PUSH2 0xDD1 PUSH1 0x80 DUP4 ADD DUP6 PUSH2 0x9A6 JUMP JUMPDEST DUP2 DUP2 SUB PUSH1 0xA0 DUP4 ADD MSTORE PUSH2 0xDE3 DUP2 DUP5 PUSH2 0xD4F JUMP JUMPDEST SWAP1 POP SWAP8 SWAP7 POP POP POP POP POP POP POP JUMP JUMPDEST PUSH1 0x0 PUSH1 0x20 DUP3 DUP5 SUB SLT ISZERO PUSH2 0xE06 JUMPI PUSH2 0xE05 PUSH2 0x7CD JUMP JUMPDEST JUMPDEST PUSH1 0x0 PUSH2 0xE14 DUP5 DUP3 DUP6 ADD PUSH2 0x8EC JUMP JUMPDEST SWAP2 POP POP SWAP3 SWAP2 POP POP JUMP JUMPDEST PUSH1 0x0 DUP2 SWAP1 POP SWAP2 SWAP1 POP JUMP JUMPDEST PUSH1 0x0 PUSH2 0xE42 PUSH2 0xE3D PUSH2 0xE38 DUP5 PUSH2 0x8A3 JUMP JUMPDEST PUSH2 0xE1D JUMP JUMPDEST PUSH2 0x8A3 JUMP JUMPDEST SWAP1 POP SWAP2 SWAP1 POP JUMP JUMPDEST PUSH1 0x0 PUSH2 0xE54 DUP3 PUSH2 0xE27 JUMP JUMPDEST SWAP1 POP SWAP2 SWAP1 POP JUMP JUMPDEST PUSH1 0x0 PUSH2 0xE66 DUP3 PUSH2 0xE49 JUMP JUMPDEST SWAP1 POP SWAP2 SWAP1 POP JUMP JUMPDEST PUSH2 0xE76 DUP2 PUSH2 0xE5B JUMP JUMPDEST DUP3 MSTORE POP POP JUMP JUMPDEST PUSH1 0x0 PUSH1 0x20 DUP3 ADD SWAP1 POP PUSH2 0xE91 PUSH1 0x0 DUP4 ADD DUP5 PUSH2 0xE6D JUMP JUMPDEST SWAP3 SWAP2 POP POP JUMP JUMPDEST PUSH1 0x0 DUP3 DUP3 MSTORE PUSH1 0x20 DUP3 ADD SWAP1 POP SWAP3 SWAP2 POP POP JUMP JUMPDEST PUSH32 0x5072696365206D7573742062652067726561746572207468616E207A65726F00 PUSH1 0x0 DUP3 ADD MSTORE POP JUMP JUMPDEST PUSH1 0x0 PUSH2 0xEDE PUSH1 0x1F DUP4 PUSH2 0xE97 JUMP JUMPDEST SWAP2 POP PUSH2 0xEE9 DUP3 PUSH2 0xEA8 JUMP JUMPDEST PUSH1 0x20 DUP3 ADD SWAP1 POP SWAP2 SWAP1 POP JUMP JUMPDEST PUSH1 0x0 PUSH1 0x20 DUP3 ADD SWAP1 POP DUP2 DUP2 SUB PUSH1 0x0 DUP4 ADD MSTORE PUSH2 0xF0D DUP2 PUSH2 0xED1 JUMP JUMPDEST SWAP1 POP SWAP2 SWAP1 POP JUMP JUMPDEST PUSH32 0x20416D6F756E74206D7573742062652067726561746572207468616E207A6572 PUSH1 0x0 DUP3 ADD MSTORE PUSH32 0x6F00000000000000000000000000000000000000000000000000000000000000 PUSH1 0x20 DUP3 ADD MSTORE POP JUMP JUMPDEST PUSH1 0x0 PUSH2 0xF70 PUSH1 0x21 DUP4 PUSH2 0xE97 JUMP JUMPDEST SWAP2 POP PUSH2 0xF7B DUP3 PUSH2 0xF14 JUMP JUMPDEST PUSH1 0x40 DUP3 ADD SWAP1 POP SWAP2 SWAP1 POP JUMP JUMPDEST PUSH1 0x0 PUSH1 0x20 DUP3 ADD SWAP1 POP DUP2 DUP2 SUB PUSH1 0x0 DUP4 ADD MSTORE PUSH2 0xF9F DUP2 PUSH2 0xF63 JUMP JUMPDEST SWAP1 POP SWAP2 SWAP1 POP JUMP JUMPDEST PUSH1 0x0 PUSH1 0x60 DUP3 ADD SWAP1 POP PUSH2 0xFBB PUSH1 0x0 DUP4 ADD DUP7 PUSH2 0xBE2 JUMP JUMPDEST PUSH2 0xFC8 PUSH1 0x20 DUP4 ADD DUP6 PUSH2 0xBE2 JUMP JUMPDEST PUSH2 0xFD5 PUSH1 0x40 DUP4 ADD DUP5 PUSH2 0x9A6 JUMP JUMPDEST SWAP5 SWAP4 POP POP POP POP JUMP JUMPDEST PUSH1 0x0 DUP2 ISZERO ISZERO SWAP1 POP SWAP2 SWAP1 POP JUMP JUMPDEST PUSH2 0xFF2 DUP2 PUSH2 0xFDD JUMP JUMPDEST DUP2 EQ PUSH2 0xFFD JUMPI PUSH1 0x0 DUP1 REVERT JUMPDEST POP JUMP JUMPDEST PUSH1 0x0 DUP2 MLOAD SWAP1 POP PUSH2 0x100F DUP2 PUSH2 0xFE9 JUMP JUMPDEST SWAP3 SWAP2 POP POP JUMP JUMPDEST PUSH1 0x0 PUSH1 0x20 DUP3 DUP5 SUB SLT ISZERO PUSH2 0x102B JUMPI PUSH2 0x102A PUSH2 0x7CD JUMP JUMPDEST JUMPDEST PUSH1 0x0 PUSH2 0x1039 DUP5 DUP3 DUP6 ADD PUSH2 0x1000 JUMP JUMPDEST SWAP2 POP POP SWAP3 SWAP2 POP POP JUMP JUMPDEST PUSH32 0x696E76616C6964207369676E6174757265206C656E6774680000000000000000 PUSH1 0x0 DUP3 ADD MSTORE POP JUMP JUMPDEST PUSH1 0x0 PUSH2 0x1078 PUSH1 0x18 DUP4 PUSH2 0xE97 JUMP JUMPDEST SWAP2 POP PUSH2 0x1083 DUP3 PUSH2 0x1042 JUMP JUMPDEST PUSH1 0x20 DUP3 ADD SWAP1 POP SWAP2 SWAP1 POP JUMP JUMPDEST PUSH1 0x0 PUSH1 0x20 DUP3 ADD SWAP1 POP DUP2 DUP2 SUB PUSH1 0x0 DUP4 ADD MSTORE PUSH2 0x10A7 DUP2 PUSH2 0x106B JUMP JUMPDEST SWAP1 POP SWAP2 SWAP1 POP JUMP JUMPDEST PUSH32 0x4E487B7100000000000000000000000000000000000000000000000000000000 PUSH1 0x0 MSTORE PUSH1 0x22 PUSH1 0x4 MSTORE PUSH1 0x24 PUSH1 0x0 REVERT JUMPDEST PUSH1 0x0 PUSH1 0x2 DUP3 DIV SWAP1 POP PUSH1 0x1 DUP3 AND DUP1 PUSH2 0x10F5 JUMPI PUSH1 0x7F DUP3 AND SWAP2 POP JUMPDEST PUSH1 0x20 DUP3 LT DUP2 SUB PUSH2 0x1108 JUMPI PUSH2 0x1107 PUSH2 0x10AE JUMP JUMPDEST JUMPDEST POP SWAP2 SWAP1 POP JUMP JUMPDEST PUSH32 0x4F776E61626C653A206E6577206F776E657220697320746865207A65726F2061 PUSH1 0x0 DUP3 ADD MSTORE PUSH32 0x6464726573730000000000000000000000000000000000000000000000000000 PUSH1 0x20 DUP3 ADD MSTORE POP JUMP JUMPDEST PUSH1 0x0 PUSH2 0x116A PUSH1 0x26 DUP4 PUSH2 0xE97 JUMP JUMPDEST SWAP2 POP PUSH2 0x1175 DUP3 PUSH2 0x110E JUMP JUMPDEST PUSH1 0x40 DUP3 ADD SWAP1 POP SWAP2 SWAP1 POP JUMP JUMPDEST PUSH1 0x0 PUSH1 0x20 DUP3 ADD SWAP1 POP DUP2 DUP2 SUB PUSH1 0x0 DUP4 ADD MSTORE PUSH2 0x1199 DUP2 PUSH2 0x115D JUMP JUMPDEST SWAP1 POP SWAP2 SWAP1 POP JUMP JUMPDEST PUSH32 0x4F776E61626C653A2063616C6C6572206973206E6F7420746865206F776E6572 PUSH1 0x0 DUP3 ADD MSTORE POP JUMP JUMPDEST PUSH1 0x0 PUSH2 0x11D6 PUSH1 0x20 DUP4 PUSH2 0xE97 JUMP JUMPDEST SWAP2 POP PUSH2 0x11E1 DUP3 PUSH2 0x11A0 JUMP JUMPDEST PUSH1 0x20 DUP3 ADD SWAP1 POP SWAP2 SWAP1 POP JUMP JUMPDEST PUSH1 0x0 PUSH1 0x20 DUP3 ADD SWAP1 POP DUP2 DUP2 SUB PUSH1 0x0 DUP4 ADD MSTORE PUSH2 0x1205 DUP2 PUSH2 0x11C9 JUMP JUMPDEST SWAP1 POP SWAP2 SWAP1 POP JUMP INVALID LOG2 PUSH5 0x6970667358 0x22 SLT KECCAK256 REVERT CALLDATACOPY ORIGIN 0x28 0xE 0x23 EXTCODEHASH 0xAC LOG0 JUMP 0xC4 SWAP13 0x4F 0xBD SWAP11 0xB0 0xC MULMOD 0xBA 0xD6 PUSH17 0xE293C4B50E226F6D652BB764736F6C6343 STOP ADDMOD SLT STOP CALLER "
				},
				"gasEstimates": {
					"creation": {
						"codeDepositCost": "934800",
						"executionCost": "infinite",
						"totalCost": "infinite"
					},
					"external": {
						"DOMAIN_TYPE_HASH()": "351",
						"LIST_TYPE_HASH()": "395",
						"_splitSignature(bytes)": "infinite",
						"buy((uint256,uint256,address,address,uint256,bytes),uint256)": "infinite",
						"listing(uint256,uint256)": "infinite",
						"listingCounter()": "2452",
						"listings(uint256)": "infinite",
						"makeOffer((uint256,uint256,address,uint256))": "infinite",
						"owner()": "2633",
						"renounceOwnership()": "30443",
						"token()": "infinite",
						"transferOwnership(address)": "30832"
					},
					"internal": {
						"_getChainId()": "infinite",
						"_verifySignature(struct ITokenMarket.ListRequest memory)": "infinite"
					}
				},
				"methodIdentifiers": {
					"DOMAIN_TYPE_HASH()": "c0993eea",
					"LIST_TYPE_HASH()": "e9f76b11",
					"_splitSignature(bytes)": "9bd0e9e9",
					"buy((uint256,uint256,address,address,uint256,bytes),uint256)": "8885d395",
					"listing(uint256,uint256)": "7f6d6df9",
					"listingCounter()": "6c2c9c7d",
					"listings(uint256)": "de74e57b",
					"makeOffer((uint256,uint256,address,uint256))": "5d76a9b7",
					"owner()": "8da5cb5b",
					"renounceOwnership()": "715018a6",
					"token()": "fc0c546a",
					"transferOwnership(address)": "f2fde38b"
				}
			},
			"storageLayout": {
				"storage": [
					{
						"astId": 7,
						"contract": "contracts/TokenMarket.sol:TokenMarket",
						"label": "_owner",
						"offset": 0,
						"slot": "0",
						"type": "t_address"
					},
					{
						"astId": 272,
						"contract": "contracts/TokenMarket.sol:TokenMarket",
						"label": "token",
						"offset": 0,
						"slot": "1",
						"type": "t_contract(IERC20)190"
					},
					{
						"astId": 277,
						"contract": "contracts/TokenMarket.sol:TokenMarket",
						"label": "listings",
						"offset": 0,
						"slot": "2",
						"type": "t_mapping(t_uint256,t_struct(ListRequest)227_storage)"
					},
					{
						"astId": 279,
						"contract": "contracts/TokenMarket.sol:TokenMarket",
						"label": "listingCounter",
						"offset": 0,
						"slot": "3",
						"type": "t_uint256"
					},
					{
						"astId": 291,
						"contract": "contracts/TokenMarket.sol:TokenMarket",
						"label": "_domainSeparator",
						"offset": 0,
						"slot": "4",
						"type": "t_bytes32"
					}
				],
				"types": {
					"t_address": {
						"encoding": "inplace",
						"label": "address",
						"numberOfBytes": "20"
					},
					"t_bytes32": {
						"encoding": "inplace",
						"label": "bytes32",
						"numberOfBytes": "32"
					},
					"t_bytes_storage": {
						"encoding": "bytes",
						"label": "bytes",
						"numberOfBytes": "32"
					},
					"t_contract(IERC20)190": {
						"encoding": "inplace",
						"label": "contract IERC20",
						"numberOfBytes": "20"
					},
					"t_mapping(t_uint256,t_struct(ListRequest)227_storage)": {
						"encoding": "mapping",
						"key": "t_uint256",
						"label": "mapping(uint256 => struct ITokenMarket.ListRequest)",
						"numberOfBytes": "32",
						"value": "t_struct(ListRequest)227_storage"
					},
					"t_struct(ListRequest)227_storage": {
						"encoding": "inplace",
						"label": "struct ITokenMarket.ListRequest",
						"members": [
							{
								"astId": 216,
								"contract": "contracts/TokenMarket.sol:TokenMarket",
								"label": "_price",
								"offset": 0,
								"slot": "0",
								"type": "t_uint256"
							},
							{
								"astId": 218,
								"contract": "contracts/TokenMarket.sol:TokenMarket",
								"label": "_amount",
								"offset": 0,
								"slot": "1",
								"type": "t_uint256"
							},
							{
								"astId": 220,
								"contract": "contracts/TokenMarket.sol:TokenMarket",
								"label": "_from",
								"offset": 0,
								"slot": "2",
								"type": "t_address"
							},
							{
								"astId": 222,
								"contract": "contracts/TokenMarket.sol:TokenMarket",
								"label": "_currency",
								"offset": 0,
								"slot": "3",
								"type": "t_address"
							},
							{
								"astId": 224,
								"contract": "contracts/TokenMarket.sol:TokenMarket",
								"label": "deadline",
								"offset": 0,
								"slot": "4",
								"type": "t_uint256"
							},
							{
								"astId": 226,
								"contract": "contracts/TokenMarket.sol:TokenMarket",
								"label": "signature",
								"offset": 0,
								"slot": "5",
								"type": "t_bytes_storage"
							}
						],
						"numberOfBytes": "192"
					},
					"t_uint256": {
						"encoding": "inplace",
						"label": "uint256",
						"numberOfBytes": "32"
					}
				}
			},
			"userdoc": {
				"kind": "user",
				"methods": {},
				"version": 1
			}
		}
	}
}